00789047323707
00010213940521044432904/732-3707LI010OCALA     FL0454OCALA     FL04540000000000000000000005000000000000000136000000000789047323712
00010213940521044244904/732-3707LI010OCALA     FL0454OCALA     FL04540000000000000000000005000000000000000136000000000789047323712
00010213940521044814904/732-3707LI010OCALA     FL0454OCALA     FL04540000000000000000000005000000000000000133000000000789047323707
00010213940521043328904/732-3707LI010OCALA     FL0454OCALA     FL04540000000000000000000005000000000000000133000000000789047323759
00010213940521043903904/732-3707LI010OCALA     FL0454OCALA     FL04540000000000000000000005000000000000000133000000000789047323752
00010213940521043522904/732-3707LI010OCALA     FL0454OCALA     FL04540000000000000000000005000000000000000133000000000789047323753
00010213940521043709904/732-3707LI010OCALA     FL0454OCALA     FL04540000000000000000000005000000000000000136000000000789047323753
00010213940521044051904/732-3707LI010OCALA     FL0454OCALA     FL04540000000000000000000005000000000000000133000000000789047323752
00010213940521042947904/732-3707LI010OCALA     FL0454OCALA     FL04540000000000000000000005000000000000000133000000000789047323774
00010213940521043140904/732-3707LI010OCALA     FL0454OCALA     FL04540000000000000000000005000000000000000136000000000789047323759
00010213940521042759904/732-3707LI010OCALA     FL0454OCALA     FL04540000000000000000000005000000000000000133000000000789047323774
00010213940521024939904/732-3707LI010OCALA     FL0454OCALA     FL04540000000000000000000005000000000000000133000000000789047325984
00010213940521031945904/732-3707LI010OCALA     FL0454OCALA     FL04540000000000000000000005000000000000000133000000000789047320180
00010213940521034615904/732-3707LI010OCALA     FL0454OCALA     FL04540000000000000000000005000000000000000133000000000789047325617
00010213940521022048904/732-3707LI010OCALA     FL0454OCALA     FL04540000000000000000000005000000000000000133000000000789047327686
00010213940521041750904/732-3707LI010OCALA     FL0454OCALA     FL04540000000000000000000005000000000000000133000000000789047323785
00010213940520200038904/732-3707LI010OCALA     FL0454OCALA     FL04540000000000000000000005000000000000000017000000000799047327686
00010213940520195941904/732-3707LI010OCALA     FL0454OCALA     FL04540000000000000000000005000000000000000017000000000799047324470
00010233940521034247216/861-6709LD010CLEVELAND OH0320CLEVELAND OH03200000000000900000000015000000000000000017000000000792162413258
00010233940521034515216/861-6709LD010CLEVELAND OH0320CLEVELAND OH03200000000000900000000015000000000000000019000000000792162413587
00010233940520204817216/861-6709LD010CLEVELAND OH0320CLEVELAND OH03200000000001000000000017000000000000000878000000636612163813320
00010233940521131454216/861-6709LD010CLEVELAND OH0320CLEVELAND OH03200000000000900000000015000000000000000017000000000792168616709
00010243940521060610304/529-2091LD010HUNTINGTONWV0254HUNTINGTONWV02540000000000900000000015000000000000000019000000000793045292091
00010255940520232233210/727-8308LD010LAREDO    TX0566LAREDO    TX05660000000000000000000005000000000000000017000000000792107278466
00010255940520232529210/727-8308LD010LAREDO    TX0566LAREDO    TX05660000000000000000000005000000000000000042000000000792107279837
00010255940520232502210/727-8308LD010LAREDO    TX0566LAREDO    TX05660000000000000000000005000000000000000017000000000792107278948
00010255940520232435210/727-8308LD010LAREDO    TX0566LAREDO    TX05660000000000000000000005000000000000000014000000000792107278894
00010255940520232300210/727-8308LD010LAREDO    TX0566LAREDO    TX05660000000000000000000005000000000000000014000000000792107278717
00010301940520211231915/676-0091LD010ABILENE   TX0550ABILENE   TX05500000000000000000000005000000000000000014000000000799156760168
00010301940520211152915/676-0091LD010ABILENE   TX0550ABILENE   TX05500000000000000000000005000000000000000017000000000799156760164
00010301940520211326915/676-0091LD010ABILENE   TX0550ABILENE   TX05500000000000000000000005000000000000000014000000000799156760260
00010301940520211425915/676-0091LD010ABILENE   TX0550ABILENE   TX05500000000000000000000005000000000000000017000000000799156760265
00010301940520211258915/676-0091LD010ABILENE   TX0550ABILENE   TX05500000000000000000000005000000000000000017000000000799156760157
00010301940520211352915/676-0091LD010ABILENE   TX0550ABILENE   TX05500000000000000000000005000000000000000039000000000799156760264
00010361940521043123703/352-3136LD190VIENNA    VA0236VIENNA    VA02360000000000900000000015000000000000000019000000000797032189851
00010361940520211847703/352-3136LD190VIENNA    VA0236FAIRFAX   VA02360000000000900000000015000000000000000017000000000797036918269
00010361940521042930703/352-3136LD190VIENNA    VA0236VIENNA    VA02360000000000900000000015000000000000000017000000000797032189839
00010361940521043152703/352-3136LD190VIENNA    VA0236VIENNA    VA02360000000000900000000015000000000000000017000000000797032189852
00010361940521043049703/352-3136LD190VIENNA    VA0236VIENNA    VA02360000000000900000000015000000000000000017000000000797032189844
00010361940521042708703/352-3136LD190VIENNA    VA0236VIENNA    VA02360000000000900000000015000000000000000039000000000797032189885
00010361940521042904703/352-3136LD190VIENNA    VA0236VIENNA    VA02360000000000900000000015000000000000000017000000000797032189836
00010361940521042837703/352-3136LD190VIENNA    VA0236VIENNA    VA02360000000000900000000015000000000000000019000000000797032189834
00010361940521043218703/352-3136LD190VIENNA    VA0236VIENNA    VA02360000000000900000000015000000000000000017000000000797032189856
00010361940521042642703/352-3136LD190VIENNA    VA0236VIENNA    VA02360000000000900000000015000000000000000014000000000797032189874
00010361940521042523703/352-3136LD190VIENNA    VA0236VIENNA    VA02360000000000900000000015000000000000000017000000000797033523297
00010361940521042128703/352-3136LD190VIENNA    VA0236VIENNA    VA02360000000000900000000015000000000000000017000000000797033524373
00010361940521042459703/352-3136LD190VIENNA    VA0236VIENNA    VA02360000000000900000000015000000000000000014000000000797033523287
00010361940521042249703/352-3136LD190VIENNA    VA0236VIENNA    VA02360000000000900000000015000000000000000017000000000797033523275
00010361940521042103703/352-3136LD190VIENNA    VA0236VIENNA    VA02360000000000900000000015000000000000000017000000000797033528247
00010361940521042037703/352-3136LD190VIENNA    VA0236VIENNA    VA02360000000000900000000015000000000000000017000000000797033527695
00010361940521042313703/352-3136LD190VIENNA    VA0236VIENNA    VA02360000000000900000000015000000000000000017000000000797033523276
00010361940521042342703/352-3136LD190VIENNA    VA0236VIENNA    VA02360000000000900000000015000000000000000014000000000797033523278
00010361940521004104703/352-3136LD190VIENNA    VA0236ALEXANDRIAVA02360000000000900000000015000000000000000181000000660587035530238
00010361940520212150703/352-3136LD190VIENNA    VA0236FAIRFAX   VA02360000000000900000000015000000000000000019000000000797036918406
00010361940520211913703/352-3136LD190VIENNA    VA0236FAIRFAX   VA02360000000000900000000015000000000000000019000000000797036918298
00010361940520211717703/352-3136LD190VIENNA    VA0236FAIRFAX   VA02360000000000900000000015000000000000000017000000000797036918222
00010361940520211651703/352-3136LD190VIENNA    VA0236FAIRFAX   VA02360000000000900000000015000000000000000019000000000797036918220
00010361940520212058703/352-3136LD190VIENNA    VA0236FAIRFAX   VA02360000000000900000000015000000000000000019000000000797036918393
00010361940520211554703/352-3136LD190VIENNA    VA0236FAIRFAX   VA02360000000000900000000015000000000000000019000000000797036918206
00010361940520212124703/352-3136LD190VIENNA    VA0236FAIRFAX   VA02360000000000900000000015000000000000000019000000000797036918395
00010361940521154237703/352-3136LD190VIENNA    VA0236MANASSAS  VA02360000000000900000000015000000000000000019000000135167033309070
00010402940520192909301/294-4522LD100ROCKVILLE MD0236ROCKVILLE MD02360000000000900000000015000000000000000289000000636613013405565
00010402940521032425301/294-4522LD100ROCKVILLE MD0236ROCKVILLE MD02360000000000900000000015000000000000000406000000636613013405565
00010402940521163334301/294-4522LD100ROCKVILLE MD0236ROCKVILLE MD02360000000001600000000023000000000000002067000000636613013405565
00010402940521162754301/294-4522LD100ROCKVILLE MD0236ROCKVILLE MD02360000000000900000000015000000000000000467000000636613013405565
00010432940521012200303/861-8552LD010DENVER    CO0656DENVER    CO06560000000000000000000005000000000000000014000000000793038323697
00010432940521050947303/861-8552LD010DENVER    CO0656DENVER    CO06560000000000000000000005000000000000000017000000135163038323447
00010432940520192446303/861-8552LD010DENVER    CO0656DENVER    CO06560000000000000000000005000000000000000019000000135163038323447
00010432940521012126303/861-8552LD010DENVER    CO0656DENVER    CO06560000000000000000000005000000000000000039000000000793038323696
00010432940521011943303/861-8552LD010DENVER    CO0656DENVER    CO06560000000000000000000005000000000000000017000000000793038322946
00010432940521062712303/861-8552LD010DENVER    CO0656LITTLETON CO06560000000000000000000005000000000000003694000000636613039734222
00010432940521131829303/861-8552LD010DENVER    CO0656LITTLETON CO06560000000000000000000005000000000000005361000000636613039734222
00010472940520213549914/561-9103LD010NEWBURGH  NY0133NEWBURGH  NY01330000000000900000000015000000000000000017000000000799145619282
00010472940520213514914/561-9103LD010NEWBURGH  NY0133NEWBURGH  NY01330000000000900000000015000000000000000039000000000799145619182
00010472940521045305914/561-9103LD010NEWBURGH  NY0133POUGHKEPSENY01330000000000900000000015000000000000000019000000135169144730401
00010472940520235954914/561-9103LD010NEWBURGH  NY0133POUGHKEPSENY01330000000000900000000015000000000000000019000000135169144730401
00010472940520190455914/561-9103LD010NEWBURGH  NY0133POUGHKEPSENY01330000000000900000000015000000000000000019000000135169144730401
00010472940521094121914/561-9103LD010NEWBURGH  NY0133POUGHKEPSENY01330000000000900000000015000000000000000017000000135169144730401
00010472940521143306914/561-9103LD010NEWBURGH  NY0133POUGHKEPSENY01330000000000900000000015000000000000000019000000135169144730401
00010506940520183626615/928-9544LI010JOHNSON CYTN0956JOHNSON CYTN09560000000000000000000005000000000000000019000000000796159280749
00010506940520184136615/928-9544LI010JOHNSON CYTN0956JOHNSON CYTN09560000000000000000000005000000000000000019000000000796159286544
00010506940520183833615/928-9544LI010JOHNSON CYTN0956JOHNSON CYTN09560000000000000000000005000000000000000022000000000796159288155
00010506940520183802615/928-9544LI010JOHNSON CYTN0956JOHNSON CYTN09560000000000000000000005000000000000000019000000000796159288148
00010506940520184036615/928-9544LI010JOHNSON CYTN0956JOHNSON CYTN09560000000000000000000005000000000000000019000000000796159285476
00010506940520184106615/928-9544LI010JOHNSON CYTN0956JOHNSON CYTN09560000000000000000000005000000000000000019000000000796159286140
00010506940520183729615/928-9544LI010JOHNSON CYTN0956JOHNSON CYTN09560000000000000000000005000000000000000019000000000796159286100
00010506940520183656615/928-9544LI010JOHNSON CYTN0956JOHNSON CYTN09560000000000000000000005000000000000000022000000000796159280337
00010506940520183905615/928-9544LI010JOHNSON CYTN0956JOHNSON CYTN09560000000000000000000005000000000000000022000000000796159288169
00010506940520184008615/928-9544LI010JOHNSON CYTN0956JOHNSON CYTN09560000000000000000000005000000000000000019000000000796159289030
00010506940520183936615/928-9544LI010JOHNSON CYTN0956JOHNSON CYTN09560000000000000000000005000000000000000019000000000796159288240
00010526940520192957713/496-1332LD010BUFFALO   TX0560BUFFALO   TX05600000000000000000000005000000000000000017000000000797135882162
00010526940521142740713/496-1332LD010BUFFALO   TX0560BUFFALO   TX05600000000000000000000005000000000000000019000000135167134961332
00010526940520190031713/496-1332LD010BUFFALO   TX0560BUFFALO   TX05600000000000000000000005000000000000000017000000135167134961332
00010526940520235554713/496-1332LD010BUFFALO   TX0560BUFFALO   TX05600000000000000000000005000000000000000017000000135167134961332
00010526940520235621713/496-1332LD010BUFFALO   TX0560BUFFALO   TX05600000000000000000000005000000000000000017000000135167135566700
00010526940520190058713/496-1332LD010BUFFALO   TX0560BUFFALO   TX05600000000000000000000005000000000000000017000000135167135566700
00010526940520193024713/496-1332LD010BUFFALO   TX0560BUFFALO   TX05600000000000000000000005000000000000000014000000000797135882164
00010526940520192913713/496-1332LD010BUFFALO   TX0560BUFFALO   TX05600000000000000000000005000000000000000042000000000797135882118
00010526940520191508713/496-1332LD010BUFFALO   TX0560LANGHAMCRKTX05600000000000000000000005000000000000000000000000636617138554382
00010552940521120012503/370-4314LD010SALEM     OR0672SALEM     OR06720000000000000000000005000000000000000014000000000795033707287
00010552940521115821503/370-4314LD010SALEM     OR0672SALEM     OR06720000000000000000000005000000000000000017000000000795033706385
00010552940521115917503/370-4314LD010SALEM     OR0672SALEM     OR06720000000000000000000005000000000000000017000000000795033707082
00010552940521115944503/370-4314LD010SALEM     OR0672SALEM     OR06720000000000000000000005000000000000000017000000000795033707195
00010552940521120038503/370-4314LD010SALEM     OR0672SALEM     OR06720000000000000000000005000000000000000017000000000795033709216
00010552940521120159503/370-4314LD010SALEM     OR0672SALEM     OR06720000000000000000000005000000000000000017000000000795033709250
00010552940521120104503/370-4314LD010SALEM     OR0672SALEM     OR06720000000000000000000005000000000000000017000000000795033709230
00010552940521120131503/370-4314LD010SALEM     OR0672SALEM     OR0672000