00002026940520012327515/753-0670LD010MARSHALLTNIA0632MARSHALLTNIA06320000000000000000000005000000000000000022000000135165157530670
00002026940520111150515/753-0670LD010MARSHALLTNIA0632MARSHALLTNIA06320000000000000000000005000000000000000022000000135165157530670
00002026940519203049515/753-0670LD010MARSHALLTNIA0632MARSHALLTNIA06320000000000000000000005000000000000000019000000135165157530670
00002026940520061433515/753-0670LD010MARSHALLTNIA0632MARSHALLTNIA06320000000000000000000005000000000000000022000000135165157530670
00002026940520160553515/753-0670LD010MARSHALLTNIA0632MARSHALLTNIA06320000000000000000000005000000000000000019000000135165157530670
00002033940520020239205/543-3550LD010GADSDEN   AL0476GADSDEN   AL04760000000000000000000005000000000000000017000000000792055496131
00002033940520144826205/543-3550LD010GADSDEN   AL0476GADSDEN   AL04760000000000000000000005000000000000000019000000135162055433550
00002033940520095511205/543-3550LD010GADSDEN   AL0476GADSDEN   AL04760000000000000000000005000000000000000017000000135162055433550
00002033940520045752205/543-3550LD010GADSDEN   AL0476GADSDEN   AL04760000000000000000000005000000000000000017000000135162055433550
00002033940519191316205/543-3550LD010GADSDEN   AL0476GADSDEN   AL04760000000000000000000005000000000000000025000000135162055433550
00002033940520000610205/543-3550LD010GADSDEN   AL0476GADSDEN   AL04760000000000000000000005000000000000000019000000135162055433550
00002033940520020135205/543-3550LD010GADSDEN   AL0476GADSDEN   AL04760000000000000000000005000000000000000014000000000792055496129
00002033940520020108205/543-3550LD010GADSDEN   AL0476GADSDEN   AL04760000000000000000000005000000000000000017000000000792055496128
00002033940520015828205/543-3550LD010GADSDEN   AL0476GADSDEN   AL04760000000000000000000005000000000000000042000000000792055496124
00002033940520015520205/543-3550LD010GADSDEN   AL0476GADSDEN   AL04760000000000000000000005000000000000000019000000000792055496118
00002033940520015803205/543-3550LD010GADSDEN   AL0476GADSDEN   AL04760000000000000000000005000000000000000017000000000792055496123
00002033940520015400205/543-3550LD010GADSDEN   AL0476GADSDEN   AL04760000000000000000000005000000000000000017000000000792055496101
00002033940520015736205/543-3550LD010GADSDEN   AL0476GADSDEN   AL04760000000000000000000005000000000000000017000000000792055496122
00002033940520015453205/543-3550LD010GADSDEN   AL0476GADSDEN   AL04760000000000000000000005000000000000000019000000000792055496115
00002033940520015427205/543-3550LD010GADSDEN   AL0476GADSDEN   AL04760000000000000000000005000000000000000017000000000792055496109
00002033940520015614205/543-3550LD010GADSDEN   AL0476GADSDEN   AL04760000000000000000000005000000000000000017000000000792055496120
00002033940520015547205/543-3550LD010GADSDEN   AL0476GADSDEN   AL04760000000000000000000005000000000000000017000000000792055496119
00002033940520015653205/543-3550LD010GADSDEN   AL0476GADSDEN   AL04760000000000000000000005000000000000000064000000000792055496121
00002033940520020201205/543-3550LD010GADSDEN   AL0476GADSDEN   AL04760000000000000000000005000000000000000017000000000792055496130
00002033940520020025205/543-3550LD010GADSDEN   AL0476GADSDEN   AL04760000000000000000000005000000000000000064000000000792055496127
00002033940520015903205/543-3550LD010GADSDEN   AL0476GADSDEN   AL04760000000000000000000005000000000000000017000000000792055496125
00002033940520015930205/543-3550LD010GADSDEN   AL0476GADSDEN   AL04760000000000000000000005000000000000000017000000000792055496126
00002045940519205037518/458-9724LD010ALBANY    NY0134ALBANY    NY01340000000000900000000015000000000000000017000000000795184589553
00002045940520113320518/458-9724LD010ALBANY    NY0134SCHENCTADYNY01340000000007300000000089000000000000012500000000633385183563442
00002045940519204501518/458-9724LD010ALBANY    NY0134ALBANY    NY01340000000000900000000015000000000000000019000000000795184589332
00002045940520090808518/458-9724LD010ALBANY    NY0134ALBANY    NY01340000000000900000000015000000000000000019000000135165184588300
00002045940520041524518/458-9724LD010ALBANY    NY0134ALBANY    NY01340000000000900000000015000000000000000019000000135165184589724
00002045940520041552518/458-9724LD010ALBANY    NY0134ALBANY    NY01340000000000900000000015000000000000000017000000135165184588300
00002045940519232305518/458-9724LD010ALBANY    NY0134ALBANY    NY01340000000000900000000015000000000000000019000000135165184588300
00002045940519232237518/458-9724LD010ALBANY    NY0134ALBANY    NY01340000000000900000000015000000000000000019000000135165184589724
00002045940520090736518/458-9724LD010ALBANY    NY0134ALBANY    NY01340000000000900000000015000000000000000022000000135165184589724
00002045940520185747518/458-9724LD010ALBANY    NY0134ALBANY    NY01340000000000900000000015000000000000000019000000135165184588300
00002045940520185724518/458-9724LD010ALBANY    NY0134ALBANY    NY01340000000000900000000015000000000000000006000000135165184589724
00002045940520140440518/458-9724LD010ALBANY    NY0134ALBANY    NY01340000000000900000000015000000000000000019000000135165184588300
00002045940520140410518/458-9724LD010ALBANY    NY0134ALBANY    NY01340000000000900000000015000000000000000019000000135165184589724
00002045940519205000518/458-9724LD010ALBANY    NY0134ALBANY    NY01340000000000900000000015000000000000000019000000000795184589520
00002045940519204933518/458-9724LD010ALBANY    NY0134ALBANY    NY01340000000000900000000015000000000000000019000000000795184589483
00002045940519205254518/458-9724LD010ALBANY    NY0134ALBANY    NY01340000000000900000000015000000000000000019000000000795184589758
00002045940519204839518/458-9724LD010ALBANY    NY0134ALBANY    NY01340000000000900000000015000000000000000019000000000795184589423
00002045940519204906518/458-9724LD010ALBANY    NY0134ALBANY    NY01340000000000900000000015000000000000000019000000000795184589470
00002045940519205321518/458-9724LD010ALBANY    NY0134ALBANY    NY01340000000000900000000015000000000000000019000000000795184589765
00002045940519204651518/458-9724LD010ALBANY    NY0134ALBANY    NY01340000000000900000000015000000000000000019000000000795184589390
00002045940519205226518/458-9724LD010ALBANY    NY0134ALBANY    NY01340000000000900000000015000000000000000019000000000795184589668
00002045940519205158518/458-9724LD010ALBANY    NY0134ALBANY    NY01340000000000900000000015000000000000000019000000000795184589614
00002045940519205131518/458-9724LD010ALBANY    NY0134ALBANY    NY01340000000000900000000015000000000000000019000000000795184589590
00002045940519204717518/458-9724LD010ALBANY    NY0134ALBANY    NY01340000000000900000000015000000000000000019000000000795184589417
00002045940519204529518/458-9724LD010ALBANY    NY0134ALBANY    NY01340000000000900000000015000000000000000019000000000795184589333
00002045940519204623518/458-9724LD010ALBANY    NY0134ALBANY    NY01340000000000900000000015000000000000000019000000000795184589357
00002045940519204556518/458-9724LD010ALBANY    NY0134ALBANY    NY01340000000000900000000015000000000000000019000000000795184589335
00002045940519205349518/458-9724LD010ALBANY    NY0134ALBANY    NY01340000000000900000000015000000000000000019000000000795184589796
00002045940519205511518/458-9724LD010ALBANY    NY0134ALBANY    NY01340000000000900000000015000000000000000019000000000795184582489
00002045940519205416518/458-9724LD010ALBANY    NY0134ALBANY    NY01340000000000900000000015000000000000000019000000000795184581339
00002045940519205444518/458-9724LD010ALBANY    NY0134ALBANY    NY01340000000000900000000015000000000000000019000000000795184582939
00002045940519205104518/458-9724LD010ALBANY    NY0134ALBANY    NY01340000000000900000000015000000000000000019000000000795184589578
00002045940519204745518/458-9724LD010ALBANY    NY0134ALBANY    NY01340000000000900000000015000000000000000017000000000795184589418
00002045940519204813518/458-9724LD010ALBANY    NY0134ALBANY    NY01340000000000900000000015000000000000000019000000000795184589420
00002057940519234046615/453-0401LD010SEVIERVL  TN0474SEVIERVL  TN04740000000000000000000005000000000000000017000000000796154530402
00002057940519234425615/453-0401LD010SEVIERVL  TN0474SEVIERVL  TN04740000000000000000000005000000000000000019000000000796154539352
00002057940519234112615/453-0401LD010SEVIERVL  TN0474SEVIERVL  TN04740000000000000000000005000000000000000019000000000796154539446
00002057940519234233615/453-0401LD010SEVIERVL  TN0474SEVIERVL  TN04740000000000000000000005000000000000000017000000000796154536659
00002057940519234140615/453-0401LD010SEVIERVL  TN0474SEVIERVL  TN04740000000000000000000005000000000000000017000000000796154537921
00002057940519234206615/453-0401LD010SEVIERVL  TN0474SEVIERVL  TN04740000000000000000000005000000000000000017000000000796154538426
00002057940519234259615/453-0401LD010SEVIERVL  TN0474SEVIERVL  TN04740000000000000000000005000000000000000017000000000796154537811
00002057940519234327615/453-0401LD010SEVIERVL  TN0474SEVIERVL  TN04740000000000000000000005000000000000000014000000000796154539645
00002057940519234355615/453-0401LD010SEVIERVL  TN0474SEVIERVL  TN04740000000000000000000005000000000000000017000000000796154539642
00002057940520135517615/453-0401LD010SEVIERVL  TN0474KNOXVILLE TN04740000000000000000000005000000000000000017000000135166156940156
00002057940519231247615/453-0401LD010SEVIERVL  TN0474KNOXVILLE TN04740000000000000000000005000000000000000019000000135166156940156
00002057940520040555615/453-0401LD010SEVIERVL  TN0474KNOXVILLE TN04740000000000000000000005000000000000000019000000135166156940156
00002057940520085922615/453-0401LD010SEVIERVL  TN0474KNOXVILLE TN04740000000000000000000005000000000000000022000000135166156940156
00002057940519181523615/453-0401LD010SEVIERVL  TN0474KNOXVILLE TN04740000000000000000000005000000000000000019000000135166156940156
00002071940520165435505/525-3401LD010LAS CRUCESNM0664LAS CRUCESNM06640000000000000000000005000000000000000011000000135165055253401
00002071940520120119505/525-3401LD010LAS CRUCESNM0664LAS CRUCESNM06640000000000000000000005000000000000000017000000135165055253401
00002071940520021233505/525-3401LD010LAS CRUCESNM0664LAS CRUCESNM06640000000000000000000005000000000000000019000000135165055253401
00002071940520070444505/525-3401LD010LAS CRUCESNM0664LAS CRUCESNM06640000000000000000000005000000000000000017000000135165055253401
00002071940519211954505/525-3401LD010LAS CRUCESNM0664LAS CRUCESNM06640000000000000000000005000000000000000014000000135165055253401
00002074940520002338503/343-0044LD010EUGENE    OR0670EUGENE    OR06700000000000000000000005000000000000000017000000000795033432547
00002074940520002305503/343-0044LD010EUGENE    OR0670EUGENE    OR06700000000000000000000005000000000000000039000000000795033437335
00002074940520003107503/343-0044LD010EUGENE    OR0670EUGENE    OR06700000000000000000000005000000000000000017000000000795033437028
00002074940520003031503/343-0044LD010EUGENE    OR0670EUGENE    OR06700000000000000000000005000000000000000042000000000795033436978
00002074940520002239503/343-0044LD010EUGENE    OR0670EUGENE    OR06700000000000000000000005000000000000000017000000000795033437033
00002074940520002546503/343-0044LD010EUGENE    OR0670EUGENE    OR06700000000000000000000005000000000000000017000000000795033438373
00002074940520002708503/343-0044LD010EUGENE    OR0670EUGENE    OR06700000000000000000000005000000000000000017000000000795033436890
00002074940520003133503/343-0044LD010EUGENE    OR0670EUGENE    OR06700000000000000000000005000000000000000039000000000795033437035
00002074940520002404503/343-0044LD010EUGENE    OR0670EUGENE    OR06700000000000000000000005000000000000000039000000000795033434750
00002074940520003432503/343-0044LD010EUGENE    OR0670EUGENE    OR06700000000000000000000005000000000000000017000000000795033437189
00002074940520003406503/343-0044LD010EUGENE    OR0670EUGENE    OR06700000000000000000000005000000000000000017000000000795033437154
00002074940520003341503/343-0044LD010EUGENE    OR0670EUGENE    OR06700000000000000000000005000000000000000017000000000795033437135
00002074940520002735503/343-0044LD010EUGENE    OR0670EUGENE    OR06700000000000000000000005000000000000000017000000000795033436898
00002074940520003457503/343-0044LD010EUGENE    OR0670EUGENE    OR06700000000000000000000005000000000000000017000000000795033437211
00002074940520002802503/343-0044LD010EUGENE    OR0670EUGENE    OR06700000000000000000000005000000000000000017000000000795033436902
00002074940520002612503/343-0044LD010EUGENE    OR0670EUGENE    OR06700000000000000000000005000000000000000017000000000795034651021
00002074940520002641503/343-0044LD010EUGENE    OR0670EUGENE    OR06700000000000000000000005000000000000000017000000000795034651035
00002113940520112650904/360-1110LI010LEESBURG  FL0454LEESBURG  FL04540000000000000000000005000000000000000017000000000799043600301
00002113940520112720904/360-1110LI010LEESBURG  FL0454LEESBURG  FL04540000000000000000000005000000000000000017000000000799043600308
00002134940520153022704/932-4131LD010KANNAPOLISNC0422KANNAPOLISNC04220000000000000000000005000000000000000019000000000797049323210
00002134940520153147704/932-4131LD010KANNAPOLISNC0422KANNAPOLISNC04220000000000000000000005000000000000000019000000000797049324609
00002134940520153050704/932-4131LD010KANNAPOLISNC0422KANNAPOLISNC04220000000000000000000005000000000000000019000000000797049320126
00002134940520153117704/932-4131LD010KANNAPOLISNC0422KANNAPOLISNC04220000000000000000000005000000000000000019000000000797049324604
00002134940520153356704/932-4131LD010KANNAPOLISNC0422KANNAPOLISNC04220000000000000000000005000000000000000017000000000797049324768
00002134940520153215704/932-4131LD010KANNAPOLISNC0422KANNAPOLISNC04220000000000000000000005000000000000000022000000000797049324610
00002155940520043958812/332-0544LD010BLOOMINGTNIN0338BLOOMINGTNIN03380000000000000000000005000000000000000883000000190288128559656
00002155940519201901812/332-0544LD010BLOOMINGTNIN0338BLOOMINGTNIN03380000000000000000000005000000000000001942000000190288128559656
00002235940520061945206/281-7141LD011SEATTLE   WA0674SEATTLE   WA06740000000000000000000005000000000000000064000000000792062819576
00002235940520061714206/281-7141LD011SEATTLE   WA0674SEATTLE   WA06740000000000000000000005000000000000000014000000000792062810259
00002235940520061306206/281-7141LD011SEATTLE   WA0674SEATTLE   WA06740000000000000000000005000000000000000014000000000792062815025
00002235940520061907206/281-7141LD011SEATTLE   WA0674SEATTLE   WA06740000000000000000000005000000000000000011000000000792062819571
00002235940520061412206/281-7141LD011SEATTLE   WA0674SEATTLE   WA06740000000000000000000005000000000000000189000000000792062815734
00002235940520061049206/281-7141LD011SEATTLE   WA0674SEATTLE   WA06740000000000000000000005000000000000000019000000000792062810457
00002235940520061121206/281-7141LD011SEATTLE   WA0674SEATTLE   WA06740000000000000000000005000000000000000017000000000792062810953
00002243940520014343915/658-4590LI010SAN ANGELOTX0961SAN ANGELOTX09610000000000000000000005000000000000000019000000000799156586499
00002261940519193149802/862-1000LD010BURLINGTONVT0124BURLINGTONVT01240000000000900000000015000000000000000019000000000798028621238
00002261940519193225802/862-1000LD010BURLINGTONVT0124BURLINGTONVT01240000000000900000000015000000000000000019000000000798028621294
00002261940519193253802/862-1000LD010BURLINGTONVT0124BURLINGTONVT01240000000000900000000015000000000000000019000000000798028621578
00002261940519194810802/862-1000LD010BURLINGTONVT0124BURLINGTONVT01240000000000900000000015000000000000000019000000135168028621000
00002261940520053553802/862-1000LD010BURLINGTONVT0124BURLINGTONVT01240000000000900000000015000000000000000019000000135168028621000
00002261940520152523802/862-1000LD010BURLINGTONVT0124BURLINGTONVT01240000000000900000000015000000000000000022000000135168028621000
00002261940520103041802/862-1000LD010BURLINGTONVT0124BURLINGTONVT01240000000000900000000015000000000000000022000000135168028621000
00002261940520004257802/862-1000LD010BURLINGTONVT0124BURLINGTONVT01240000000000900000000015000000000000000019000000135168028621000
00002261940519193320802/862-1000LD010BURLINGTONVT0124BURLINGTONVT01240000000000900000000015000000000000000019000000000798028621657
00002301940520094206715/833-0121LD010EAU CLAIREWI0352EAU CLAIREWI03520000000000900000000015000000000000000019000000135167158330121
00002301940520143559715/833-0121LD010EAU CLAIREWI0352EAU CLAIREWI03520000000000900000000015000000000000000019000000135167158330121
00002301940520044536715/833-0121LD010EAU CLAIREWI0352EAU CLAIREWI03520000000000900000000015000000000000000017000000135167158330121
00002301940519190036715/833-0121LD010EAU CLAIREWI0352EAU CLAIREWI03520000000000900000000015000000000000000019000000135167158330121
00002301940519235359715/833-0121LD010EAU CLAIREWI0352EAU CLAIREWI03520000000000900000000015000000000000000019000000135167158330121
00002326940520060038904/673-0034LD010DAYTONABCHFL0456DAYTONABCHFL04560000000000000000000005000000000000000017000000000799046732331
00002326940520055903904/673-0034LD010DAYTONABCHFL0456DAYTONABCHFL04560000000000000000000005000000000000000014000000000799046730654
00002326940520060105904/673-0034LD010DAYTONABCHFL0456DAYTONABCHFL04560000000000000000000005000000000000000017000000000799046736944
00002326940520060133904/673-0034LD010DAYTONABCHFL0456DAYTONABCHFL04560000000000000000000005000000000000000017000000000799046736955
00002326940520060200904/673-0034LD010DAYTONABCHFL0456DAYTONABCHFL04560000000000000000000005000000000000000017000000000799046737347
00002326940520055808904/673-0034LD010DAYTONABCHFL0456DAYTONABCHFL04560000000000000000000005000000000000000017000000000799046734125
00002326940520055835904/673-0034LD010DAYTONABCHFL0456DAYTONABCHFL04560000000000000000000005000000000000000014000000000799046730426
00002347940520000002303/241-1643LD010GRAND JCT CO0656GRAND JCT CO06560000000000000000000005000000000000000017000000000793032416957
00002347940519235932303/241-1643LD010GRAND JCT CO0656GRAND JCT CO06560000000000000000000005000000000000000017000000000793032416903
00002347940520000029303/241-1643LD010GRAND JCT CO0656GRAND JCT CO06560000000000000000000005000000000000000017000000000793032417022
0000234794051923590430-1643LD010GRAND JCT CO0656GRAND JCT CO06560000000000000000000005000000000000000019000000000793032413892
00002347940519235834303/241-1643LD010GRAND JCT CO0656GRAND JCT CO06560000000000000000000005000000000000000019000000000793032414167
00002367940519190036217/344-3400LD010CHAMPNURBNIL0370CHAMPNURBNIL03700000000001900000000027000000000000002556000000689142173988745
00002367940519180607217/344-3400LD010CHAMPNURBNIL0370CHAMPNURBNIL03700000000004300000000054000000000000007036000000689142173988745
00002367940519211900217/344-3400LD010CHAMPNURBNIL0370CHAMPNURBNIL03700000000003400000000044000000000000005442000000689142173988745
00002367940519235710217/344-3400LD010CHAMPNURBNIL0370CHAMPNURBNIL03700000000000900000000015000000000000000133000000689142173988745
00002367940520001613217/344-3400LD010CHAMPNURBNIL0370CHAMPNURBNIL03700000000001500000000022000000000000001775000000689142173988745
00002367940520013157217/344-3400LD010CHAMPNURBNIL0370DANVILLE  IL03700000000000900000000015000000000000000019000000135162174421452
00002367940520111947217/344-3400LD010CHAMPNURBNIL0370DANVILLE  IL03700000000000900000000015000000000000000019000000135162174421452
00002367940520161442217/344-3400LD010CHAMPNURBNIL0370DANVILLE  IL03700000000000900000000015000000000000000019000000135162174421452
00002367940519203851217/344-3400LD010CHAMPNURBNIL0370DANVILLE  IL03700000000000900000000015000000000000000019000000135162174421452
00002367940520062316217/344-3400LD010CHAMPNURBNIL0370DANVILLE  IL03700000000000900000000015000000000000000017000000135162174421452
00002402940520005249601/582-0286LD010HATTIESBG MS0482HATTIESBG MS04820000000000000000000005000000000000000019000000000796015455676
00002402940520005118601/582-0286LD010HATTIESBG MS0482HATTIESBG MS04820000000000000000000005000000000000000019000000000796015455663
00002402940520005218601/582-0286LD010HATTIESBG MS0482HATTIESBG MS04820000000000000000000005000000000000000017000000000796015455671
00002402940520005147601/582-0286LD010HATTIESBG MS0482HATTIESBG MS04820000000000000000000005000000000000000019000000000796015455667
00002402940520004833601/582-0286LD010HATTIESBG MS0482HATTIESBG MS04820000000000000000000005000000000000000064000000000796015820291
00002402940520005047601/582-0286LD010HATTIESBG MS0482HATTIESBG MS04820000000000000000000005000000000000000017000000000796015824624
00002402940520005017601/582-0286LD010HATTIESBG MS0482HATTIESBG MS04820000000000000000000005000000000000000017000000000796015823734
00002402940520004918601/582-0286LD010HATTIESBG MS0482HATTIESBG MS04820000000000000000000005000000000000000019000000000796015820323
00002402940520004948601/582-0286LD010HATTIESBG MS0482HATTIESBG MS04820000000000000000000005000000000000000019000000000796015823600
00002443940520090303818/841-4795LD010BURBANK   CA0730BURBANK   CA07300000000000900000000015000000000000000014000000000798188414831
00002443940520090357818/841-4795LD010BURBANK   CA0730BURBANK   CA07300000000000900000000015000000000000000039000000000798188414799
00002443940520090331818/841-4795LD010BURBANK   CA0730BURBANK   CA07300000000000900000000015000000000000000014000000000798188419701
00002443940520080343818/841-4795LD010BURBANK   CA0730ALHAMBRA  CA07300000000000900000000015000000000000000019000000135168183081800
00002443940520090457818/841-4795LD010BURBANK   CA0730BURBANK   CA07300000000000900000000015000000000000000014000000000798188417127
00002443940520090431818/841-4795LD010BURBANK   CA0730BURBANK   CA07300000000000900000000015000000000000000014000000000798188414846
00002443940520125746818/841-4795LD010BURBANK   CA0730ALHAMBRA  CA07300000000000900000000015000000000000000028000000135168183081800
00002443940519221527818/841-4795LD010BURBANK   CA0730ALHAMBRA  CA07300000000000900000000015000000000000000017000000135168183081800
00002443940519172228818/841-4795LD010BURBANK   CA0730ALHAMBRA  CA07300000000000900000000015000000000000000017000000135168183081800
00002443940520030652818/841-4795LD010BURBANK   CA0730ALHAMBRA  CA07300000000000900000000015000000000000000017000000135168183081800
00002443940520080704818/841-4795LD010BURBANK   CA0730VAN NUYS  CA07300000000000900000000015000000000000000019000000135168187899002
00002443940520030949818/841-4795LD010BURBANK   CA0730VAN NUYS  CA07300000000000900000000015000000000000000019000000135168187899002
00002443940520130043818/841-4795LD010BURBANK   CA0730VAN NUYS  CA07300000000000900000000015000000000000000017000000135168187899002
00002443940519172523818/841-4795LD010BURBANK   CA0730VAN NUYS  CA07300000000000900000000015000000000000000019000000135168187899002
00002443940519221822818/841-4795LD010BURBANK   CA0730VAN NUYS  CA07300000000000900000000015000000000000000019000000135168187899002
00002501940520105533205/272-3411LD010MONTGOMERYAL0478MONTGOMERYAL04780000000000000000000005000000000000000019000000000792052132139
00002501940520105323205/272-3411LD010MONTGOMERYAL0478MONTGOMERYAL04780000000000000000000005000000000000000039000000000792052132115
00002501940520105358205/272-3411LD010MONTGOMERYAL0478MONTGOMERYAL04780000000000000000000005000000000000000017000000000792052132118
00002501940520105559205/272-3411LD010MONTGOMERYAL0478MONTGOMERYAL04780000000000000000000005000000000000000017000000000792052132148
00002501940520105424205/272-3411LD010MONTGOMERYAL0478MONTGOMERYAL04780000000000000000000005000000000000000017000000000792052132123
00002501940520105448205/272-3411LD010MONTGOMERYAL0478MONTGOMERYAL04780000000000000000000005000000000000000017000000000792052132133
00002557940520013400903/581-8652LD010TYLER     TX0554TYLER     TX05540000000000000000000005000000000000000014000000000799035811312
00002557940520013900903/581-8652LD010TYLER     TX0554TYLER     TX05540000000000000000000005000000000000000017000000000799035816030
00002557940520013324903/581-8652LD010TYLER     TX0554TYLER     TX05540000000000000000000005000000000000000017000000000799035811230
00002557940520013219903/581-8652LD010TYLER     TX0554TYLER     TX05540000000000000000000005000000000000000039000000000799035818750
00002557940520013255903/581-8652LD010TYLER     TX0554TYLER     TX05540000000000000000000005000000000000000014000000000799035817595
00002557940520013455903/581-8652LD010TYLER     TX0554TYLER     TX05540000000000000000000005000000000000000017000000000799035811733
00002557940520013828903/581-8652LD010TYLER     TX0554TYLER     TX05540000000000000000000005000000000000000017000000000799035815703
00002557940520013759903/581-8652LD010TYLER     TX0554TYLER     TX05540000000000000000000005000000000000000017000000000799035815702
00002557940520013700903/581-8652LD010TYLER     TX0554TYLER     TX05540000000000000000000005000000000000000014000000000799035815468
00002557940520013729903/581-8652LD010TYLER     TX0554TYLER     TX05540000000000000000000005000000000000000017000000000799035815605
00002557940520013427903/581-8652LD010TYLER     TX0554TYLER     TX05540000000000000000000005000000000000000017000000000799035811438
00002557940520013521903/581-8652LD010TYLER     TX0554TYLER     TX05540000000000000000000005000000000000000017000000000799035812346
00002557940520013626903/581-8652LD010TYLER     TX0554TYLER     TX05540000000000000000000005000000000000000033000000000799035815447
00002557940520013547903/581-8652LD010TYLER     TX0554TYLER     TX05540000000000000000000005000000000000000017000000000799035815411
00002674940520073426601/841-0090LD010TUPELO    MS0482TUPELO    MS04820000000000000000000005000000000000000019000000135166018410090
00002674940519214928601/841-0090LD010TUPELO    MS0482TUPELO    MS04820000000000000000000005000000000000000019000000135166018410090
00002674940520172501601/841-0090LD010TUPELO    MS0482TUPELO    MS04820000000000000000000005000000000000000019000000135166018410090
00002674940520024224601/841-0090LD010TUPELO    MS0482TUPELO    MS04820000000000000000000005000000000000000017000000135166018410090
00002674940520123034601/841-0090LD010TUPELO    MS0482TUPELO    MS04820000000000000000000005000000000000000025000000135166018410090
00002760940520121846412/658-5056LD010NEW CASTLEPA0234NEW CASTLEPA02340000000000900000000015000000000000000019000000000794126585378
00002760940520121921412/658-5056LD010NEW CASTLEPA0234NEW CASTLEPA02340000000000900000000015000000000000000017000000000794126586819
00002760940520122132412/658-5056LD010NEW CASTLEPA0234NEW CASTLEPA02340000000000900000000015000000000000000019000000000794126585755
00002760940520121952412/658-5056LD010NEW CASTLEPA0234NEW CASTLEPA02340000000000900000000015000000000000000019000000000794126582348
00002760940520122058412/658-5056LD010NEW CASTLEPA0234NEW CASTLEPA02340000000000900000000015000000000000000019000000000794126585685
00002760940520122024412/658-5056LD010NEW CASTLEPA0234NEW CASTLEPA02340000000000900000000015000000000000000019000000000794126582374
00002771940520042453605/224-7700LD010PIERRE    SD0640PIERRE    SD06400000000000000000000005000000000000000017000000000796052240810
00002771940520042521605/224-7700LD010PIERRE    SD0640PIERRE    SD06400000000000000000000005000000000000000017000000000796052240827
00002771940520042308605/224-7700LD010PIERRE    SD0640PIERRE    SD06400000000000000000000005000000000000000017000000000796052240732
00002771940520042357605/224-7700LD010PIERRE    SD0640PIERRE    SD06400000000000000000000005000000000000000019000000000796052240789
00002771940520042330605/224-7700LD010PIERRE    SD0640PIERRE    SD06400000000000000000000005000000000000000017000000000796052240779
00002771940520042002605/224-7700LD010PIERRE    SD0640PIERRE    SD06400000000000000000000005000000000000000017000000000796052247702
00002771940520042057605/224-7700LD010PIERRE    SD0640PIERRE    SD06400000000000000000000005000000000000000017000000000796052240136
00002771940520042029605/224-7700LD010PIERRE    SD0640PIERRE    SD06400000000000000000000005000000000000000017000000000796052247273
00002771940520042426605/224-7700LD010PIERRE    SD0640PIERRE    SD06400000000000000000000005000000000000000017000000000796052240791
00002771940520042153605/224-7700LD010PIERRE    SD0640PIERRE    SD06400000000000000000000005000000000000000017000000000796052240357
00002771940520042215605/224-7700LD010PIERRE    SD0640PIERRE    SD06400000000000000000000005000000000000000014000000000796052240705
00002771940520042125605/224-7700LD010PIERRE    SD0640PIERRE    SD06400000000000000000000005000000000000000017000000000796052240148
00002771940520042240605/224-7700LD010PIERRE    SD0640PIERRE    SD06400000000000000000000005000000000000000017000000000796052240731
00003031940519183433708/844-0700LD010AURORA    IL0358AURORA    IL03580000000000900000000015000000000000000017000000000797088440760
00003031940519183502708/844-0700LD010AURORA    IL0358AURORA    IL03580000000000900000000015000000000000000014000000000797088440764
00003031940519183404708/844-0700LD010AURORA    IL0358AURORA    IL03580000000000900000000015000000000000000014000000000797088440748
00003040940520024630912/923-7590LD010WARNERRBNSGA0446WARNERRBNSGA04460000000000000000000005000000000000000017000000000799123285000
00003040940520021708912/923-7590LD010WARNERRBNSGA0446WARNERRBNSGA04460000000000000000000005000000000000000019000000135169129237590
00003040940520120521912/923-7590LD010WARNERRBNSGA0446WARNERRBNSGA04460000000000000000000005000000000000000019000000135169129237590
00003040940519212346912/923-7590LD010WARNERRBNSGA0446WARNERRBNSGA04460000000000000000000005000000000000000022000000135169129237590
00003040940520165926912/923-7590LD010WARNERRBNSGA0446WARNERRBNSGA04460000000000000000000005000000000000000022000000135169129237590
00003040940520070806912/923-7590LD010WARNERRBNSGA0446WARNERRBNSGA04460000000000000000000005000000000000000019000000135169129237590
00003157940519221546812/232-0112LI010TERREHAUTEIN0938TERREHAUTEIN09380000000000000000000005000000000000000017000000000798122320112
00003227940519181048318/477-0105LD010LK CHARLESLA0488LK CHARLESLA04880000000000000000000005000000000000000014000000000793184777728
00003227940519180716318/477-0105LD010LK CHARLESLA0488LK CHARLESLA04880000000000000000000005000000000000000014000000000793184777642
00003227940519180848318/477-0105LD010LK CHARLESLA0488LK CHARLESLA04880000000000000000000005000000000000000017000000000793184778903
00003227940519180611318/477-0105LD010LK CHARLESLA0488LK CHARLESLA04880000000000000000000005000000000000000017000000000793184772126
00003227940519180639318/477-0105LD010LK CHARLESLA0488LK CHARLESLA04880000000000000000000005000000000000000017000000000793184775343
00003227940519180916318/477-0105LD010LK CHARLESLA0488LK CHARLESLA04880000000000000000000005000000000000000017000000000793184778951
00003227940519181226318/477-0105LD010LK CHARLESLA0488LK CHARLESLA04880000000000000000000005000000000000000014000000000793184777979
00003227940519180744318/477-0105LD010LK CHARLESLA0488LK CHARLESLA04880000000000000000000005000000000000000039000000000793184777797
00003227940519180820318/477-0105LD010LK CHARLESLA0488LK CHARLESLA04880000000000000000000005000000000000000014000000000793184778177
00003227940519181253318/477-0105LD010LK CHARLESLA0488LK CHARLESLA04880000000000000000000005000000000000000017000000000793184778953
00003227940519181011318/477-0105LD010LK CHARLESLA0488LK CHARLESLA04880000000000000000000005000000000000000014000000000793184776858
00003227940519180943318/477-0105LD010LK CHARLESLA0488LK CHARLESLA04880000000000000000000005000000000000000017000000000793184776843
00003227940519181320318/477-0105LD010LK CHARLESLA0488LK CHARLESLA04880000000000000000000005000000000000000017000000000793184785149
00003311940520165857706/327-0597LD010COLUMBUS  GA0438COLUMBUS  GA04380000000000000000000005000000000000000019000000135167063270597
00003311940519212316706/327-0597LD010COLUMBUS  GA0438COLUMBUS  GA04380000000000000000000005000000000000000017000000135167063270597
00003311940520120450706/327-0597LD010COLUMBUS  GA0438COLUMBUS  GA04380000000000000000000005000000000000000019000000135167063270597
00003311940520021640706/327-0597LD010COLUMBUS  GA0438COLUMBUS  GA04380000000000000000000005000000000000000019000000135167063270597
00003311940520070736706/327-0597LD010COLUMBUS  GA0438COLUMBUS  GA04380000000000000000000005000000000000000019000000135167063270597
00003344940520060606810/743-8350LD010FLINT     MI0340FLINT     MI03400000000000900000000015000000000000000017000000000798107439178
00003344940520060539810/743-8350LD010FLINT     MI0340FLINT     MI03400000000000900000000015000000000000000017000000000798107439056
00003362940519235547303/832-3447LD010DENVER    CO0656DENVER    CO06560000000000000000000005000000000000000019000000000793038309232
00003362940520153830303/832-3447LD010DENVER    CO0656DENVERSULLCO06560000000000000000000005000000000000001144000000636613036998222
00003362940519235613303/832-3447LD010DENVER    CO0656DENVER    CO06560000000000000000000005000000000000000019000000000793038309239
00003362940519235639303/832-3447LD010DENVER    CO0656DENVER    CO06560000000000000000000005000000000000000017000000000793038309243
00003362940519235515303/832-3447LD010DENVER    CO0656DENVER    CO06560000000000000000000005000000000000000017000000000793038309221
00003362940520093539303/832-3447LD010DENVER    CO0656DENVER    CO06560000000000000000000005000000000000000019000000135163038323447
00003362940519185344303/832-3447LD010DENVER    CO0656DENVER    CO06560000000000000000000005000000000000000019000000135163038323447
00003362940520142938303/832-3447LD010DENVER    CO0656DENVER    CO06560000000000000000000005000000000000000019000000135163038323447
00003362940520043913303/832-3447LD010DENVER    CO0656DENVER    CO06560000000000000000000005000000000000000017000000135163038323447
00003362940519234720303/832-3447LD010DENVER    CO0656DENVER    CO06560000000000000000000005000000000000000019000000135163038323447
00003362940520063334303/832-3447LD010DENVER    CO0656LITTLETON CO06560000000000000000000005000000000000001056000000636613039734222
00003412940520022812408/754-2206LD010SALINAS   CA0736SALINAS   CA07360000000000900000000015000000000000000014000000000794087542206
00003447940520091447509/747-3011LD010SPOKANE   WA0676SPOKANE   WA06760000000000000000000005000000000000000017000000000795097472721
00003447940519195218509/747-3011LD010SPOKANE   WA0676SPOKANE   WA06760000000000000000000005000000000000000017000000000795096241579
00003447940520123135509/747-3011LD010SPOKANE   WA0676SPOKANE   WA06760000000000000000000005000000000000000019000000135165096241549
00003447940519165614509/747-3011LD010SPOKANE   WA0676SPOKANE   WA06760000000000000000000005000000000000000017000000135165096241549
00003447940519214938509/747-3011LD010SPOKANE   WA0676SPOKANE   WA06760000000000000000000005000000000000000019000000135165096241549
00003447940520024114509/747-3011LD010SPOKANE   WA0676SPOKANE   WA06760000000000000000000005000000000000000017000000135165096241549
00003447940520073744509/747-3011LD010SPOKANE   WA0676SPOKANE   WA06760000000000000000000005000000000000000017000000135165096241549
00003447940519195332509/747-3011LD010SPOKANE   WA0676SPOKANE   WA06760000000000000000000005000000000000000017000000000795096241738
00003447940519195244509/747-3011LD010SPOKANE   WA0676SPOKANE   WA06760000000000000000000005000000000000000017000000000795096241707
00003447940519195420509/747-3011LD010SPOKANE   WA0676SPOKANE   WA06760000000000000000000005000000000000000017000000000795096241758
00003447940519195308509/747-3011LD010SPOKANE   WA0676SPOKANE   WA06760000000000000000000005000000000000000019000000000795096241732
00003447940519195356509/747-3011LD010SPOKANE   WA0676SPOKANE   WA06760000000000000000000005000000000000000017000000000795096241742
00003447940519195509509/747-3011LD010SPOKANE   WA0676SPOKANE   WA06760000000000000000000005000000000000000017000000000795096241763
00003447940519195623509/747-3011LD010SPOKANE   WA0676SPOKANE   WA06760000000000000000000005000000000000000017000000000795096241781
00003447940519195557509/747-3011LD010SPOKANE   WA0676SPOKANE   WA06760000000000000000000005000000000000000017000000000795096241767
00003447940519195647509/747-3011LD010SPOKANE   WA0676SPOKANE   WA06760000000000000000000005000000000000000019000000000795096241852
00003447940519195445509/747-3011LD010SPOKANE   WA0676SPOKANE   WA06760000000000000000000005000000000000000017000000000795096241762
00003447940520091410509/747-3011LD010SPOKANE   WA0676SPOKANE   WA06760000000000000000000005000000000000000017000000000795097471179
00003447940520073710509/747-3011LD010SPOKANE   WA0676SPOKANE   WA06760000000000000000000005000000000000000025000000135165097473011
00003447940520024050509/747-3011LD010SPOKANE   WA0676SPOKANE   WA06760000000000000000000005000000000000000019000000135165097473011
00003447940519214912509/747-3011LD010SPOKANE   WA0676SPOKANE   WA06760000000000000000000005000000000000000025000000135165097473011
00003447940519165548509/747-3011LD010SPOKANE   WA0676SPOKANE   WA06760000000000000000000005000000000000000017000000135165097473011
00003447940520123109509/747-3011LD010SPOKANE   WA0676SPOKANE   WA06760000000000000000000005000000000000000019000000135165097473011
00003447940520091513509/747-3011LD010SPOKANE   WA0676SPOKANE   WA06760000000000000000000005000000000000000019000000000795097475732
00003447940520091335509/747-3011LD010SPOKANE   WA0676SPOKANE   WA06760000000000000000000005000000000000000042000000000795097471079
00003447940520091737509/747-3011LD010SPOKANE   WA0676SPOKANE   WA06760000000000000000000005000000000000000019000000000795097477616
00003447940520091541509/747-3011LD010SPOKANE   WA0676SPOKANE   WA06760000000000000000000005000000000000000019000000000795097475960
00003447940520091805509/747-3011LD010SPOKANE   WA0676SPOKANE   WA06760000000000000000000005000000000000000017000000000795097478614
00003447940520091705509/747-3011LD010SPOKANE   WA0676SPOKANE   WA06760000000000000000000005000000000000000019000000000795097476260
00003515940519210354904/477-3344LD010PENSACOLA FL0448PENSACOLA FL04480000000000000000000005000000000000002872000000689149044761270
00003522940519200156209/467-0601LD010STOCKTON  CA0738STOCKTON  CA07380000000000900000000015000000000000000039000000000792094671541
00003522940519200230209/467-0601LD010STOCKTON  CA0738STOCKTON  CA07380000000000900000000015000000000000000039000000000792094671553
00003522940519200132209/467-0601LD010STOCKTON  CA0738STOCKTON  CA07380000000000900000000015000000000000000014000000000792094671540
00003522940519200106209/467-0601LD010STOCKTON  CA0738STOCKTON  CA07380000000000900000000015000000000000000014000000000792094671528
00003522940519195856209/467-0601LD010STOCKTON  CA0738STOCKTON  CA07380000000000900000000015000000000000000014000000000792094670644
00003522940519195830209/467-0601LD010STOCKTON  CA0738STOCKTON  CA07380000000000900000000015000000000000000014000000000792094670613
00003522940519195922209/467-0601LD010STOCKTON  CA0738STOCKTON  CA07380000000000900000000015000000000000000039000000000792094670645
00003522940519195737209/467-0601LD010STOCKTON  CA0738STOCKTON  CA07380000000000900000000015000000000000000039000000000792094670610
00003522940519195957209/467-0601LD010STOCKTON  CA0738STOCKTON  CA07380000000000900000000015000000000000000039000000000792094670646
00003522940519200031209/467-0601LD010STOCKTON  CA0738STOCKTON  CA07380000000000900000000015000000000000000039000000000792094671526
00003547940519224338405/242-0113LD010ENID      OK0536ENID      OK05360000000000000000000005000000000000000022000000135164052420113
00003547940520082825405/242-0113LD010ENID      OK0536ENID      OK05360000000000000000000005000000000000000019000000135164052420113
00003547940520132502405/242-0113LD010ENID      OK0536ENID      OK05360000000000000000000005000000000000000019000000135164052420113
00003547940520033639405/242-0113LD010ENID      OK0536ENID      OK05360000000000000000000005000000000000000022000000135164052420113
00003564940519224036607/277-7080LD010ITHACA    NY0136ITHACA    NY01360000000000900000000015000000000000000017000000000796072777164
00003564940519223958607/277-7080LD010ITHACA    NY0136ITHACA    NY01360000000000900000000015000000000000000017000000000796072777163
00003564940519223707607/277-7080LD010ITHACA    NY0136ITHACA    NY01360000000000900000000015000000000000000017000000000796072777097
00003564940519223605607/277-7080LD010ITHACA    NY0136ITHACA    NY01360000000000900000000015000000000000000017000000000796072777089
00003564940519223638607/277-7080LD010ITHACA    NY0136ITHACA    NY01360000000000900000000015000000000000000017000000000796072777093
00003564940519223737607/277-7080LD010ITHACA    NY0136ITHACA    NY01360000000000900000000015000000000000000017000000000796072777099
00003564940519223900607/277-7080LD010ITHACA    NY0136ITHACA    NY01360000000000900000000015000000000000000017000000000796072777157
00003564940519223804607/277-7080LD010ITHACA    NY0136ITHACA    NY01360000000000900000000015000000000000000017000000000796072777153
00003564940519223832607/277-7080LD010ITHACA    NY0136ITHACA    NY01360000000000900000000015000000000000000017000000000796072777156
00003564940519223931607/277-7080LD010ITHACA    NY0136ITHACA    NY01360000000000900000000015000000000000000017000000000796072777162
00003564940519224106607/277-7080LD010ITHACA    NY0136ITHACA    NY01360000000000900000000015000000000000000017000000000796072777165
00003624940519231003919/829-0536LD010RALEIGH   NC0426RALEIGH   NC04260000000000000000000005000000000000000019000000000799198290536
00003625940520021438814/234-3853LD010STATECOLLGPA0230STATECOLLGPA02300000000000900000000015000000000000000489000000645538142371193
00003625940520074604814/234-3853LD010STATECOLLGPA0230STATECOLLGPA02300000000000900000000015000000000000000525000000661688142371193
00003625940519205613814/234-3853LD010STATECOLLGPA0230STATECOLLGPA02300000000001500000000022000000000000001769000000661688142371193
00003625940520045058814/234-3853LD010STATECOLLGPA0230STATECOLLGPA02300000000001500000000022000000000000001844000000661688142371193
00003625940520074454814/234-3853LD010STATECOLLGPA0230STATECOLLGPA02300000000000900000000015000000000000000000000000661688142371193
00003625940520014424814/234-3853LD010STATECOLLGPA0230STATECOLLGPA02300000000001300000000020000000000000001558000000661688142371193
00003625940519192315814/234-3853LD010STATECOLLGPA0230STATECOLLGPA02300000000000900000000015000000000000000697000000661688142371193
00003625940519201701814/234-3853LD010STATECOLLGPA0230STATECOLLGPA02300000000001100000000018000000000000001072000000661688142371193
00003625940519232529814/234-3853LD010STATECOLLGPA0230STATECOLLGPA02300000000001100000000018000000000000000936000000661688142371193
00003625940520032803814/234-3853LD010STATECOLLGPA0230STATECOLLGPA02300000000001200000000019000000000000001333000000661688142371193
00003625940520080428814/234-3853LD010STATECOLLGPA0230STATECOLLGPA02300000000000900000000015000000000000000711000000661688142371193
00003625940520153301814/234-3853LD010STATECOLLGPA0230STATECOLLGPA02300000000001100000000018000000000000000972000000661688142371193
00003625940520134440814/234-3853LD010STATECOLLGPA0230STATECOLLGPA02300000000000900000000015000000000000000333000000661688142371193
00003625940520020818814/234-3853LD010STATECOLLGPA0230STATECOLLGPA02300000000000900000000015000000000000000611000000661688142371193
00003625940519210804814/234-3853LD010STATECOLLGPA0230STATECOLLGPA02300000000001200000000019000000000000001406000000661688142371193
00003625940520142629814/234-3853LD010STATECOLLGPA0230STATECOLLGPA02300000000001000000000017000000000000000906000000661688142371193
00003625940520031208814/234-3853LD010STATECOLLGPA0230STATECOLLGPA02300000000000900000000015000000000000000314000000661688142371193
00003625940520092506814/234-3853LD010STATECOLLGPA0230STATECOLLGPA02300000000001000000000017000000000000000867000000661688142371193
00003625940520151910814/234-3853LD010STATECOLLGPA0230STATECOLLGPA02300000000001400000000021000000000000001603000000661688142371193
00003635940520063904318/234-8255LD010LAFAYETTE LA0488LAFAYETTE LA04880000000000000000000005000000000000000017000000000793182344588
00003635940520063942318/234-8255LD010LAFAYETTE LA0488LAFAYETTE LA04880000000000000000000005000000000000000017000000000793182344992
00003635940520063429318/234-8255LD010LAFAYETTE LA0488LAFAYETTE LA04880000000000000000000005000000000000000014000000000793182373405
00003635940520063318318/234-8255LD010LAFAYETTE LA0488LAFAYETTE LA04880000000000000000000005000000000000000017000000000793182373289
00003635940520063246318/234-8255LD010LAFAYETTE LA0488LAFAYETTE LA04880000000000000000000005000000000000000017000000000793182373080
00003635940520063602318/234-8255LD010LAFAYETTE LA0488LAFAYETTE LA04880000000000000000000005000000000000000169000000000793182373494
00003635940520063352318/234-8255LD010LAFAYETTE LA0488LAFAYETTE LA04880000000000000000000005000000000000000017000000000793182373397
00003652940520072058609/394-1900LD010TRENTON   NJ0222TRENTON   NJ02220000000000900000000015000000000000000017000000000796093941900
00003652940520185252609/394-1900LD010TRENTON   NJ0222TRENTON   NJ02220000000000900000000015000000000000000019000000135166093941900
00003652940520041054609/394-1900LD010TRENTON   NJ0222TRENTON   NJ02220000000000900000000015000000000000000017000000135166093941900
00003652940520090251609/394-1900LD010TRENTON   NJ0222TRENTON   NJ02220000000000900000000015000000000000000019000000135166093941900
00003652940519231808609/394-1900LD010TRENTON   NJ0222TRENTON   NJ02220000000000900000000015000000000000000019000000135166093941900
00003652940520135930609/394-1900LD010TRENTON   NJ0222TRENTON   NJ02220000000000900000000015000000000000000019000000135166093941900
00003653940520043100219/422-2581LI010FORT WAYNEIN0334FORT WAYNEIN03340000000000000000000005000000000000000017000000000792194222588
00003653940520043131219/422-2581LI010FORT WAYNEIN0334FORT WAYNEIN03340000000000000000000005000000000000000019000000000792194221529
00003653940520043323219/422-2581LI010FORT WAYNEIN0334FORT WAYNEIN03340000000000000000000005000000000000000017000000000792194232205
00003654940520023136810/424-8024LD010SOUTHFIELDMI0340SOUTHFIELDMI03400000000000900000000015000000000000000019000000000798104248024
00003654940520181014810/424-8024LD010SOUTHFIELDMI0340ROSEVILLE MI03400000000000900000000015000000000000000019000000135168107741000
00003654940520032757810/424-8024LD010SOUTHFIELDMI0340ROSEVILLE MI03400000000000900000000015000000000000000019000000135168107741000
00003654940519223414810/424-8024LD010SOUTHFIELDMI0340ROSEVILLE MI03400000000000900000000015000000000000000022000000135168107741000
00003654940520081933810/424-8024LD010SOUTHFIELDMI0340ROSEVILLE MI03400000000000900000000015000000000000000019000000135168107741000
00003654940520131554810/424-8024LD010SOUTHFIELDMI0340ROSEVILLE MI03400000000000900000000015000000000000000022000000135168107741000
00003654940519222804810/424-8024LD010SOUTHFIELDMI0340DETROIT   MI03400000000000900000000015000000000000000019000000135163139633460
00003654940520180413810/424-8024LD010SOUTHFIELDMI0340DETROIT   MI03400000000000900000000015000000000000000019000000135163139633460
00003654940520032141810/424-8024LD010SOUTHFIELDMI0340DETROIT   MI03400000000000900000000015000000000000000017000000135163139633460
00003654940520081234810/424-8024LD010SOUTHFIELDMI0340DETROIT   MI03400000000000900000000015000000000000000019000000135163139633460
00003654940520130942810/424-8024LD010SOUTHFIELDMI0340DETROIT   MI03400000000000900000000015000000000000000019000000135163139633460
00003661940520070722304/345-9575LD010CHARLESTONWV0254CHARLESTONWV02540000000000900000000015000000000000000017000000000793043459538
00003661940520071010304/345-9575LD010CHARLESTONWV0254CHARLESTONWV02540000000000900000000015000000000000000017000000000793043459606
00003661940520071039304/345-9575LD010CHARLESTONWV0254CHARLESTONWV02540000000000900000000015000000000000000017000000000793043459608
00003661940520070846304/345-9575LD010CHARLESTONWV0254CHARLESTONWV02540000000000900000000015000000000000000017000000000793043459594
00003661940520071106304/345-9575LD010CHARLESTONWV0254CHARLESTONWV02540000000000900000000015000000000000000019000000000793043459615
00003661940520070914304/345-9575LD010CHARLESTONWV0254CHARLESTONWV02540000000000900000000015000000000000000017000000000793043459596
00003661940520070818304/345-9575LD010CHARLESTONWV0254CHARLESTONWV02540000000000900000000015000000000000000017000000000793043459592
00003661940520071134304/345-9575LD010CHARLESTONWV0254CHARLESTONWV02540000000000900000000015000000000000000017000000000793043459617
00003661940520070942304/345-9575LD010CHARLESTONWV0254CHARLESTONWV02540000000000900000000015000000000000000017000000000793043459597
00003661940520070750304/345-9575LD010CHARLESTONWV0254CHARLESTONWV02540000000000900000000015000000000000000017000000000793043459503
00003677940520095528417/781-8718LD010JOPLIN    MO0522JOPLIN    MO05220000000000000000000005000000000000000019000000000794176230736
00003677940520095403417/781-8718LD010JOPLIN    MO0522JOPLIN    MO05220000000000000000000005000000000000000017000000000794176230728
00003677940520095335417/781-8718LD010JOPLIN    MO0522JOPLIN    MO05220000000000000000000005000000000000000017000000000794176230723
00003677940520095433417/781-8718LD010JOPLIN    MO0522JOPLIN    MO05220000000000000000000005000000000000000017000000000794176230730
00003677940520095501417/781-8718LD010JOPLIN    MO0522JOPLIN    MO05220000000000000000000005000000000000000014000000000794176230735
00003677940520095556417/781-8718LD010JOPLIN    MO0522JOPLIN    MO05220000000000000000000005000000000000000019000000000794176230738
00003677940520095622417/781-8718LD010JOPLIN    MO0522JOPLIN    MO05220000000000000000000005000000000000000017000000000794176230743
00003677940520095307417/781-8718LD010JOPLIN    MO0522JOPLIN    MO05220000000000000000000005000000000000000017000000000794176230721
00003677940520095231417/781-8718LD010JOPLIN    MO0522JOPLIN    MO05220000000000000000000005000000000000000042000000000794176230619
00003677940520095204417/781-8718LD010JOPLIN    MO0522JOPLIN    MO05220000000000000000000005000000000000000017000000000794177817617
00003677940520072826417/781-8718LD010JOPLIN    MO0522JOPLIN    MO05220000000000000000000005000000000000000017000000135164177818718
00003677940519214255417/781-8718LD010JOPLIN    MO0522JOPLIN    MO05220000000000000000000005000000000000000017000000135164177818718
00003677940520171916417/781-8718LD010JOPLIN    MO0522JOPLIN    MO05220000000000000000000005000000000000000019000000135164177818718
00003677940520023617417/781-8718LD010JOPLIN    MO0522JOPLIN    MO05220000000000000000000005000000000000000019000000135164177818718
00003677940520122442417/781-8718LD010JOPLIN    MO0522JOPLIN    MO05220000000000000000000005000000000000000022000000135164177818718
00003752940520112408708/698-9800LI010PARK RIDGEIL0358LANSING   IL03580000000000900000000015000000000000000019000000135167084741422
00003752940520161900708/698-9800LI010PARK RIDGEIL0358LANSING   IL03580000000000900000000015000000000000000019000000135167084741422
00003752940520162208708/698-9800LI010PARK RIDGEIL0358PARK RIDGEIL03580000000000000000000005000000000000000019000000135167086989800
00003752940520112716708/698-9800LI010PARK RIDGEIL0358PARK RIDGEIL03580000000000000000000005000000000000000022000000135167086989800
00003774940519165253206/452-6800LD010PT ANGELESWA0674PT ANGELESWA06740000000000000000000005000000000000000019000000135162064526800
00003774940520023947206/452-6800LD010PT ANGELESWA0674PT ANGELESWA06740000000000000000000005000000000000000017000000135162064526800
00003774940520073526206/452-6800LD010PT ANGELESWA0674PT ANGELESWA06740000000000000000000005000000000000000017000000135162064526800
00003774940520123004206/452-6800LD010PT ANGELESWA0674PT ANGELESWA06740000000000000000000005000000000000000019000000135162064526800
00003774940519214731206/452-6800LD010PT ANGELESWA0674PT ANGELESWA06740000000000000000000005000000000000000022000000135162064526800
00003774940520133313206/452-6800LD010PT ANGELESWA0674PT ANGELESWA06740000000000000000000005000000000000000017000000000792064527073
00003774940520133243206/452-6800LD010PT ANGELESWA0674PT ANGELESWA06740000000000000000000005000000000000000019000000000792064521108
00003774940520133342206/452-6800LD010PT ANGELESWA0674PT ANGELESWA06740000000000000000000005000000000000000017000000000792064529095
00003774940520133411206/452-6800LD010PT ANGELESWA0674PT ANGELESWA06740000000000000000000005000000000000000017000000000792064529298
00004107940520141738209/442-4328LD010FRESNO    CA0728FRESNO    CA07280000000000900000000015000000000000000014000000000792094424368
00004107940520141704209/442-4328LD010FRESNO    CA0728FRESNO    CA07280000000000900000000015000000000000000039000000000792094424367
00004107940520141558209/442-4328LD010FRESNO    CA0728FRESNO    CA07280000000000900000000015000000000000000039000000000792094424361
00004107940520141837209/442-4328LD010FRESNO    CA0728FRESNO    CA07280000000000900000000015000000000000000036000000000792094424390
00004107940520141802209/442-4328LD010FRESNO    CA0728FRESNO    CA07280000000000900000000015000000000000000039000000000792094424389
00004107940520141630209/442-4328LD010FRESNO    CA0728FRESNO    CA07280000000000900000000015000000000000000039000000000792094424364
00004121940519214535703/427-3250LD010ROANOKE   VA0244ROANOKE   VA02440000000000000000000005000000000000000017000000000797034273274
00004121940519214609703/427-3250LD010ROANOKE   VA0244ROANOKE   VA02440000000000000000000005000000000000000011000000000797034273277
00004121940519214637703/427-3250LD010ROANOKE   VA0244ROANOKE   VA02440000000000000000000005000000000000000017000000000797034273357
00004121940519214459703/427-3250LD010ROANOKE   VA0244ROANOKE   VA02440000000000000000000005000000000000000042000000000797034273273
00004121940519214705703/427-3250LD010ROANOKE   VA0244ROANOKE   VA02440000000000000000000005000000000000000017000000000797034273359
00004126940520061259908/396-8550LD010RAHWAY    NJ0224RAHWAY    NJ02240000000000900000000015000000000000000017000000000799083968550
00004154940520104503805/985-7843LI010OXNARD    CA0730OXNARD    CA07300000000000900000000015000000000000000017000000000798059853028
00004154940520104700805/985-7843LI010OXNARD    CA0730OXNARD    CA07300000000000900000000015000000000000000017000000000798053821087
00004154940520104633805/985-7843LI010OXNARD    CA0730OXNARD    CA07300000000000900000000015000000000000000014000000000798059847917
00004154940520104758805/985-7843LI010OXNARD    CA0730OXNARD    CA07300000000000900000000015000000000000000017000000000798059840170
00004154940520104729805/985-7843LI010OXNARD    CA0730OXNARD    CA07300000000000900000000015000000000000000017000000000798059856868
00004154940520082153805/985-7843LI010OXNARD    CA0730OXNARD    CA07300000000000900000000015000000000000000019000000135168059857843
00004154940520131555805/985-7843LI010OXNARD    CA0730OXNARD    CA07300000000000900000000015000000000000000019000000135168059857843
00004154940520032442805/985-7843LI010OXNARD    CA0730OXNARD    CA07300000000000900000000015000000000000000017000000135168059857843
00004154940519223325805/985-7843LI010OXNARD    CA0730OXNARD    CA07300000000000900000000015000000000000000019000000135168059857843
00004154940519174007805/985-7843LI010OXNARD    CA0730OXNARD    CA07300000000000900000000015000000000000000019000000135168059857843
00004154940520104531805/985-7843LI010OXNARD    CA0730OXNARD    CA07300000000000900000000015000000000000000036000000000798059853058
00004154940520104605805/985-7843LI010OXNARD    CA0730OXNARD    CA07300000000000900000000015000000000000000017000000000798059853509
00004166940519221957707/645-1090LD010VALLEJO   CA0722VALLEJO   CA07220000000000900000000015000000000000000017000000000797076451388
00004166940520083234707/645-1090LD010VALLEJO   CA0722VALLEJO   CA07220000000000900000000015000000000000000019000000135167076451090
00004166940519224417707/645-1090LD010VALLEJO   CA0722VALLEJO   CA07220000000000900000000015000000000000000017000000135167076451090
00004166940519175040707/645-1090LD010VALLEJO   CA0722VALLEJO   CA07220000000000900000000015000000000000000019000000135167076451090
00004166940520033609707/645-1090LD010VALLEJO   CA0722VALLEJO   CA07220000000000900000000015000000000000000017000000135167076451090
00004166940520132631707/645-1090LD010VALLEJO   CA0722VALLEJO   CA07220000000000900000000015000000000000000017000000135167076451090
00004166940519221922707/645-1090LD010VALLEJO   CA0722VALLEJO   CA07220000000000900000000015000000000000000014000000000797076451385
00004166940519222102707/645-1090LD010VALLEJO   CA0722VALLEJO   CA07220000000000900000000015000000000000000017000000000797076451391
00004166940519221821707/645-1090LD010VALLEJO   CA0722VALLEJO   CA07220000000000900000000015000000000000000014000000000797076451294
00004166940519221846707/645-1090LD010VALLEJO   CA0722VALLEJO   CA07220000000000900000000015000000000000000014000000000797076451373
00004166940519222024707/645-1090LD010VALLEJO   CA0722VALLEJO   CA07220000000000900000000015000000000000000014000000000797076451389
00004166940519222154707/645-1090LD010VALLEJO   CA0722VALLEJO   CA07220000000000900000000015000000000000000017000000000797076451398
00004166940519222220707/645-1090LD010VALLEJO   CA0722VALLEJO   CA07220000000000900000000015000000000000000014000000000797076451427
00004166940519221755707/645-1090LD010VALLEJO   CA0722VALLEJO   CA07220000000000900000000015000000000000000014000000000797076451286
00004166940519222128707/645-1090LD010VALLEJO   CA0722VALLEJO   CA07220000000000900000000015000000000000000014000000000797076451396
00004220940520031644207/775-5971LD010PORTLAND  ME0120PORTLAND  ME01200000000000000000000005000000000000000017000000000792077755971
00004232940520084352516/420-4579LD010FARMINGDL NY0132FARMINGDL NY01320000000000900000000015000000000000000017000000000795164205696
00004232940520083954516/420-4579LD010FARMINGDL NY0132FARMINGDL NY01320000000000900000000015000000000000000019000000000795164204570
00004232940520084024516/420-4579LD010FARMINGDL NY0132FARMINGDL NY01320000000000900000000015000000000000000017000000000795164204572
00004232940520083709516/420-4579LD010FARMINGDL NY0132FARMINGDL NY01320000000000900000000015000000000000000017000000000795164201204
00004232940520084226516/420-4579LD010FARMINGDL NY0132FARMINGDL NY01320000000000900000000015000000000000000017000000000795164204578
00004232940520084423516/420-4579LD010FARMINGDL NY0132FARMINGDL NY01320000000000900000000015000000000000000019000000000795164205697
00004232940520084320516/420-4579LD010FARMINGDL NY0132FARMINGDL NY01320000000000900000000015000000000000000017000000000795164205681
00004232940520084248516/420-4579LD010FARMINGDL NY0132FARMINGDL NY01320000000000900000000015000000000000000017000000000795164205625
00004232940520084457516/420-4579LD010FARMINGDL NY0132FARMINGDL NY01320000000000900000000015000000000000000019000000000795164205698
00004232940520084102516/420-4579LD010FARMINGDL NY0132FARMINGDL NY01320000000000900000000015000000000000000017000000000795164204573
00004232940520084132516/420-4579LD010FARMINGDL NY0132FARMINGDL NY01320000000000900000000015000000000000000017000000000795164204574
00004232940520084154516/420-4579LD010FARMINGDL NY0132FARMINGDL NY01320000000000900000000015000000000000000017000000000795164204575
00004232940520083924516/420-4579LD010FARMINGDL NY0132FARMINGDL NY01320000000000900000000015000000000000000017000000000795164201384
00004232940520083856516/420-4579LD010FARMINGDL NY0132FARMINGDL NY01320000000000900000000015000000000000000019000000000795164201258
00004232940520083756516/420-4579LD010FARMINGDL NY0132FARMINGDL NY01320000000000900000000015000000000000000019000000000795164201242
00004232940520083824516/420-4579LD010FARMINGDL NY0132FARMINGDL NY01320000000000900000000015000000000000000017000000000795164201254
00004232940520083727516/420-4579LD010FARMINGDL NY0132FARMINGDL NY01320000000000900000000015000000000000000019000000000795164201218
00004271940520130923714/379-1728LI010WESTMINSTRCA0730WESTMINSTRCA07300000000000900000000015000000000000000017000000135167143791728
00004271940520081510714/379-1728LI010WESTMINSTRCA0730WESTMINSTRCA07300000000000900000000015000000000000000019000000135167143791728
00004271940519222648714/379-1728LI010WESTMINSTRCA0730WESTMINSTRCA07300000000000900000000015000000000000000019000000135167143791728
00004271940519173319714/379-1728LI010WESTMINSTRCA0730WESTMINSTRCA07300000000000900000000015000000000000000017000000135167143791728
00004271940520031740714/379-1728LI010WESTMINSTRCA0730WESTMINSTRCA07300000000000900000000015000000000000000017000000135167143791728
00004271940520015757714/379-1728LI010WESTMINSTRCA0730BREA      CA07300000000001100000000018000000000000000972000000636617145299525
00004271940520063926714/379-1728LI010WESTMINSTRCA0730BREA      CA07300000000000900000000015000000000000000197000000636617145299525
00004271940519172328714/379-1728LI010WESTMINSTRCA0730IRVINE    CA07300000000000900000000015000000000000000017000000135167147568341
00004271940519221625714/379-1728LI010WESTMINSTRCA0730IRVINE    CA07300000000000900000000015000000000000000019000000135167147568341
00004271940520125848714/379-1728LI010WESTMINSTRCA0730IRVINE    CA07300000000000900000000015000000000000000019000000135167147568341
00004271940520080445714/379-1728LI010WESTMINSTRCA0730IRVINE    CA07300000000000900000000015000000000000000017000000135167147568341
00004271940520030750714/379-1728LI010WESTMINSTRCA0730IRVINE    CA07300000000000900000000015000000000000000019000000135167147568341
00004271940520030722714/379-1728LI010WESTMINSTRCA0730IRVINE    CA07300000000000900000000015000000000000000019000000135167148528141
00004271940520080415714/379-1728LI010WESTMINSTRCA0730IRVINE    CA07300000000000900000000015000000000000000019000000135167148528141
00004271940520125819714/379-1728LI010WESTMINSTRCA0730IRVINE    CA07300000000000900000000015000000000000000019000000135167148528141
00004271940519221557714/379-1728LI010WESTMINSTRCA0730IRVINE    CA07300000000000900000000015000000000000000017000000135167148528141
00004271940519172259714/379-1728LI010WESTMINSTRCA0730IRVINE    CA07300000000000900000000015000000000000000019000000135167148528141
00004304940520035341203/242-1986LI010BLOOMFIELDCT0920BLOOMFIELDCT09200000000000000000000005000000000000000019000000000792032423792
00004305940519215014217/425-8864LD010DECATUR   IL0374DECATUR   IL03740000000000900000000015000000000000000019000000000792174258867
00004305940519215140217/425-8864LD010DECATUR   IL0374DECATUR   IL03740000000000900000000015000000000000000017000000000792174258886
00004305940519215111217/425-8864LD010DECATUR   IL0374DECATUR   IL03740000000000900000000015000000000000000017000000000792174258872
00004305940519215043217/425-8864LD010DECATUR   IL0374DECATUR   IL03740000000000900000000015000000000000000019000000000792174258868
00004305940519204708217/425-8864LD010DECATUR   IL0374SPRINGFLD IL03740000000000900000000015000000000000000019000000135162175440312
00004305940520162238217/425-8864LD010DECATUR   IL0374SPRINGFLD IL03740000000000900000000015000000000000000019000000135162175440312
00004305940520112747217/425-8864LD010DECATUR   IL0374SPRINGFLD IL03740000000000900000000015000000000000000017000000135162175440312
00004305940520013945217/425-8864LD010DECATUR   IL0374SPRINGFLD IL03740000000000900000000015000000000000000019000000135162175440312
00004305940520063117217/425-8864LD010DECATUR   IL0374SPRINGFLD IL03740000000000900000000015000000000000000019000000135162175440312
00004310940520094749702/885-8411LD010CARSONCITYNV0720GARDNERVL NV07200000000000000000000005000000000000000144000000203897027828620
00004310940520064145702/885-8411LD010CARSONCITYNV0720GARDNERVL NV07200000000000000000000005000000000000000092000000203897027828620
00004310940520010442702/885-8411LD010CARSONCITYNV0720CARSONCITYNV07200000000000000000000005000000000000000017000000000797028858413
00004310940520010720702/885-8411LD010CARSONCITYNV0720CARSONCITYNV07200000000000000000000005000000000000000017000000000797028859132
00004310940520010654702/885-8411LD010CARSONCITYNV0720CARSONCITYNV07200000000000000000000005000000000000000017000000000797028859058
00004316940520023100612/332-4024LD010MINNEAPOLSMN0628MINNEAPOLSMN06280000000000000000000005000000000000000017000000135166123324024
00004316940520171320612/332-4024LD010MINNEAPOLSMN0628MINNEAPOLSMN06280000000000000000000005000000000000000019000000135166123324024
00004316940519213724612/332-4024LD010MINNEAPOLSMN0628MINNEAPOLSMN06280000000000000000000005000000000000000019000000135166123324024
00004316940520072246612/332-4024LD010MINNEAPOLSMN0628MINNEAPOLSMN06280000000000000000000005000000000000000017000000135166123324024
00004316940520121908612/332-4024LD010MINNEAPOLSMN0628MINNEAPOLSMN06280000000000000000000005000000000000000025000000135166123324024
00004316940520042639612/332-4024LD010MINNEAPOLSMN0628MINNEAPOLSMN06280000000000000000000005000000000000000014000000000796123322781
00004316940520042727612/332-4024LD010MINNEAPOLSMN0628MINNEAPOLSMN06280000000000000000000005000000000000000014000000000796123322562
00004316940520042614612/332-4024LD010MINNEAPOLSMN0628MINNEAPOLSMN06280000000000000000000005000000000000000017000000000796123322216
00004316940520042703612/332-4024LD010MINNEAPOLSMN0628MINNEAPOLSMN06280000000000000000000005000000000000000014000000000796123324835
00004316940520121937612/332-4024LD010MINNEAPOLSMN0628MINNEAPOLSMN06280000000000000000000005000000000000000017000000135166123332799
00004316940520072316612/332-4024LD010MINNEAPOLSMN0628MINNEAPOLSMN06280000000000000000000005000000000000000019000000135166123332799
00004316940519213750612/332-4024LD010MINNEAPOLSMN0628MINNEAPOLSMN06280000000000000000000005000000000000000017000000135166123332799
00004316940520171346612/332-4024LD010MINNEAPOLSMN0628MINNEAPOLSMN06280000000000000000000005000000000000000019000000135166123332799
00004316940520023124612/332-4024LD010MINNEAPOLSMN0628MINNEAPOLSMN06280000000000000000000005000000000000000019000000135166123332799
00004325940520183311516/485-7422LD052HEMPSTEAD NY0132HEMPSTEAD NY01320000000000900000000015000000000000000019000000000795164813948
00004325940520183235516/485-7422LD052HEMPSTEAD NY0132HEMPSTEAD NY01320000000000900000000015000000000000000019000000000795164813904
00004325940520183500516/485-7422LD052HEMPSTEAD NY0132HEMPSTEAD NY01320000000000900000000015000000000000000017000000000795164817072
00004325940520183347516/485-7422LD052HEMPSTEAD NY0132HEMPSTEAD NY01320000000000900000000015000000000000000017000000000795164813965
00004325940520183424516/485-7422LD052HEMPSTEAD NY0132HEMPSTEAD NY01320000000000900000000015000000000000000017000000000795164817973
00004325940520183147516/485-7422LD052HEMPSTEAD NY0132HEMPSTEAD NY01320000000000900000000015000000000000000047000000000795164813903
00004325940520183100516/485-7422LD052HEMPSTEAD NY0132HEMPSTEAD NY01320000000000900000000015000000000000000017000000000795164810349
00004325940520183023516/485-7422LD052HEMPSTEAD NY0132HEMPSTEAD NY01320000000000900000000015000000000000000017000000000795164857544
00004325940520182423516/485-7422LD052HEMPSTEAD NY0132HEMPSTEAD NY01320000000000900000000015000000000000000019000000000795164857729
00004325940520182500516/485-7422LD052HEMPSTEAD NY0132HEMPSTEAD NY01320000000000900000000015000000000000000017000000000795164857530
00004325940520182308516/485-7422LD052HEMPSTEAD NY0132HEMPSTEAD NY01320000000000900000000015000000000000000017000000000795164857665
00004325940520182723516/485-7422LD052HEMPSTEAD NY0132HEMPSTEAD NY01320000000000900000000015000000000000000017000000000795164857321
00004325940520182648516/485-7422LD052HEMPSTEAD NY0132HEMPSTEAD NY01320000000000900000000015000000000000000017000000000795164857317
00004325940520182347516/485-7422LD052HEMPSTEAD NY0132HEMPSTEAD NY01320000000000900000000015000000000000000017000000000795164857721
00004325940520182911516/485-7422LD052HEMPSTEAD NY0132HEMPSTEAD NY01320000000000900000000015000000000000000017000000000795164857363
00004325940520182947516/485-7422LD052HEMPSTEAD NY0132HEMPSTEAD NY01320000000000900000000015000000000000000017000000000795164857376
00004325940520182535516/485-7422LD052HEMPSTEAD NY0132HEMPSTEAD NY01320000000000900000000015000000000000000017000000000795164857535
00004325940520182612516/485-7422LD052HEMPSTEAD NY0132HEMPSTEAD NY01320000000000900000000015000000000000000017000000000795164857180
00004325940520182759516/485-7422LD052HEMPSTEAD NY0132HEMPSTEAD NY01320000000000900000000015000000000000000017000000000795164857324
00004325940520182836516/485-7422LD052HEMPSTEAD NY0132HEMPSTEAD NY01320000000000900000000015000000000000000017000000000795164857358
00004330940520061209806/797-0765LD010LUBBOCK   TX0544LUBBOCK   TX05440000000000000000000005000000000000000017000000000798067970765
00004353940520111736818/789-9557LD010VAN NUYS  CA0730VAN NUYS  CA07300000000000900000000015000000000000000300000000636188187841915
00004353940519211107818/789-9557LD010VAN NUYS  CA0730VAN NUYS  CA07300000000000900000000015000000000000000308000000689148187853340
00004353940520135421818/789-9557LD010VAN NUYS  CA0730VAN NUYS  CA07300000000000900000000015000000000000000017000000000798187899052
00004353940520135810818/789-9557LD010VAN NUYS  CA0730VAN NUYS  CA07300000000000900000000015000000000000000017000000000798187899164
00004353940520135656818/789-9557LD010VAN NUYS  CA0730VAN NUYS  CA07300000000000900000000015000000000000000017000000000798187899152
00004353940520135720818/789-9557LD010VAN NUYS  CA0730VAN NUYS  CA07300000000000900000000015000000000000000017000000000798187899153
00004353940520135744818/789-9557LD010VAN NUYS  CA0730VAN NUYS  CA07300000000000900000000015000000000000000017000000000798187899161
00004353940520135604818/789-9557LD010VAN NUYS  CA0730VAN NUYS  CA07300000000000900000000015000000000000000017000000000798187899130
00004353940520135630818/789-9557LD010VAN NUYS  CA0730VAN NUYS  CA07300000000000900000000015000000000000000017000000000798187899142
00004353940520140135818/789-9557LD010VAN NUYS  CA0730VAN NUYS  CA07300000000000900000000015000000000000000017000000000798187899548
00004353940520140109818/789-9557LD010VAN NUYS  CA0730VAN NUYS  CA07300000000000900000000015000000000000000017000000000798187899519
00004353940520140227818/789-9557LD010VAN NUYS  CA0730VAN NUYS  CA07300000000000900000000015000000000000000017000000000798187890839
00004353940520135928818/789-9557LD010VAN NUYS  CA0730VAN NUYS  CA07300000000000900000000015000000000000000017000000000798187899501
00004353940520140201818/789-9557LD010VAN NUYS  CA0730VAN NUYS  CA07300000000000900000000015000000000000000017000000000798187890768
00004353940520135954818/789-9557LD010VAN NUYS  CA0730VAN NUYS  CA07300000000000900000000015000000000000000014000000000798187899508
00004353940520140345818/789-9557LD010VAN NUYS  CA0730VAN NUYS  CA07300000000000900000000015000000000000000017000000000798187891422
00004353940520135902818/789-9557LD010VAN NUYS  CA0730VAN NUYS  CA07300000000000900000000015000000000000000014000000000798187899468
00004353940520135836818/789-9557LD010VAN NUYS  CA0730VAN NUYS  CA07300000000000900000000015000000000000000017000000000798187899215
00004353940520140019818/789-9557LD010VAN NUYS  CA0730VAN NUYS  CA07300000000000900000000015000000000000000017000000000798187899509
00004353940520140319818/789-9557LD010VAN NUYS  CA0730VAN NUYS  CA07300000000000900000000015000000000000000017000000000798187890864
00004353940520140253818/789-9557LD010VAN NUYS  CA0730VAN NUYS  CA07300000000000900000000015000000000000000017000000000798187890863
00004353940520140043818/789-9557LD010VAN NUYS  CA0730VAN NUYS  CA07300000000000900000000015000000000000000017000000000798187899518
00004353940520135538818/789-9557LD010VAN NUYS  CA0730VAN NUYS  CA07300000000000900000000015000000000000000017000000000798187899124
00004353940520135513818/789-9557LD010VAN NUYS  CA0730VAN NUYS  CA07300000000000900000000015000000000000000017000000000798187899116
00004353940520135449818/789-9557LD010VAN NUYS  CA0730VAN NUYS  CA07300000000000900000000015000000000000000017000000000798187899083
00004353940519172551818/789-9557LD010VAN NUYS  CA0730BURBANK   CA07300000000000900000000015000000000000000019000000135168188414795
00004353940519221850818/789-9557LD010VAN NUYS  CA0730BURBANK   CA07300000000000900000000015000000000000000019000000135168188414795
00004353940520130112818/789-9557LD010VAN NUYS  CA0730BURBANK   CA07300000000000900000000015000000000000000017000000135168188414795
00004353940520031017818/789-9557LD010VAN NUYS  CA0730BURBANK   CA07300000000000900000000015000000000000000017000000135168188414795
00004353940520080732818/789-9557LD010VAN NUYS  CA0730BURBANK   CA07300000000000900000000015000000000000000022000000135168188414795
00004354940519223543501/535-2629LD011PINE BLUFFAR0530PINE BLUFFAR05300000000000000000000005000000000000000039000000000795015350170
00004354940519223623501/535-2629LD011PINE BLUFFAR0530PINE BLUFFAR05300000000000000000000005000000000000000039000000000795015350373
00004354940519223411501/535-2629LD011PINE BLUFFAR0530PINE BLUFFAR05300000000000000000000005000000000000000014000000000795015355946
00004354940519223505501/535-2629LD011PINE BLUFFAR0530PINE BLUFFAR05300000000000000000000005000000000000000014000000000795015350123
00004354940519223437501/535-2629LD011PINE BLUFFAR0530PINE BLUFFAR05300000000000000000000005000000000000000014000000000795015351879
00004376940520011214209/383-7593LD010MERCED    CA0738MERCED    CA07380000000000900000000015000000000000000017000000000792093837944
00004376940520010904209/383-7593LD010MERCED    CA0738MERCED    CA07380000000000900000000015000000000000000014000000000792093837593
00004376940520011101209/383-7593LD010MERCED    CA0738MERCED    CA07380000000000900000000015000000000000000014000000000792093837894
00004376940520010930209/383-7593LD010MERCED    CA0738MERCED    CA07380000000000900000000015000000000000000014000000000792093837597
00004376940520011347209/383-7593LD010MERCED    CA0738MERCED    CA07380000000000900000000015000000000000000014000000000792093837984
00004376940520011025209/383-7593LD010MERCED    CA0738MERCED    CA07380000000000900000000015000000000000000036000000000792093837890
00004376940520010956209/383-7593LD010MERCED    CA0738MERCED    CA07380000000000900000000015000000000000000017000000000792093837873
00004376940520011319209/383-7593LD010MERCED    CA0738MERCED    CA07380000000000900000000015000000000000000014000000000792093837968
00004376940520011243209/383-7593LD010MERCED    CA0738MERCED    CA07380000000000900000000015000000000000000039000000000792093837962
00004376940520011127209/383-7593LD010MERCED    CA0738MERCED    CA07380000000000900000000015000000000000000039000000000792093837897
00004403940519205022405/495-9201LD010BETHANY   OK0536BETHANY   OK05360000000000000000000005000000000000000019000000000794054958205
00004403940520164759405/495-9201LD010BETHANY   OK0536BETHANY   OK05360000000000000000000005000000000000000017000000000794054959914
00004403940520163834405/495-9201LD010BETHANY   OK0536BETHANY   OK05360000000000000000000005000000000000000017000000000794054959277
00004403940520163758405/495-9201LD010BETHANY   OK0536BETHANY   OK05360000000000000000000005000000000000000017000000000794054959263
00004403940520164013405/495-9201LD010BETHANY   OK0536BETHANY   OK05360000000000000000000005000000000000000017000000000794054959282
00004403940519205355405/495-9201LD010BETHANY   OK0536BETHANY   OK05360000000000000000000005000000000000000017000000000794054958241
00004403940519205544405/495-9201LD010BETHANY   OK0536BETHANY   OK05360000000000000000000005000000000000000019000000000794054958262
00004403940519205433405/495-9201LD010BETHANY   OK0536BETHANY   OK05360000000000000000000005000000000000000017000000000794054958245
00004403940519205507405/495-9201LD010BETHANY   OK0536BETHANY   OK05360000000000000000000005000000000000000017000000000794054958261
00004403940519205620405/495-9201LD010BETHANY   OK0536BETHANY   OK05360000000000000000000005000000000000000019000000000794054958263
00004403940519205244405/495-9201LD010BETHANY   OK0536BETHANY   OK05360000000000000000000005000000000000000017000000000794054958234
00004403940519205319405/495-9201LD010BETHANY   OK0536BETHANY   OK05360000000000000000000005000000000000000019000000000794054958237
00004403940519205131405/495-9201LD010BETHANY   OK0536BETHANY   OK05360000000000000000000005000000000000000017000000000794054958216
00004403940519205208405/495-9201LD010BETHANY   OK0536BETHANY   OK05360000000000000000000005000000000000000017000000000794054958233
00004403940519205057405/495-9201LD010BETHANY   OK0536BETHANY   OK05360000000000000000000005000000000000000017000000000794054958206
00004403940520164202405/495-9201LD010BETHANY   OK0536BETHANY   OK05360000000000000000000005000000000000000017000000000794054952059
00004403940520164834405/495-9201LD010BETHANY   OK0536BETHANY   OK05360000000000000000000005000000000000000017000000000794054959713
00004411940520012911415/361-8701LD010REDWOOD CYCA0722PALO ALTO CA07220000000000900000000015000000000000000219000000657124153252447
00004411940520042229415/361-8701LD010REDWOOD CYCA0722REDWOOD CYCA07220000000000900000000015000000000000000064000000000794153618991
00004411940520042350415/361-8701LD010REDWOOD CYCA0722REDWOOD CYCA07220000000000900000000015000000000000000039000000000794153618996
00004411940520042314415/361-8701LD010REDWOOD CYCA0722REDWOOD CYCA07220000000000900000000015000000000000000039000000000794153618993
00004454940520043544601/355-9741LD010JACKSON   MS0482JACKSON   MS04820000000000000000000005000000000000000014000000000796013521129
00004454940520043609601/355-9741LD010JACKSON   MS0482JACKSON   MS04820000000000000000000005000000000000000017000000000796013521136
00004454940520043354601/355-9741LD010JACKSON   MS0482JACKSON   MS04820000000000000000000005000000000000000017000000000796013559763
00004454940520122828601/355-9741LD010JACKSON   MS0482JACKSON   MS04820000000000000000000005000000000000000019000000135166013559741
00004454940520172255601/355-9741LD010JACKSON   MS0482JACKSON   MS04820000000000000000000005000000000000000019000000135166013559741
00004454940519214722601/355-9741LD010JACKSON   MS0482JACKSON   MS04820000000000000000000005000000000000000019000000135166013559741
00004454940520073218601/355-9741LD010JACKSON   MS0482JACKSON   MS04820000000000000000000005000000000000000019000000135166013559741
00004454940520024019601/355-9741LD010JACKSON   MS0482JACKSON   MS04820000000000000000000005000000000000000017000000135166013559741
00004454940520043326601/355-9741LD010JACKSON   MS0482JACKSON   MS04820000000000000000000005000000000000000014000000000796013559745
00004454940520043422601/355-9741LD010JACKSON   MS0482JACKSON   MS04820000000000000000000005000000000000000014000000000796013559777
00004454940520043636601/355-9741LD010JACKSON   MS0482JACKSON   MS04820000000000000000000005000000000000000017000000000796019493265
00004466940519202012915/533-1453LD010EL PASO   TX0540EL PASO   TX05400000000000000000000005000000000000000017000000000799155332074
00004466940519201926915/533-1453LD010EL PASO   TX0540EL PASO   TX05400000000000000000000005000000000000000039000000000799155326298
00004466940519201859915/533-1453LD010EL PASO   TX0540EL PASO   TX05400000000000000000000005000000000000000017000000000799155326296
00004466940519202151915/533-1453LD010EL PASO   TX0540EL PASO   TX05400000000000000000000005000000000000000017000000000799155332193
00004466940519202316915/533-1453LD010EL PASO   TX0540EL PASO   TX05400000000000000000000005000000000000000017000000000799155332238
00004466940519202250915/533-1453LD010EL PASO   TX0540EL PASO   TX05400000000000000000000005000000000000000017000000000799155332214
00004466940519202218915/533-1453LD010EL PASO   TX0540EL PASO   TX05400000000000000000000005000000000000000039000000000799155332194
00004466940519202125915/533-1453LD010EL PASO   TX0540EL PASO   TX05400000000000000000000005000000000000000014000000000799155332192
00004503940520031836614/798-2051LD010DUBLIN    OH0324DUBLIN    OH03240000000000900000000015000000000000000017000000000796147982092
00004503940520032042614/798-2051LD010DUBLIN    OH0324DUBLIN    OH03240000000000900000000015000000000000000017000000000796147982107
00004503940520031925614/798-2051LD010DUBLIN    OH0324DUBLIN    OH03240000000000900000000015000000000000000017000000000796147982103
00004503940520031901614/798-2051LD010DUBLIN    OH0324DUBLIN    OH03240000000000900000000015000000000000000017000000000796147982095
00004503940520032150614/798-2051LD010DUBLIN    OH0324DUBLIN    OH03240000000000900000000015000000000000000017000000000796147982112
00004503940520032133614/798-2051LD010DUBLIN    OH0324DUBLIN    OH03240000000000900000000015000000000000000017000000000796147982111
00004503940520031746614/798-2051LD010DUBLIN    OH0324DUBLIN    OH03240000000000900000000015000000000000000017000000000796147982059
00004503940520032109614/798-2051LD010DUBLIN    OH0324DUBLIN    OH03240000000000900000000015000000000000000017000000000796147982109
00004504940519221723415/588-3043LD010SOSAN FRANCA0722REDWOOD CYCA07220000000000900000000015000000000000000025000000135164153618701
00004504940519221919415/588-3043LD010SOSAN FRANCA0722SOSAN FRANCA07220000000000900000000015000000000000000019000000135164155883043
00004504940520080605415/588-3043LD010SOSAN FRANCA0722REDWOOD CYCA07220000000000900000000015000000000000000019000000135164153618701
00004504940520125946415/588-3043LD010SOSAN FRANCA0722REDWOOD CYCA07220000000000900000000015000000000000000019000000135164153618701
00004504940520030849415/588-3043LD010SOSAN FRANCA0722REDWOOD CYCA07220000000000900000000015000000000000000025000000135164153618701
00004504940519172427415/588-3043LD010SOSAN FRANCA0722REDWOOD CYCA07220000000000900000000015000000000000000017000000135164153618701
00004504940520032940415/588-3043LD010SOSAN FRANCA0722SAN FRAN  CA07220000000000900000000015000000000000000047000000135164155430691
00004504940520132049415/588-3043LD010SOSAN FRANCA0722SAN FRAN  CA07220000000000900000000015000000000000000017000000135164155430691
00004504940519223808415/588-3043LD010SOSAN FRANCA0722SAN FRAN  CA07220000000000900000000015000000000000000017000000135164155430691
00004504940519174456415/588-3043LD010SOSAN FRANCA0722SAN FRAN  CA07220000000000900000000015000000000000000019000000135164155430691
00004504940520082645415/588-3043LD010SOSAN FRANCA0722SAN FRAN  CA07220000000000900000000015000000000000000025000000135164155430691
00004504940520080802415/588-3043LD010SOSAN FRANCA0722SOSAN FRANCA07220000000000900000000015000000000000000019000000135164155883043
00004504940520031045415/588-3043LD010SOSAN FRANCA0722SOSAN FRANCA07220000000000900000000015000000000000000019000000135164155883043
00004504940520130141415/588-3043LD010SOSAN FRANCA0722SOSAN FRANCA07220000000000900000000015000000000000000019000000135164155883043
00004504940519172619415/588-3043LD010SOSAN FRANCA0722SOSAN FRANCA07220000000000900000000015000000000000000019000000135164155883043
00004504940520132119415/588-3043LD010SOSAN FRANCA0722SAN FRAN  CA07220000000000900000000015000000000000000017000000135164159741300
00004504940519174528415/588-3043LD010SOSAN FRANCA0722SAN FRAN  CA07220000000000900000000015000000000000000019000000135164159741300
00004504940520033020415/588-3043LD010SOSAN FRANCA0722SAN FRAN  CA07220000000000900000000015000000000000000019000000135164159741300
00004504940520082719415/588-3043LD010SOSAN FRANCA0722SAN FRAN  CA07220000000000900000000015000000000000000017000000135164159741300
00004542940520180839313/451-2400LD010PLYMOUTH  MI0340PLYMOUTH  MI03400000000000900000000015000000000000000019000000135163134512400
00004542940520032626313/451-2400LD010PLYMOUTH  MI0340PLYMOUTH  MI03400000000000900000000015000000000000000019000000135163134512400
00004542940520131419313/451-2400LD010PLYMOUTH  MI0340PLYMOUTH  MI03400000000000900000000015000000000000000019000000135163134512400
00004542940520081714313/451-2400LD010PLYMOUTH  MI0340PLYMOUTH  MI03400000000000900000000015000000000000000017000000135163134512400
00004542940519223232313/451-2400LD010PLYMOUTH  MI0340PLYMOUTH  MI03400000000000900000000015000000000000000019000000135163134512400
00004542940519193701313/451-2400LD010PLYMOUTH  MI0340PLYMOUTH  MI03400000000000900000000015000000000000000017000000000793134512400
00004542940519222510313/451-2400LD010PLYMOUTH  MI0340ANN ARBOR MI03400000000000900000000015000000000000000019000000135163139737935
00004542940520180116313/451-2400LD010PLYMOUTH  MI0340ANN ARBOR MI03400000000000900000000015000000000000000019000000135163139737935
00004542940520080938313/451-2400LD010PLYMOUTH  MI0340ANN ARBOR MI03400000000000900000000015000000000000000022000000135163139737935
00004542940520130645313/451-2400LD010PLYMOUTH  MI0340ANN ARBOR MI03400000000000900000000015000000000000000019000000135163139737935
00004542940520031843313/451-2400LD010PLYMOUTH  MI0340ANN ARBOR MI03400000000000900000000015000000000000000019000000135163139737935
00004556940520154209510/935-1507LD010WALNUT CRKCA0722WALNUT CRKCA07220000000000900000000015000000000000000039000000000795109350972
00004556940520154036510/935-1507LD010WALNUT CRKCA0722WALNUT CRKCA07220000000000900000000015000000000000000017000000000795109350895
00004556940520154110510/935-1507LD010WALNUT CRKCA0722WALNUT CRKCA07220000000000900000000015000000000000000017000000000795109350896
00004556940520153857510/935-1507LD010WALNUT CRKCA0722WALNUT CRKCA07220000000000900000000015000000000000000017000000000795109351507
00004556940520153932510/935-1507LD010WALNUT CRKCA0722WALNUT CRKCA07220000000000900000000015000000000000000014000000000795109350890
00004556940520154004510/935-1507LD010WALNUT CRKCA0722WALNUT CRKCA07220000000000900000000015000000000000000017000000000795109350893
00004556940520154142510/935-1507LD010WALNUT CRKCA0722WALNUT CRKCA07220000000000900000000015000000000000000017000000000795109350943
00004556940520154243510/935-1507LD010WALNUT CRKCA0722WALNUT CRKCA07220000000000900000000015000000000000000017000000000795109351215
00004557940520035612401/766-2000LD010WOONSOCKETRI0130WOONSOCKETRI01300000000000900000000015000000000000000017000000000794017662190
00004557940520035638401/766-2000LD010WOONSOCKETRI0130WOONSOCKETRI01300000000000900000000015000000000000000019000000000794017662224
00004557940520035705401/766-2000LD010WOONSOCKETRI0130WOONSOCKETRI01300000000000900000000015000000000000000017000000000794017662226
00004557940520035537401/766-2000LD010WOONSOCKETRI0130WOONSOCKETRI01300000000000900000000015000000000000000017000000000794017662010
00004557940520035733401/766-2000LD010WOONSOCKETRI0130WOONSOCKETRI01300000000000900000000015000000000000000017000000000794017662897
00004706940519191734501/623-3576LD010HOTSPRINGSAR0528HOTSPRINGSAR05280000000000000000000005000000000000000019000000135165016233576
00004706940520001020501/623-3576LD010HOTSPRINGSAR0528HOTSPRINGSAR05280000000000000000000005000000000000000019000000135165016233576
00004706940520145244501/623-3576LD010HOTSPRINGSAR0528HOTSPRINGSAR05280000000000000000000005000000000000000019000000135165016233576
00004706940520050159501/623-3576LD010HOTSPRINGSAR0528HOTSPRINGSAR05280000000000000000000005000000000000000019000000135165016233576
00004722940520031808916/241-4820LD010REDDING   CA0724REDDING   CA07240000000000900000000015000000000000000039000000000799162415568
00004722940520031909916/241-4820LD010REDDING   CA0724REDDING   CA07240000000000900000000015000000000000000014000000000799162415750
00004722940520031404916/241-4820LD010REDDING   CA0724REDDING   CA07240000000000900000000015000000000000000014000000000799162414993
00004722940520031338916/241-4820LD010REDDING   CA0724REDDING   CA07240000000000900000000015000000000000000017000000000799162414822
00004722940520031429916/241-4820LD010REDDING   CA0724REDDING   CA07240000000000900000000015000000000000000014000000000799162415196
00004722940520031631916/241-4820LD010REDDING   CA0724REDDING   CA07240000000000900000000015000000000000000036000000000799162415399
00004722940520031706916/241-4820LD010REDDING   CA0724REDDING   CA07240000000000900000000015000000000000000014000000000799162415497
00004722940520031556916/241-4820LD010REDDING   CA0724REDDING   CA07240000000000900000000015000000000000000039000000000799162415394
00004722940520031530916/241-4820LD010REDDING   CA0724REDDING   CA07240000000000900000000015000000000000000014000000000799162415299
00004722940520031455916/241-4820LD010REDDING   CA0724REDDING   CA07240000000000900000000015000000000000000039000000000799162415298
00004722940520031732916/241-4820LD010REDDING   CA0724REDDING   CA07240000000000900000000015000000000000000014000000000799162415499
00004722940520031843916/241-4820LD010REDDING   CA0724REDDING   CA07240000000000900000000015000000000000000014000000000799162415699
00004725940520104658304/325-0517LI010BLUEFIELD WV0932BLUEFIELD WV09320000000000900000000015000000000000000019000000135163043250517
00004725940520154050304/325-0517LI010BLUEFIELD WV0932BLUEFIELD WV09320000000000900000000015000000000000000019000000135163043250517
00004725940520005851304/325-6708LI010BLUEFIELD WV0932BLUEFIELD WV09320000000000900000000015000000000000000019000000135163043250517
00004725940520055025304/325-6708LI010BLUEFIELD WV0932BLUEFIELD WV09320000000000900000000015000000000000000019000000135163043250517
00004725940519200540304/325-6708LI010BLUEFIELD WV0932BLUEFIELD WV09320000000000900000000015000000000000000019000000135163043250517
00004747940520062136312/922-6571LD017CHICAGO   IL0358CHICAGO   IL03580000000000900000000015000000000000000017000000135163129224601
00004747940520023635312/922-6571LD017CHICAGO   IL0358CHICAGO   IL03580000000000900000000015000000000000000014000000000793129220204
00004747940520062638312/922-6571LD017CHICAGO   IL0358LAKEFORESTIL03580000000000900000000015000000000000000017000000135167082957075
00004747940520013516312/922-6571LD017CHICAGO   IL0358LAKEFORESTIL03580000000000900000000015000000000000000019000000135167082957075
00004747940520062457312/922-6571LD017CHICAGO   IL0358GLEN ELLYNIL03580000000000900000000015000000000000000017000000135167087904955
00004747940520013335312/922-6571LD017CHICAGO   IL0358GLEN ELLYNIL03580000000000900000000015000000000000000019000000135167087904955
00004747940520013018312/922-6571LD017CHICAGO   IL0358CHICAGO   IL03580000000000900000000015000000000000000017000000135163129224601
00004747940520111847312/922-6571LD017CHICAGO   IL0358CHICAGO   IL03580000000000900000000015000000000000000017000000135163129224601
00004747940520161302312/922-6571LD017CHICAGO   IL0358CHICAGO   IL03580000000000900000000015000000000000000017000000135163129224601
00004747940519203752312/922-6571LD017CHICAGO   IL0358CHICAGO   IL03580000000000900000000015000000000000000017000000135163129224601
00004747940519204213312/922-6571LD017CHICAGO   IL0358LAKEFORESTIL03580000000000900000000015000000000000000017000000135167082957075
00004747940520161804312/922-6571LD017CHICAGO   IL0358LAKEFORESTIL03580000000000900000000015000000000000000019000000135167082957075
00004747940520112311312/922-6571LD017CHICAGO   IL0358LAKEFORESTIL03580000000000900000000015000000000000000017000000135167082957075
00004747940520053210312/922-6571LD017CHICAGO   IL0358BENSENVL  IL03580000000003300000000043000000000000005094000000642987086160799
00004747940520001733312/922-6571LD017CHICAGO   IL0358BENSENVL  IL03580000000002800000000037000000000000004144000000642987086160799
00004747940520061743312/922-6571LD017CHICAGO   IL0358BENSENVL  IL03580000000006000000000074000000000000010139000000642987086160799
00004747940520075108312/922-6571LD017CHICAGO   IL0358BENSENVL  IL03580000000001100000000018000000000000001131000000642987086160799
00004747940520013206312/922-6571LD017CHICAGO   IL0358BENSENVL  IL03580000000021600000000253000000000000039039000000642987086160799
00004747940520112131312/922-6571LD017CHICAGO   IL0358GLEN ELLYNIL03580000000000900000000015000000000000000017000000135167087904955
00004747940520161622312/922-6571LD017CHICAGO   IL0358GLEN ELLYNIL03580000000000900000000015000000000000000017000000135167087904955
00004747940519204031312/922-6571LD017CHICAGO   IL0358GLEN ELLYNIL03580000000000900000000015000000000000000019000000135167087904955
00004751940520025700701/280-0210LD010FARGO     ND0636FARGO     ND06360000000000000000000005000000000000000019000000135167012800210
00004751940519220327701/280-0210LD010FARGO     ND0636FARGO     ND06360000000000000000000005000000000000000019000000135167012800210
00004751940520124513701/280-0210LD010FARGO     ND0636FARGO     ND06360000000000000000000005000000000000000028000000135167012800210
00004751940520173848701/280-0210LD010FARGO     ND0636FARGO     ND06360000000000000000000005000000000000000019000000135167012800210
00004751940520074842701/280-0210LD010FARGO     ND0636FARGO     ND06360000000000000000000005000000000000000022000000135167012800210
00004770940520032219414/235-7473LD010OSHKOSH   WI0350OSHKOSH   WI03500000000000900000000015000000000000000017000000000794142357154
00004770940520031955414/235-7473LD010OSHKOSH   WI0350OSHKOSH   WI03500000000000900000000015000000000000000017000000000794142355297
00004770940520031921414/235-7473LD010OSHKOSH   WI0350OSHKOSH   WI03500000000000900000000015000000000000000017000000000794142354356
00004770940520032407414/235-7473LD010OSHKOSH   WI0350OSHKOSH   WI03500000000000900000000015000000000000000017000000000794142357491
00004770940520032030414/235-7473LD010OSHKOSH   WI0350OSHKOSH   WI03500000000000900000000015000000000000000019000000000794142356621
00004770940520032143414/235-7473LD010OSHKOSH   WI0350OSHKOSH   WI03500000000000900000000015000000000000000019000000000794142356947
00004770940520032255414/235-7473LD010OSHKOSH   WI0350OSHKOSH   WI03500000000000900000000015000000000000000017000000000794142357253
00004770940520032332414/235-7473LD010OSHKOSH   WI0350OSHKOSH   WI03500000000000900000000015000000000000000017000000000794142357402
00004770940520032108414/235-7473LD010OSHKOSH   WI0350OSHKOSH   WI03500000000000900000000015000000000000000017000000000794142356819
00005006940520062530815/727-4716LD010JOLIET    IL0358GENEVA    IL03580000000000900000000015000000000000000025000000135167082327111
00005006940520112200815/727-4716LD010JOLIET    IL0358GENEVA    IL03580000000000900000000015000000000000000019000000135167082327111
00005006940520013404815/727-4716LD010JOLIET    IL0358GENEVA    IL03580000000000900000000015000000000000000028000000135167082327111
00005006940519204106815/727-4716LD010JOLIET    IL0358GENEVA    IL03580000000000900000000015000000000000000017000000135167082327111
00005006940520161655815/727-4716LD010JOLIET    IL0358GENEVA    IL03580000000000900000000015000000000000000028000000135167082327111
00005006940520012837815/727-4716LD010JOLIET    IL0358KANKAKEE  IL03580000000000900000000015000000000000000019000000135168159352352
00005006940520111705815/727-4716LD010JOLIET    IL0358KANKAKEE  IL03580000000000900000000015000000000000000019000000135168159352352
00005006940520061951815/727-4716LD010JOLIET    IL0358KANKAKEE  IL03580000000000900000000015000000000000000019000000135168159352352
00005006940519203609815/727-4716LD010JOLIET    IL0358KANKAKEE  IL03580000000000900000000015000000000000000019000000135168159352352
00005006940520161118815/727-4716LD010JOLIET    IL0358KANKAKEE  IL03580000000000900000000015000000000000000019000000135168159352352
00005014940519211825304/485-4070LD010PARKERSBG WV0254PARKERSBG WV02540000000000900000000015000000000000000017000000000793044853172
00005014940519212018304/485-4070LD010PARKERSBG WV0254PARKERSBG WV02540000000000900000000015000000000000000019000000000793044855079
00005014940519211949304/485-4070LD010PARKERSBG WV0254PARKERSBG WV02540000000000900000000015000000000000000017000000000793044855078
00005014940519211853304/485-4070LD010PARKERSBG WV0254PARKERSBG WV02540000000000900000000015000000000000000017000000000793044853180
00005014940519212115304/485-4070LD010PARKERSBG WV0254PARKERSBG WV02540000000000900000000015000000000000000017000000000793044855081
00005014940519212047304/485-4070LD010PARKERSBG WV0254PARKERSBG WV02540000000000900000000015000000000000000017000000000793044855080
00005014940519211920304/485-4070LD010PARKERSBG WV0254PARKERSBG WV02540000000000900000000015000000000000000017000000000793044855077
00005014940519212320304/485-4070LD010PARKERSBG WV0254PARKERSBG WV02540000000000900000000015000000000000000019000000000793044855091
00005014940519212143304/485-4070LD010PARKERSBG WV0254PARKERSBG WV02540000000000900000000015000000000000000019000000000793044855082
00005014940519212212304/485-4070LD010PARKERSBG WV0254PARKERSBG WV02540000000000900000000015000000000000000017000000000793044855083
00005043940519210946904/721-8559LD010JACKSONVL FL0452JACKSONVL FL04520000000000000000000005000000000000000019000000135169047218559
00005043940520020351904/721-8559LD010JACKSONVL FL0452JACKSONVL FL04520000000000000000000005000000000000000017000000135169047218559
00005100940520115242513/530-9021LI010CINCINNATIOH0922CINCINNATIOH09220000000000000000000005000000000000001656000000604985136847280
00005100940519233837513/530-9021LI010CINCINNATIOH0922HAMILTON  OH09220000000000000000000005000000000000000019000000135165138741744
00005100940520141949513/530-9021LI010CINCINNATIOH0922HAMILTON  OH09220000000000000000000005000000000000000019000000135165138741744
00005100940520092314513/530-9021LI010CINCINNATIOH0922HAMILTON  OH09220000000000000000000005000000000000000019000000135165138741744
00005100940520043147513/530-9021LI010CINCINNATIOH0922HAMILTON  OH09220000000000000000000005000000000000000019000000135165138741744
00005123940519212558203/865-5770LI010NEW HAVEN CT0920NEW HAVEN CT09200000000000000000000005000000000000000017000000000792036246301
00005123940519212412203/865-5770LI010NEW HAVEN CT0920NEW HAVEN CT09200000000000000000000005000000000000000017000000000792036241351
00005123940519212520203/865-5770LI010NEW HAVEN CT0920NEW HAVEN CT09200000000000000000000005000000000000000017000000000792037891319
00005123940519225439203/865-5770LI010NEW HAVEN CT0920GUILFORD  CT09200000000000000000000005000000000000000150000000689142034571246
00005123940520084230203/865-5770LI010NEW HAVEN CT0920GUILFORD  CT09200000000000000000000005000000000000000025000000689142034571246
00005123940519212624203/865-5770LI010NEW HAVEN CT0920NEW HAVEN CT09200000000000000000000005000000000000000017000000000792036247308
00005123940519212440203/865-5770LI010NEW HAVEN CT0920NEW HAVEN CT09200000000000000000000005000000000000000017000000000792037890254
00005163940520093950706/369-0165LD010ATHENS    GA0438ATHENS    GA04380000000000000000000005000000000000000175000000000797062082917
00005163940520093618706/369-0165LD010ATHENS    GA0438ATHENS    GA04380000000000000000000005000000000000000017000000000797062082911
00005163940520093753706/369-0165LD010ATHENS    GA0438ATHENS    GA04380000000000000000000005000000000000000019000000000797062082915
00005163940520093545706/369-0165LD010ATHENS    GA0438ATHENS    GA04380000000000000000000005000000000000000019000000000797062082910
00005163940520093650706/369-0165LD010ATHENS    GA0438ATHENS    GA04380000000000000000000005000000000000000019000000000797062082912
00005163940520093410706/369-0165LD010ATHENS    GA0438ATHENS    GA04380000000000000000000005000000000000000019000000000797062082907
