00002026940522172828515/753-0670LD010MARSHALLTNIA0632MARSHALLTNIA06320000000000000000000005000000000000000019000000000795157529529
00002026940522172758515/753-0670LD010MARSHALLTNIA0632MARSHALLTNIA06320000000000000000000005000000000000000019000000000795157530674
00002026940522165730515/753-0670LD010MARSHALLTNIA0632MARSHALLTNIA06320000000000000000000005000000000000000019000000135165157530670
00002026940522071008515/753-0670LD010MARSHALLTNIA0632MARSHALLTNIA06320000000000000000000005000000000000000019000000135165157530670
00002026940522021558515/753-0670LD010MARSHALLTNIA0632MARSHALLTNIA06320000000000000000000005000000000000000019000000135165157530670
00002026940521211851515/753-0670LD010MARSHALLTNIA0632MARSHALLTNIA06320000000000000000000005000000000000000019000000135165157530670
00002026940522120158515/753-0670LD010MARSHALLTNIA0632MARSHALLTNIA06320000000000000000000005000000000000000019000000135165157530670
00002033940521210034205/543-3550LD010GADSDEN   AL0476GADSDEN   AL04760000000000000000000005000000000000000019000000000792055496110
00002033940521210426205/543-3550LD010GADSDEN   AL0476GADSDEN   AL04760000000000000000000005000000000000000019000000000792055496126
00002033940521210111205/543-3550LD010GADSDEN   AL0476GADSDEN   AL04760000000000000000000005000000000000000017000000000792055496118
00002033940522005634205/543-3550LD010GADSDEN   AL0476GADSDEN   AL04760000000000000000000005000000000000000019000000135162055433550
00002033940522154035205/543-3550LD010GADSDEN   AL0476GADSDEN   AL04760000000000000000000005000000000000000019000000135162055433550
00002033940521200136205/543-3550LD010GADSDEN   AL0476GADSDEN   AL04760000000000000000000005000000000000000022000000135162055433550
00002033940522104646205/543-3550LD010GADSDEN   AL0476GADSDEN   AL04760000000000000000000005000000000000000025000000135162055433550
00002033940522055002205/543-3550LD010GADSDEN   AL0476GADSDEN   AL04760000000000000000000005000000000000000025000000135162055433550
00002033940521210231205/543-3550LD010GADSDEN   AL0476GADSDEN   AL04760000000000000000000005000000000000000017000000000792055496121
00002033940521210205205/543-3550LD010GADSDEN   AL0476GADSDEN   AL04760000000000000000000005000000000000000017000000000792055496120
00002033940521210523205/543-3550LD010GADSDEN   AL0476GADSDEN   AL04760000000000000000000005000000000000000017000000000792055496128
00002033940521210349205/543-3550LD010GADSDEN   AL0476GADSDEN   AL04760000000000000000000005000000000000000017000000000792055496125
00002033940521210642205/543-3550LD010GADSDEN   AL0476GADSDEN   AL04760000000000000000000005000000000000000019000000000792055496131
00002033940521210323205/543-3550LD010GADSDEN   AL0476GADSDEN   AL04760000000000000000000005000000000000000019000000000792055496123
00002033940521210257205/543-3550LD010GADSDEN   AL0476GADSDEN   AL04760000000000000000000005000000000000000017000000000792055496122
00002033940521210549205/543-3550LD010GADSDEN   AL0476GADSDEN   AL04760000000000000000000005000000000000000019000000000792055496129
00002033940521210616205/543-3550LD010GADSDEN   AL0476GADSDEN   AL04760000000000000000000005000000000000000017000000000792055496130
00002033940521205957205/543-3550LD010GADSDEN   AL0476GADSDEN   AL04760000000000000000000005000000000000000017000000000792055496109
00002033940521210138205/543-3550LD010GADSDEN   AL0476GADSDEN   AL04760000000000000000000005000000000000000017000000000792055496119
00002033940521210456205/543-3550LD010GADSDEN   AL0476GADSDEN   AL04760000000000000000000005000000000000000017000000000792055496127
00002045940522050849518/458-9724LD010ALBANY    NY0134ALBANY    NY01340000000000900000000015000000000000000022000000135165184589724
00002045940522050918518/458-9724LD010ALBANY    NY0134ALBANY    NY01340000000000900000000015000000000000000019000000135165184588300
00002045940522145710518/458-9724LD010ALBANY    NY0134ALBANY    NY01340000000000900000000015000000000000000017000000135165184589724
00002045940522145738518/458-9724LD010ALBANY    NY0134ALBANY    NY01340000000000900000000015000000000000000019000000135165184588300
00002045940522100308518/458-9724LD010ALBANY    NY0134ALBANY    NY01340000000000900000000015000000000000000019000000135165184588300
00002045940522100238518/458-9724LD010ALBANY    NY0134ALBANY    NY01340000000000900000000015000000000000000025000000135165184589724
00002045940522001222518/458-9724LD010ALBANY    NY0134ALBANY    NY01340000000000900000000015000000000000000019000000135165184588300
00002045940522001151518/458-9724LD010ALBANY    NY0134ALBANY    NY01340000000000900000000015000000000000000025000000135165184589724
00002045940521192020518/458-9724LD010ALBANY    NY0134ALBANY    NY01340000000000900000000015000000000000000019000000135165184588300
00002045940521191952518/458-9724LD010ALBANY    NY0134ALBANY    NY01340000000000900000000015000000000000000019000000135165184589724
00002057940521183700615/453-0401LD010SEVIERVL  TN0474SEVIERVL  TN04740000000000000000000005000000000000000014000000000796154530885
00002057940521184111615/453-0401LD010SEVIERVL  TN0474SEVIERVL  TN04740000000000000000000005000000000000000017000000000796154539352
00002057940521184045615/453-0401LD010SEVIERVL  TN0474SEVIERVL  TN04740000000000000000000005000000000000000017000000000796154539606
00002057940521183824615/453-0401LD010SEVIERVL  TN0474SEVIERVL  TN04740000000000000000000005000000000000000019000000000796154537921
00002057940521183729615/453-0401LD010SEVIERVL  TN0474SEVIERVL  TN04740000000000000000000005000000000000000017000000000796154530888
00002057940521184017615/453-0401LD010SEVIERVL  TN0474SEVIERVL  TN04740000000000000000000005000000000000000017000000000796154539645
00002057940521183851615/453-0401LD010SEVIERVL  TN0474SEVIERVL  TN04740000000000000000000005000000000000000017000000000796154538426
00002057940521183758615/453-0401LD010SEVIERVL  TN0474SEVIERVL  TN04740000000000000000000005000000000000000017000000000796154530983
00002057940521183948615/453-0401LD010SEVIERVL  TN0474SEVIERVL  TN04740000000000000000000005000000000000000017000000000796154537811
00002057940521183920615/453-0401LD010SEVIERVL  TN0474SEVIERVL  TN04740000000000000000000005000000000000000017000000000796154536659
00002057940521190833615/453-0401LD010SEVIERVL  TN0474KNOXVILLE TN04740000000000000000000005000000000000000019000000135166156940156
00002057940522095347615/453-0401LD010SEVIERVL  TN0474KNOXVILLE TN04740000000000000000000005000000000000000019000000135166156940156
00002057940522144551615/453-0401LD010SEVIERVL  TN0474KNOXVILLE TN04740000000000000000000005000000000000000019000000135166156940156
00002057940522045825615/453-0401LD010SEVIERVL  TN0474KNOXVILLE TN04740000000000000000000005000000000000000019000000135166156940156
00002057940522000303615/453-0401LD010SEVIERVL  TN0474KNOXVILLE TN04740000000000000000000005000000000000000022000000135166156940156
00002071940522030537505/525-3401LD010LAS CRUCESNM0664LAS CRUCESNM06640000000000000000000005000000000000000017000000135165055253401
00002071940522125358505/525-3401LD010LAS CRUCESNM0664LAS CRUCESNM06640000000000000000000005000000000000000019000000135165055253401
00002071940522075927505/525-3401LD010LAS CRUCESNM0664LAS CRUCESNM06640000000000000000000005000000000000000019000000135165055253401
00002071940521220838505/525-3401LD010LAS CRUCESNM0664LAS CRUCESNM06640000000000000000000005000000000000000017000000135165055253401
00002071940521171704505/525-3401LD010LAS CRUCESNM0664LAS CRUCESNM06640000000000000000000005000000000000000019000000135165055253401
00002071940522164415505/525-3401LD010LAS CRUCESNM0664LAS CRUCESNM06640000000000000000000005000000000000000014000000000795055253411
00002071940522164506505/525-3401LD010LAS CRUCESNM0664LAS CRUCESNM06640000000000000000000005000000000000000039000000000795055253415
00002071940522164608505/525-3401LD010LAS CRUCESNM0664LAS CRUCESNM06640000000000000000000005000000000000000017000000000795055253437
00002071940522164440505/525-3401LD010LAS CRUCESNM0664LAS CRUCESNM06640000000000000000000005000000000000000017000000000795055253414
00002071940522164700505/525-3401LD010LAS CRUCESNM0664LAS CRUCESNM06640000000000000000000005000000000000000039000000000795055259713
00002071940522164540505/525-3401LD010LAS CRUCESNM0664LAS CRUCESNM06640000000000000000000005000000000000000014000000000795055253416
00002071940522164735505/525-3401LD010LAS CRUCESNM0664LAS CRUCESNM06640000000000000000000005000000000000000017000000000795055259670
00002071940522164634505/525-3401LD010LAS CRUCESNM0664LAS CRUCESNM06640000000000000000000005000000000000000014000000000795055253444
00002074940521193027503/343-0044LD010EUGENE    OR0670EUGENE    OR06700000000000000000000005000000000000000017000000000795033436890
00002074940521193333503/343-0044LD010EUGENE    OR0670EUGENE    OR06700000000000000000000005000000000000000017000000000795033437106
00002074940521193307503/343-0044LD010EUGENE    OR0670EUGENE    OR06700000000000000000000005000000000000000017000000000795033437045
00002074940521193359503/343-0044LD010EUGENE    OR0670EUGENE    OR06700000000000000000000005000000000000000017000000000795033437135
00002074940521193148503/343-0044LD010EUGENE    OR0670EUGENE    OR06700000000000000000000005000000000000000017000000000795033437025
00002074940521193214503/343-0044LD010EUGENE    OR0670EUGENE    OR06700000000000000000000005000000000000000017000000000795033437028
00002074940521192854503/343-0044LD010EUGENE    OR0670EUGENE    OR06700000000000000000000005000000000000000039000000000795033438364
00002074940521192819503/343-0044LD010EUGENE    OR0670EUGENE    OR06700000000000000000000005000000000000000039000000000795033438243
00002074940521193426503/343-0044LD010EUGENE    OR0670EUGENE    OR06700000000000000000000005000000000000000019000000000795033437189
00002074940521193518503/343-0044LD010EUGENE    OR0670EUGENE    OR06700000000000000000000005000000000000000017000000000795033437468
00002074940521193452503/343-0044LD010EUGENE    OR0670EUGENE    OR06700000000000000000000005000000000000000017000000000795033437253
00002074940521193055503/343-0044LD010EUGENE    OR0670EUGENE    OR06700000000000000000000005000000000000000014000000000795033436898
00002074940521192744503/343-0044LD010EUGENE    OR0670EUGENE    OR06700000000000000000000005000000000000000039000000000795033437441
00002074940521193122503/343-0044LD010EUGENE    OR0670EUGENE    OR06700000000000000000000005000000000000000014000000000795033436959
00002074940521193240503/343-0044LD010EUGENE    OR0670EUGENE    OR06700000000000000000000005000000000000000017000000000795033437035
00002074940521192934503/343-0044LD010EUGENE    OR0670EUGENE    OR06700000000000000000000005000000000000000017000000000795034651018
00002074940521193000503/343-0044LD010EUGENE    OR0670EUGENE    OR06700000000000000000000005000000000000000017000000000795034651024
00002113940522062046904/360-1110LI010LEESBURG  FL0454LEESBURG  FL04540000000000000000000005000000000000000017000000000799043600214
00002113940522062114904/360-1110LI010LEESBURG  FL0454LEESBURG  FL04540000000000000000000005000000000000000017000000000799043600301
00002124940522112550509/248-1462LD010YAKIMA    WA0676YAKIMA    WA06760000000000000000000005000000000000000017000000000795094524371
00002124940522112516509/248-1462LD010YAKIMA    WA0676YAKIMA    WA06760000000000000000000005000000000000000017000000000795094523968
00002124940522112442509/248-1462LD010YAKIMA    WA0676YAKIMA    WA06760000000000000000000005000000000000000017000000000795094523916
00002124940522112058509/248-1462LD010YAKIMA    WA0676YAKIMA    WA06760000000000000000000005000000000000000017000000000795094531623
00002124940522111948509/248-1462LD010YAKIMA    WA0676YAKIMA    WA06760000000000000000000005000000000000000017000000000795094530905
00002124940522111912509/248-1462LD010YAKIMA    WA0676YAKIMA    WA06760000000000000000000005000000000000000017000000000795094530688
00002124940522112022509/248-1462LD010YAKIMA    WA0676YAKIMA    WA06760000000000000000000005000000000000000017000000000795094531155
00002124940522112212509/248-1462LD010YAKIMA    WA0676YAKIMA    WA06760000000000000000000005000000000000000017000000000795094576599
00002124940522112136509/248-1462LD010YAKIMA    WA0676YAKIMA    WA06760000000000000000000005000000000000000017000000000795094576034
00002124940522112332509/248-1462LD010YAKIMA    WA0676YAKIMA    WA06760000000000000000000005000000000000000017000000000795094576697
00002124940522112254509/248-1462LD010YAKIMA    WA0676YAKIMA    WA06760000000000000000000005000000000000000017000000000795094576624
00002124940522112408509/248-1462LD010YAKIMA    WA0676YAKIMA    WA06760000000000000000000005000000000000000017000000000795094576847
00002134940522102031704/932-4131LD010KANNAPOLISNC0422KANNAPOLISNC04220000000000000000000005000000000000000019000000000797049324768
00002134940522101839704/932-4131LD010KANNAPOLISNC0422KANNAPOLISNC04220000000000000000000005000000000000000019000000000797049324753
00002134940522101800704/932-4131LD010KANNAPOLISNC0422KANNAPOLISNC04220000000000000000000005000000000000000019000000000797049324609
00002134940522101400704/932-4131LD010KANNAPOLISNC0422KANNAPOLISNC04220000000000000000000005000000000000000019000000000797049322792
00002134940522101508704/932-4131LD010KANNAPOLISNC0422KANNAPOLISNC04220000000000000000000005000000000000000172000000000797049324592
00002155940522141927812/332-0544LD010BLOOMINGTNIN0338BLOOMINGTNIN03380000000000000000000005000000000000000894000000190288128559656
00002155940522140437812/332-0544LD010BLOOMINGTNIN0338BLOOMINGTNIN03380000000000000000000005000000000000001847000000190288128559656
00002235940522011724206/281-7141LD011SEATTLE   WA0674SEATTLE   WA06740000000000000000000005000000000000000014000000000792062810457
00002235940522011935206/281-7141LD011SEATTLE   WA0674SEATTLE   WA06740000000000000000000005000000000000000017000000000792062815025
00002235940522012147206/281-7141LD011SEATTLE   WA0674SEATTLE   WA06740000000000000000000005000000000000000064000000000792062819576
00002235940522012103206/281-7141LD011SEATTLE   WA0674SEATTLE   WA06740000000000000000000005000000000000000039000000000792062819571
00002235940522011648206/281-7141LD011SEATTLE   WA0674SEATTLE   WA06740000000000000000000005000000000000000017000000000792062810245
00002235940522050142206/281-7141LD011SEATTLE   WA0674SEATTLE   WA06740000000000000000000005000000000000000017000000000792062850951
00002235940522045902206/281-7141LD011SEATTLE   WA0674SEATTLE   WA06740000000000000000000005000000000000000017000000000792062850852
00002235940522045938206/281-7141LD011SEATTLE   WA0674SEATTLE   WA06740000000000000000000005000000000000000017000000000792062850870
00002235940522050106206/281-7141LD011SEATTLE   WA0674SEATTLE   WA06740000000000000000000005000000000000000017000000000792062850940
00002243940521204322915/658-4590LI010SAN ANGELOTX0961SAN ANGELOTX09610000000000000000000005000000000000000014000000000799156538455
00002243940521204359915/658-4590LI010SAN ANGELOTX0961SAN ANGELOTX09610000000000000000000005000000000000000039000000000799156539107
00002243940521204544915/658-4590LI010SAN ANGELOTX0961SAN ANGELOTX09610000000000000000000005000000000000000017000000000799156539431
00002243940521204501915/658-4590LI010SAN ANGELOTX0961SAN ANGELOTX09610000000000000000000005000000000000000022000000000799156539326
00002243940521204209915/658-4590LI010SAN ANGELOTX0961SAN ANGELOTX09610000000000000000000005000000000000000017000000000799156535361
00002243940521204245915/658-4590LI010SAN ANGELOTX0961SAN ANGELOTX09610000000000000000000005000000000000000017000000000799156535662
00002243940521204921915/658-4590LI010SAN ANGELOTX0961SAN ANGELOTX09610000000000000000000005000000000000000039000000000799156550718
00002243940521204750915/658-4590LI010SAN ANGELOTX0961SAN ANGELOTX09610000000000000000000005000000000000000169000000000799156550572
00002243940521204026915/658-4590LI010SAN ANGELOTX0961SAN ANGELOTX09610000000000000000000005000000000000000017000000000799156553059
00002243940521204101915/658-4590LI010SAN ANGELOTX0961SAN ANGELOTX09610000000000000000000005000000000000000039000000000799156587865
00002243940521203610915/658-4590LI010SAN ANGELOTX0961SAN ANGELOTX09610000000000000000000005000000000000000017000000000799156535100
00002243940521203747915/658-4590LI010SAN ANGELOTX0961SAN ANGELOTX09610000000000000000000005000000000000000017000000000799156538497
00002243940521203644915/658-4590LI010SAN ANGELOTX0961SAN ANGELOTX09610000000000000000000005000000000000000017000000000799156550837
00002243940521203854915/658-4590LI010SAN ANGELOTX0961SAN ANGELOTX09610000000000000000000005000000000000000169000000000799156550363
00002243940521203715915/658-4590LI010SAN ANGELOTX0961SAN ANGELOTX09610000000000000000000005000000000000000017000000000799156587452
00002261940522112427802/862-1000LD010BURLINGTONVT0124BURLINGTONVT01240000000000900000000015000000000000000019000000135168028621000
00002261940522013445802/862-1000LD010BURLINGTONVT0124BURLINGTONVT01240000000000900000000015000000000000000019000000135168028621000
00002261940522161749802/862-1000LD010BURLINGTONVT0124BURLINGTONVT01240000000000900000000015000000000000000019000000135168028621000
00002261940521203831802/862-1000LD010BURLINGTONVT0124BURLINGTONVT01240000000000900000000015000000000000000019000000135168028621000
00002261940522062809802/862-1000LD010BURLINGTONVT0124BURLINGTONVT01240000000000900000000015000000000000000025000000135168028621000
00002301940522103412715/833-0121LD010EAU CLAIREWI0352EAU CLAIREWI03520000000000900000000015000000000000000019000000135167158330121
00002301940522053752715/833-0121LD010EAU CLAIREWI0352EAU CLAIREWI03520000000000900000000015000000000000000019000000135167158330121
00002301940522004417715/833-0121LD010EAU CLAIREWI0352EAU CLAIREWI03520000000000900000000015000000000000000019000000135167158330121
00002301940521194808715/833-0121LD010EAU CLAIREWI0352EAU CLAIREWI03520000000000900000000015000000000000000017000000135167158330121
00002301940522152734715/833-0121LD010EAU CLAIREWI0352EAU CLAIREWI03520000000000900000000015000000000000000025000000135167158330121
00002326940522005010904/673-0034LD010DAYTONABCHFL0456DAYTONABCHFL04560000000000000000000005000000000000000017000000000799046731319
00002326940522005104904/673-0034LD010DAYTONABCHFL0456DAYTONABCHFL04560000000000000000000005000000000000000017000000000799046734125
0000232694052200535290-0034LD010DAYTONABCHFL0456DAYTONABCHFL04560000000000000000000005000000000000000017000000000799046736944
00002326940522005324904/673-0034LD010DAYTONABCHFL0456DAYTONABCHFL04560000000000000000000005000000000000000017000000000799046732331
00002326940522005240904/673-0034LD010DAYTONABCHFL0456DAYTONABCHFL04560000000000000000000005000000000000000064000000000799046731066
00002326940522005037904/673-0034LD010DAYTONABCHFL0456DAYTONABCHFL04560000000000000000000005000000000000000017000000000799046732485
00002326940522005544904/673-0034LD010DAYTONABCHFL0456DAYTONABCHFL04560000000000000000000005000000000000000017000000000799046737887
00002326940522005516904/673-0034LD010DAYTONABCHFL0456DAYTONABCHFL04560000000000000000000005000000000000000014000000000799046737381
00002326940522005611904/673-0034LD010DAYTONABCHFL0456DAYTONABCHFL04560000000000000000000005000000000000000017000000000799046737714
00002331940522011851206/281-7141LD011SEATTLE   WA0674SEATTLE   WA06740000000000000000000005000000000000000017000000000792062814909
00002347940521185330303/241-1643LD010GRAND JCT CO0656GRAND JCT CO06560000000000000000000005000000000000000019000000000793032414167
00002347940521185358303/241-1643LD010GRAND JCT CO0656GRAND JCT CO06560000000000000000000005000000000000000017000000000793032416733
00002347940521185428303/241-1643LD010GRAND JCT CO0656GRAND JCT CO06560000000000000000000005000000000000000019000000000793032417024
00002367940522130102217/344-3400LD010CHAMPNURBNIL0370CHAMPNURBNIL03700000000000900000000015000000000000000131000000689142173988745
00002367940521230935217/344-3400LD010CHAMPNURBNIL0370CHAMPNURBNIL03700000000004800000000060000000000000007992000000689142173988745
00002367940522025818217/344-3400LD010CHAMPNURBNIL0370CHAMPNURBNIL03700000000000900000000015000000000000000442000000689142173988745
00002367940521190458217/344-3400LD010CHAMPNURBNIL0370CHAMPNURBNIL03700000000006500000000080000000000000010972000000689142173988745
00002367940521212729217/344-3400LD010CHAMPNURBNIL0370DANVILLE  IL03700000000000900000000015000000000000000019000000135162174421452
00002367940522022402217/344-3400LD010CHAMPNURBNIL0370DANVILLE  IL03700000000000900000000015000000000000000019000000135162174421452
00002367940522120956217/344-3400LD010CHAMPNURBNIL0370DANVILLE  IL03700000000000900000000015000000000000000017000000135162174421452
00002402940521194625601/582-0286LD010HATTIESBG MS0482HATTIESBG MS04820000000000000000000005000000000000000017000000000796015455670
00002402940521194554601/582-0286LD010HATTIESBG MS0482HATTIESBG MS04820000000000000000000005000000000000000017000000000796015455666
00002402940521194524601/582-0286LD010HATTIESBG MS0482HATTIESBG MS04820000000000000000000005000000000000000019000000000796015455662
00002402940521194654601/582-0286LD010HATTIESBG MS0482HATTIESBG MS04820000000000000000000005000000000000000019000000000796015455675
00002402940521194454601/582-0286LD010HATTIESBG MS0482HATTIESBG MS04820000000000000000000005000000000000000017000000000796015824624
00002402940521194425601/582-0286LD010HATTIESBG MS0482HATTIESBG MS04820000000000000000000005000000000000000017000000000796015823739
00002402940521194239601/582-0286LD010HATTIESBG MS0482HATTIESBG MS04820000000000000000000005000000000000000064000000000796015820291
00002402940521194354601/582-0286LD010HATTIESBG MS0482HATTIESBG MS04820000000000000000000005000000000000000019000000000796015823405
00002402940521194325601/582-0286LD010HATTIESBG MS0482HATTIESBG MS04820000000000000000000005000000000000000017000000000796015820295
00002435940522153640804/229-6786LD010WILLIAMSBGVA0252WILLIAMSBGVA02520000000000000000000005000000000000000022000000000798042203528
00002435940522153533804/229-6786LD010WILLIAMSBGVA0252WILLIAMSBGVA02520000000000000000000005000000000000000019000000000798042202670
00002435940522153505804/229-6786LD010WILLIAMSBGVA0252WILLIAMSBGVA02520000000000000000000005000000000000000017000000000798042202051
00002435940522153600804/229-6786LD010WILLIAMSBGVA0252WILLIAMSBGVA02520000000000000000000005000000000000000019000000000798042203254
00002435940522153410804/229-6786LD010WILLIAMSBGVA0252WILLIAMSBGVA02520000000000000000000005000000000000000017000000000798042201302
00002435940522153316804/229-6786LD010WILLIAMSBGVA0252WILLIAMSBGVA02520000000000000000000005000000000000000017000000000798042295132
00002435940522153437804/229-6786LD010WILLIAMSBGVA0252WILLIAMSBGVA02520000000000000000000005000000000000000019000000000798042292617
00002435940522153342804/229-6786LD010WILLIAMSBGVA0252WILLIAMSBGVA02520000000000000000000005000000000000000019000000000798042295147
00002443940521181026818/841-4795LD010BURBANK   CA0730ALHAMBRA  CA07300000000000900000000015000000000000000019000000135168183081800
00002443940522085527818/841-4795LD010BURBANK   CA0730ALHAMBRA  CA07300000000000900000000015000000000000000019000000135168183081800
00002443940521181405818/841-4795LD010BURBANK   CA0730VAN NUYS  CA07300000000000900000000015000000000000000017000000135168187899002
00002443940522134938818/841-4795LD010BURBANK   CA0730ALHAMBRA  CA07300000000000900000000015000000000000000017000000135168183081800
00002443940521230543818/841-4795LD010BURBANK   CA0730ALHAMBRA  CA07300000000000900000000015000000000000000019000000135168183081800
00002443940522035921818/841-4795LD010BURBANK   CA0730ALHAMBRA  CA07300000000000900000000015000000000000000019000000135168183081800
00002443940522085908818/841-4795LD010BURBANK   CA0730VAN NUYS  CA07300000000000900000000015000000000000000019000000135168187899002
00002443940522040331818/841-4795LD010BURBANK   CA0730VAN NUYS  CA07300000000000900000000015000000000000000017000000135168187899002
00002443940521230953818/841-4795LD010BURBANK   CA0730VAN NUYS  CA07300000000000900000000015000000000000000017000000135168187899002
00002443940522135352818/841-4795LD010BURBANK   CA0730VAN NUYS  CA07300000000000900000000015000000000000000019000000135168187899002
00002443940522035431818/841-4795LD010BURBANK   CA0730BURBANK   CA07300000000000900000000015000000000000000014000000000798188416840
00002443940522035403818/841-4795LD010BURBANK   CA0730BURBANK   CA07300000000000900000000015000000000000000017000000000798188414835
00002443940522035307818/841-4795LD010BURBANK   CA0730BURBANK   CA07300000000000900000000015000000000000000019000000000798188414797
00002443940522035337818/841-4795LD010BURBANK   CA0730BURBANK   CA07300000000000900000000015000000000000000017000000000798188414830
00002443940522035527818/841-4795LD010BURBANK   CA0730BURBANK   CA07300000000000900000000015000000000000000014000000000798188419701
00002443940522035459818/841-4795LD010BURBANK   CA0730BURBANK   CA07300000000000900000000015000000000000000017000000000798188419658
00002443940522035553818/841-4795LD010BURBANK   CA0730BURBANK   CA07300000000000900000000015000000000000000017000000000798188416202
00002443940521174630818/841-4795LD010BURBANK   CA0730BURBANK   CA07300000000007500000000091000000000000012969000000689148188426900
00002443940522084501818/841-4795LD010BURBANK   CA0730BURBANK   CA07300000000001700000000025000000000000002144000000689148188426900
00002501940522054427205/272-3411LD010MONTGOMERYAL0478MONTGOMERYAL04780000000000000000000005000000000000000017000000000792052132119
00002501940522054451205/272-3411LD010MONTGOMERYAL0478MONTGOMERYAL04780000000000000000000005000000000000000019000000000792052132124
00002501940522054350205/272-3411LD010MONTGOMERYAL0478MONTGOMERYAL04780000000000000000000005000000000000000017000000000792052132104
00002501940522054609205/272-3411LD010MONTGOMERYAL0478MONTGOMERYAL04780000000000000000000005000000000000000019000000000792052132140
00002501940522054635205/272-3411LD010MONTGOMERYAL0478MONTGOMERYAL04780000000000000000000005000000000000000019000000000792052132148
00002517940522141546615/889-5790LD010NASHVILLE TN0470NASHVILLE TN04700000000000000000000005000000000000000169000000000796158853508
00002557940521202718903/581-8652LD010TYLER     TX0554TYLER     TX05540000000000000000000005000000000000000014000000000799035811438
00002557940521202754903/581-8652LD010TYLER     TX0554TYLER     TX05540000000000000000000005000000000000000017000000000799035811622
00002557940521203047903/581-8652LD010TYLER     TX0554TYLER     TX05540000000000000000000005000000000000000017000000000799035815703
00002557940521202942903/581-8652LD010TYLER     TX0554TYLER     TX05540000000000000000000005000000000000000017000000000799035815605
00002557940521202820903/581-8652LD010TYLER     TX0554TYLER     TX05540000000000000000000005000000000000000017000000000799035811733
00002557940521202915903/581-8652LD010TYLER     TX0554TYLER     TX05540000000000000000000005000000000000000017000000000799035812418
00002557940521202642903/581-8652LD010TYLER     TX0554TYLER     TX05540000000000000000000005000000000000000017000000000799035811312
00002557940521202617903/581-8652LD010TYLER     TX0554TYLER     TX05540000000000000000000005000000000000000017000000000799035817429
00002557940521203115903/581-8652LD010TYLER     TX0554TYLER     TX05540000000000000000000005000000000000000017000000000799035816030
00002557940521202846903/581-8652LD010TYLER     TX0554TYLER     TX05540000000000000000000005000000000000000017000000000799035812346
00002557940521203013903/581-8652LD010TYLER     TX0554TYLER     TX05540000000000000000000005000000000000000017000000000799035815702
00002666940522152731517/788-9191LD010JACKSON   MI0346JACKSON   MI03460000000000900000000015000000000000000019000000000795177889198
00002666940522152702517/788-9191LD010JACKSON   MI0346JACKSON   MI03460000000000900000000015000000000000000017000000000795177889195
00002666940522152800517/788-9191LD010JACKSON   MI0346JACKSON   MI03460000000000900000000015000000000000000019000000000795177888646
00002666940522152829517/788-9191LD010JACKSON   MI0346JACKSON   MI03460000000000900000000015000000000000000017000000000795177886752
00002666940522153120517/788-9191LD010JACKSON   MI0346JACKSON   MI03460000000000900000000015000000000000000017000000000795177882625
00002666940522152955517/788-9191LD010JACKSON   MI0346JACKSON   MI03460000000000900000000015000000000000000017000000000795177888116
00002666940522152927517/788-9191LD010JACKSON   MI0346JACKSON   MI03460000000000900000000015000000000000000017000000000795177887889
00002666940522152857517/788-9191LD010JACKSON   MI0346JACKSON   MI03460000000000900000000015000000000000000019000000000795177887463
00002666940522153023517/788-9191LD010JACKSON   MI0346JACKSON   MI03460000000000900000000015000000000000000017000000000795177889176
00002666940522153052517/788-9191LD010JACKSON   MI0346JACKSON   MI03460000000000900000000015000000000000000017000000000795177889190
00002666940522153217517/788-9191LD010JACKSON   MI0346JACKSON   MI03460000000000900000000015000000000000000064000000000795177883566
00002666940522153149517/788-9191LD010JACKSON   MI0346JACKSON   MI03460000000000900000000015000000000000000017000000000795177885995
00002674940522132430601/841-0090LD010TUPELO    MS0482TUPELO    MS04820000000000000000000005000000000000000025000000135166018410090
00002674940521223732601/841-0090LD010TUPELO    MS0482TUPELO    MS04820000000000000000000005000000000000000019000000135166018410090
00002674940522082901601/841-0090LD010TUPELO    MS0482TUPELO    MS04820000000000000000000005000000000000000019000000135166018410090
00002674940522033557601/841-0090LD010TUPELO    MS0482TUPELO    MS04820000000000000000000005000000000000000019000000135166018410090
00002711940522135222615/378-5746LI010KINGSPORT TN0956KINGSPORT TN09560000000000000000000005000000000000000031000000000796153784532
00002711940522135144615/378-5746LI010KINGSPORT TN0956KINGSPORT TN09560000000000000000000005000000000000000019000000000796153785893
00002743940521232119601/355-9741LD010JACKSON   MS0482JACKSON   MS04820000000000000000000005000000000000000017000000000796013559768
00002743940521232345601/355-9741LD010JACKSON   MS0482JACKSON   MS04820000000000000000000005000000000000000017000000000796013521136
00002743940521232415601/355-9741LD010JACKSON   MS0482JACKSON   MS04820000000000000000000005000000000000000017000000000796013559780
00002743940521232040601/355-9741LD010JACKSON   MS0482JACKSON   MS04820000000000000000000005000000000000000017000000000796013559767
00002760940522071315412/658-5056LD010NEW CASTLEPA0234NEW CASTLEPA02340000000000900000000015000000000000000019000000000794126585064
00002760940522071555412/658-5056LD010NEW CASTLEPA0234NEW CASTLEPA02340000000000900000000015000000000000000019000000000794126585755
00002760940522071423412/658-5056LD010NEW CASTLEPA0234NEW CASTLEPA02340000000000900000000015000000000000000169000000000794126582346
00002760940522071226412/658-5056LD010NEW CASTLEPA0234NEW CASTLEPA02340000000000900000000015000000000000000019000000000794126585063
00002771940521230525605/224-7700LD010PIERRE    SD0640PIERRE    SD06400000000000000000000005000000000000000019000000000796052240138
00002771940521230339605/224-7700LD010PIERRE    SD0640PIERRE    SD06400000000000000000000005000000000000000017000000000796052247746
00002771940521231012605/224-7700LD010PIERRE    SD0640PIERRE    SD06400000000000000000000005000000000000000019000000000796052240842
00002771940521230941605/224-7700LD010PIERRE    SD0640PIERRE    SD06400000000000000000000005000000000000000019000000000796052240827
00002771940521230437605/224-7700LD010PIERRE    SD0640PIERRE    SD06400000000000000000000005000000000000000017000000000796052247312
00002771940521230409605/224-7700LD010PIERRE    SD0640PIERRE    SD06400000000000000000000005000000000000000017000000000796052247273
00002771940521230720605/224-7700LD010PIERRE    SD0640PIERRE    SD06400000000000000000000005000000000000000019000000000796052240732
00002771940521230748605/224-7700LD010PIERRE    SD0640PIERRE    SD06400000000000000000000005000000000000000019000000000796052240779
00002771940521230817605/224-7700LD010PIERRE    SD0640PIERRE    SD06400000000000000000000005000000000000000017000000000796052240789
00002771940521230844605/224-7700LD010PIERRE    SD0640PIERRE    SD06400000000000000000000005000000000000000019000000000796052240791
00002771940521230556605/224-7700LD010PIERRE    SD0640PIERRE    SD06400000000000000000000005000000000000000019000000000796052240357
00002771940521230653605/224-7700LD010PIERRE    SD0640PIERRE    SD06400000000000000000000005000000000000000017000000000796052240731
00002771940521230625605/224-7700LD010PIERRE    SD0640PIERRE    SD06400000000000000000000005000000000000000017000000000796052240705
00002771940521230913605/224-7700LD010PIERRE    SD0640PIERRE    SD06400000000000000000000005000000000000000017000000000796052240810
00003040940521215436912/923-7590LD010WARNERRBNSGA0446WARNERRBNSGA04460000000000000000000005000000000000000019000000000799123285035
00003040940522080345912/923-7590LD010WARNERRBNSGA0446WARNERRBNSGA04460000000000000000000005000000000000000019000000135169129237590
00003040940521221235912/923-7590LD010WARNERRBNSGA0446WARNERRBNSGA04460000000000000000000005000000000000000008000000135169129237590
00003040940522175100912/923-7590LD010WARNERRBNSGA0446WARNERRBNSGA04460000000000000000000005000000000000000022000000135169129237590
00003040940522125531912/923-7590LD010WARNERRBNSGA0446WARNERRBNSGA04460000000000000000000005000000000000000019000000135169129237590
00003154940522140640502/223-0724LD010FRANKFORT KY0462FRANKFORT KY04620000000000000000000005000000000000000022000000000795022232668
00003154940522140833502/223-0724LD010FRANKFORT KY0462FRANKFORT KY04620000000000000000000005000000000000000019000000000795022232296
00003154940522141153502/223-0724LD010FRANKFORT KY0462FRANKFORT KY04620000000000000000000005000000000000000019000000000795022238214
00003154940522141126502/223-0724LD010FRANKFORT KY0462FRANKFORT KY04620000000000000000000005000000000000000017000000000795022237896
00003154940522140709502/223-0724LD010FRANKFORT KY0462FRANKFORT KY04620000000000000000000005000000000000000019000000000795022232684
00003154940522140806502/223-0724LD010FRANKFORT KY0462FRANKFORT KY04620000000000000000000005000000000000000019000000000795022230572
00003154940522140738502/223-0724LD010FRANKFORT KY0462FRANKFORT KY04620000000000000000000005000000000000000019000000000795022238665
00003154940522141027502/223-0724LD010FRANKFORT KY0462FRANKFORT KY04620000000000000000000005000000000000000019000000000795022233495
00003154940522141054502/223-0724LD010FRANKFORT KY0462FRANKFORT KY04620000000000000000000005000000000000000019000000000795022237851
00003154940522140552502/223-0724LD010FRANKFORT KY0462FRANKFORT KY04620000000000000000000005000000000000000022000000000795022230985
00003154940522140959502/223-0724LD010FRANKFORT KY0462FRANKFORT KY04620000000000000000000005000000000000000019000000000795022233332
00003154940522140904502/223-0724LD010FRANKFORT KY0462FRANKFORT KY04620000000000000000000005000000000000000017000000000795022232867
00003154940522140933502/223-0724LD010FRANKFORT KY0462FRANKFORT KY04620000000000000000000005000000000000000019000000000795022233270
00003254940522084614402/393-1305LD010OMAHA     NE0644OMAHA     NE06440000000000000000000005000000000000000019000000135164023931305
00003254940522065325402/393-1305LD010OMAHA     NE0644OMAHA     NE06440000000000000000000005000000000000000017000000000794023930975
00003254940522065535402/393-1305LD010OMAHA     NE0644OMAHA     NE06440000000000000000000005000000000000000017000000000794023931303
00003254940522065258402/393-1305LD010OMAHA     NE0644OMAHA     NE06440000000000000000000005000000000000000019000000000794023930961
00003311940522030826706/327-0597LD010COLUMBUS  GA0438COLUMBUS  GA04380000000000000000000005000000000000000019000000135167063270597
00003311940522125502706/327-0597LD010COLUMBUS  GA0438COLUMBUS  GA04380000000000000000000005000000000000000019000000135167063270597
00003311940522175030706/327-0597LD010COLUMBUS  GA0438COLUMBUS  GA04380000000000000000000005000000000000000019000000135167063270597
00003311940521221205706/327-0597LD010COLUMBUS  GA0438COLUMBUS  GA04380000000000000000000005000000000000000019000000135167063270597
00003311940522080315706/327-0597LD010COLUMBUS  GA0438COLUMBUS  GA04380000000000000000000005000000000000000019000000135167063270597
00003344940522005857810/743-8350LD010FLINT     MI0340FLINT     MI03400000000000900000000015000000000000000017000000000798107439184
00003344940522005830810/743-8350LD010FLINT     MI0340FLINT     MI03400000000000900000000015000000000000000014000000000798107439057
00003344940522005924810/743-8350LD010FLINT     MI0340FLINT     MI03400000000000900000000015000000000000000017000000000798107439270
00003344940522010400810/743-8350LD010FLINT     MI0340FLINT     MI03400000000000900000000015000000000000000019000000000798107439355
00003344940522010145810/743-8350LD010FLINT     MI0340FLINT     MI03400000000000900000000015000000000000000017000000000798107439308
00003344940522010212810/743-8350LD010FLINT     MI0340FLINT     MI03400000000000900000000015000000000000000017000000000798107439314
00003344940522010428810/743-8350LD010FLINT     MI0340FLINT     MI03400000000000900000000015000000000000000014000000000798107434538
00003362940521184811303/832-3447LD010DENVER    CO0656DENVER    CO06560000000000000000000005000000000000000019000000000793038309214
00003362940521185225303/832-3447LD010DENVER    CO0656DENVER    CO06560000000000000000000005000000000000000019000000000793038309254
00003362940521185049303/832-3447LD010DENVER    CO0656DENVER    CO06560000000000000000000005000000000000000061000000000793038309244
00003362940521184931303/832-3447LD010DENVER    CO0656DENVER    CO06560000000000000000000005000000000000000019000000000793038309232
00003362940521185023303/832-3447LD010DENVER    CO0656DENVER    CO06560000000000000000000005000000000000000019000000000793038309240
00003362940521184905303/832-3447LD010DENVER    CO0656DENVER    CO06560000000000000000000005000000000000000019000000000793038309222
00003362940521184957303/832-3447LD010DENVER    CO0656DENVER    CO06560000000000000000000005000000000000000019000000000793038309236
00003362940521194248303/832-3447LD010DENVER    CO0656DENVER    CO06560000000000000000000005000000000000000019000000135163038323447
00003362940522102807303/832-3447LD010DENVER    CO0656DENVER    CO06560000000000000000000005000000000000000019000000135163038323447
00003362940522053338303/832-3447LD010DENVER    CO0656DENVER    CO06560000000000000000000005000000000000000019000000135163038323447
00003362940522115654303/832-3447LD010DENVER    CO0656LITTLETON CO06560000000000000000000005000000000000000747000000636613039734222
00003362940522115004303/832-3447LD010DENVER    CO0656LITTLETON CO06560000000000000000000005000000000000000236000000636613039734222
00003362940522075856303/832-3447LD010DENVER    CO0656LITTLETON CO06560000000000000000000005000000000000000414000000636613039734222
00003377940522154420914/473-0401LD010POUGHKEPSENY0133POUGHKEPSENY01330000000000900000000015000000000000000017000000000799144732633
00003377940522154447914/473-0401LD010POUGHKEPSENY0133POUGHKEPSENY01330000000000900000000015000000000000000017000000000799144732846
00003377940522154300914/473-0401LD010POUGHKEPSENY0133POUGHKEPSENY01330000000000900000000015000000000000000019000000000799144732355
00003377940522154327914/473-0401LD010POUGHKEPSENY0133POUGHKEPSENY01330000000000900000000015000000000000000017000000000799144732436
00003377940522154139914/473-0401LD010POUGHKEPSENY0133POUGHKEPSENY01330000000000900000000015000000000000000017000000000799144730527
00003377940522154234914/473-0401LD010POUGHKEPSENY0133POUGHKEPSENY01330000000000900000000015000000000000000017000000000799144730577
00003377940522154112914/473-0401LD010POUGHKEPSENY0133POUGHKEPSENY01330000000000900000000015000000000000000017000000000799144730418
00003377940522154205914/473-0401LD010POUGHKEPSENY0133POUGHKEPSENY01330000000000900000000015000000000000000019000000000799144730535
00003377940522154045914/473-0401LD010POUGHKEPSENY0133POUGHKEPSENY01330000000000900000000015000000000000000017000000000799144730407
00003377940522153948914/473-0401LD010POUGHKEPSENY0133POUGHKEPSENY01330000000000900000000015000000000000000017000000000799144730403
00003377940522154016914/473-0401LD010POUGHKEPSENY0133POUGHKEPSENY01330000000000900000000015000000000000000019000000000799144730406
00003377940522154514914/473-0401LD010POUGHKEPSENY0133POUGHKEPSENY01330000000000900000000015000000000000000017000000000799144730420
00003377940522154353914/473-0401LD010POUGHKEPSENY0133POUGHKEPSENY01330000000000900000000015000000000000000017000000000799144732547
00003412940521211240408/754-2206LD010SALINAS   CA0736SALINAS   CA07360000000000900000000015000000000000000017000000000794087542206
00003447940522041025509/747-3011LD010SPOKANE   WA0676SPOKANE   WA06760000000000000000000005000000000000000014000000000795097477616
00003447940522132318509/747-3011LD010SPOKANE   WA0676SPOKANE   WA06760000000000000000000005000000000000000017000000135165096241549
00003447940521174406509/747-3011LD010SPOKANE   WA0676SPOKANE   WA06760000000000000000000005000000000000000019000000135165096241549
00003447940522033334509/747-3011LD010SPOKANE   WA0676SPOKANE   WA06760000000000000000000005000000000000000017000000135165096241549
00003447940522033308509/747-3011LD010SPOKANE   WA0676SPOKANE   WA06760000000000000000000005000000000000000017000000135165097473011
00003447940521174342509/747-3011LD010SPOKANE   WA0676SPOKANE   WA06760000000000000000000005000000000000000019000000135165097473011
00003447940522132252509/747-3011LD010SPOKANE   WA0676SPOKANE   WA06760000000000000000000005000000000000000019000000135165097473011
00003447940521223925509/747-3011LD010SPOKANE   WA0676SPOKANE   WA06760000000000000000000005000000000000000017000000135165097473011
00003447940522082935509/747-3011LD010SPOKANE   WA0676SPOKANE   WA06760000000000000000000005000000000000000019000000135165097473011
00003447940522041051509/747-3011LD010SPOKANE   WA0676SPOKANE   WA06760000000000000000000005000000000000000014000000000795097478570
00003447940522040510509/747-3011LD010SPOKANE   WA0676SPOKANE   WA06760000000000000000000005000000000000000039000000000795097473013
00003447940522040804509/747-3011LD010SPOKANE   WA0676SPOKANE   WA06760000000000000000000005000000000000000017000000000795097473802
00003447940522040831509/747-3011LD010SPOKANE   WA0676SPOKANE   WA06760000000000000000000005000000000000000014000000000795097475732
00003461940522051808515/277-9684LD010DES MOINESIA0632DES MOINESIA06320000000000000000000005000000000000000017000000000795152778261
00003461940522051740515/277-9684LD010DES MOINESIA0632DES MOINESIA06320000000000000000000005000000000000000019000000000795152770723
00003461940522051840515/277-9684LD010DES MOINESIA0632DES MOINESIA06320000000000000000000005000000000000000019000000000795152779946
00003547940522042948405/242-0113LD010ENID      OK0536ENID      OK05360000000000000000000005000000000000000017000000135164052420113
00003547940521183951405/242-0113LD010ENID      OK0536ENID      OK05360000000000000000000005000000000000000025000000135164052420113
00003547940522092350405/242-0113LD010ENID      OK0536ENID      OK05360000000000000000000005000000000000000017000000135164052420113
00003547940521233308405/242-0113LD010ENID      OK0536ENID      OK05360000000000000000000005000000000000000019000000135164052420113
00003547940522141726405/242-0113LD010ENID      OK0536ENID      OK05360000000000000000000005000000000000000025000000135164052420113
00003547940522161348405/242-0113LD010ENID      OK0536ENID      OK05360000000000000000000005000000000000000014000000000794052420116
00003547940522161605405/242-0113LD010ENID      OK0536ENID      OK05360000000000000000000005000000000000000039000000000794052420139
00003547940522161639405/242-0113LD010ENID      OK0536ENID      OK05360000000000000000000005000000000000000014000000000794052420147
00003547940522161439405/242-0113LD010ENID      OK0536ENID      OK05360000000000000000000005000000000000000014000000000794052420127
00003547940522161530405/242-0113LD010ENID      OK0536ENID      OK05360000000000000000000005000000000000000039000000000794052420137
00003547940522161504405/242-0113LD010ENID      OK0536ENID      OK05360000000000000000000005000000000000000017000000000794052420135
00003547940522161414405/242-0113LD010ENID      OK0536ENID      OK05360000000000000000000005000000000000000014000000000794052420115
00003606940522152621407/471-9310LD010W PALM BCHFL0460W PALM BCHFL04600000000000000000000005000000000000000014000000000794074719310
00003625940521215041814/234-3853LD010STATECOLLGPA0230STATECOLLGPA02300000000001100000000018000000000000001239000000661688142371193
00003625940522095422814/234-3853LD010STATECOLLGPA0230STATECOLLGPA02300000000001100000000018000000000000001167000000661688142371193
00003625940522020206814/234-3853LD010STATECOLLGPA0230STATECOLLGPA02300000000001300000000020000000000000001517000000661688142371193
00003625940522044608814/234-3853LD010STATECOLLGPA0230STATECOLLGPA02300000000002000000000028000000000000002892000000661688142371193
00003625940521203041814/234-3853LD010STATECOLLGPA0230STATECOLLGPA02300000000001700000000025000000000000002133000000661688142371193
00003625940522145803814/234-3853LD010STATECOLLGPA0230STATECOLLGPA02300000000001500000000022000000000000001750000000661688142371193
00003625940522134900814/234-3853LD010STATECOLLGPA0230STATECOLLGPA02300000000000900000000015000000000000000183000000661688142371193
00003625940522093304814/234-3853LD010STATECOLLGPA0230STATECOLLGPA02300000000001100000000018000000000000001078000000661688142371193
00003625940522080133814/234-3853LD010STATECOLLGPA0230STATECOLLGPA02300000000000900000000015000000000000000575000000661688142371193
00003625940521205756814/234-3853LD010STATECOLLGPA0230STATECOLLGPA02300000000001300000000020000000000000001456000000661688142371193
00003625940522032801814/234-3853LD010STATECOLLGPA0230STATECOLLGPA02300000000001200000000019000000000000001286000000661688142371193
00003625940522021617814/234-3853LD010STATECOLLGPA0230STATECOLLGPA02300000000000900000000015000000000000000497000000645538142371193
00003650940522071659312/922-6571LD017CHICAGO   IL0358CHICAGO   IL03580000000000900000000015000000000000000017000000135163129224601
00003650940522072118312/922-6571LD017CHICAGO   IL0358LAKEFORESTIL03580000000000900000000015000000000000000019000000135167082957075
00003652940522095744609/394-1900LD010TRENTON   NJ0222TRENTON   NJ02220000000000900000000015000000000000000022000000135166093941900
00003652940522000654609/394-1900LD010TRENTON   NJ0222TRENTON   NJ02220000000000900000000015000000000000000022000000135166093941900
00003652940521191518609/394-1900LD010TRENTON   NJ0222TRENTON   NJ02220000000000900000000015000000000000000019000000135166093941900
00003652940522050351609/394-1900LD010TRENTON   NJ0222TRENTON   NJ02220000000000900000000015000000000000000019000000135166093941900
00003652940522145215609/394-1900LD010TRENTON   NJ0222TRENTON   NJ02220000000000900000000015000000000000000019000000135166093941900
00003652940522021603609/394-1900LD010TRENTON   NJ0222TRENTON   NJ02220000000000900000000015000000000000000017000000000796093941900
00003654940521212535810/424-8024LD010SOUTHFIELDMI0340SOUTHFIELDMI03400000000000900000000015000000000000000019000000000798104248024
00003654940522091410810/424-8024LD010SOUTHFIELDMI0340ROSEVILLE MI03400000000000900000000015000000000000000019000000135168107741000
00003654940522042130810/424-8024LD010SOUTHFIELDMI0340ROSEVILLE MI03400000000000900000000015000000000000000017000000135168107741000
00003654940522141004810/424-8024LD010SOUTHFIELDMI0340ROSEVILLE MI03400000000000900000000015000000000000000019000000135168107741000
00003654940521232319810/424-8024LD010SOUTHFIELDMI0340ROSEVILLE MI03400000000000900000000015000000000000000017000000135168107741000
00003654940521231616810/424-8024LD010SOUTHFIELDMI0340DETROIT   MI03400000000000900000000015000000000000000019000000135163139633460
00003654940522041541810/424-8024LD010SOUTHFIELDMI0340DETROIT   MI03400000000000900000000015000000000000000019000000135163139633460
00003654940522140413810/424-8024LD010SOUTHFIELDMI0340DETROIT   MI03400000000000900000000015000000000000000019000000135163139633460
00003654940522090817810/424-8024LD010SOUTHFIELDMI0340DETROIT   MI03400000000000900000000015000000000000000025000000135163139633460
00003654940522185645810/424-8024LD010SOUTHFIELDMI0340DETROIT   MI03400000000000900000000015000000000000000019000000135163139633460
00003661940522020500304/345-9575LD010CHARLESTONWV0254CHARLESTONWV02540000000000900000000015000000000000000017000000000793043459596
00003661940522020405304/345-9575LD010CHARLESTONWV0254CHARLESTONWV02540000000000900000000015000000000000000017000000000793043459593
00003661940522020623304/345-9575LD010CHARLESTONWV0254CHARLESTONWV02540000000000900000000015000000000000000017000000000793043459615
00003661940522020528304/345-9575LD010CHARLESTONWV0254CHARLESTONWV02540000000000900000000015000000000000000017000000000793043459607
00003661940522020556304/345-9575LD010CHARLESTONWV0254CHARLESTONWV02540000000000900000000015000000000000000017000000000793043459608
00003661940522020337304/345-9575LD010CHARLESTONWV0254CHARLESTONWV02540000000000900000000015000000000000000017000000000793043459542
00003661940522020310304/345-9575LD010CHARLESTONWV0254CHARLESTONWV02540000000000900000000015000000000000000017000000000793043459535
00003661940522020432304/345-9575LD010CHARLESTONWV0254CHARLESTONWV02540000000000900000000015000000000000000017000000000793043459594
00003661940522020243304/345-9575LD010CHARLESTONWV0254CHARLESTONWV02540000000000900000000015000000000000000017000000000793043459532
00003661940522020216304/345-9575LD010CHARLESTONWV0254CHARLESTONWV02540000000000900000000015000000000000000017000000000793043459580
00003677940522044816417/781-8718LD010JOPLIN    MO0522JOPLIN    MO05220000000000000000000005000000000000000017000000000794176230648
00003677940522044842417/781-8718LD010JOPLIN    MO0522JOPLIN    MO05220000000000000000000005000000000000000017000000000794176230723
00003677940522044912417/781-8718LD010JOPLIN    MO0522JOPLIN    MO05220000000000000000000005000000000000000017000000000794176230728
00003677940522045007417/781-8718LD010JOPLIN    MO0522JOPLIN    MO05220000000000000000000005000000000000000019000000000794176230736
00003677940522045033417/781-8718LD010JOPLIN    MO0522JOPLIN    MO05220000000000000000000005000000000000000019000000000794176230743
00003677940522044940417/781-8718LD010JOPLIN    MO0522JOPLIN    MO05220000000000000000000005000000000000000017000000000794176230730
00003677940522044722417/781-8718LD010JOPLIN    MO0522JOPLIN    MO05220000000000000000000005000000000000000017000000000794177819715
00003677940522082305417/781-8718LD010JOPLIN    MO0522JOPLIN    MO05220000000000000000000005000000000000000019000000135164177818718
00003677940522033005417/781-8718LD010JOPLIN    MO0522JOPLIN    MO05220000000000000000000005000000000000000019000000135164177818718
00003677940521223143417/781-8718LD010JOPLIN    MO0522JOPLIN    MO05220000000000000000000005000000000000000019000000135164177818718
00003677940522131836417/781-8718LD010JOPLIN    MO0522JOPLIN    MO05220000000000000000000005000000000000000019000000135164177818718
00003677940522044750417/781-8718LD010JOPLIN    MO0522JOPLIN    MO05220000000000000000000005000000000000000017000000000794177810742
00003720940522185918919/765-1221LD010WINSTN SALNC0424WINSTN SALNC04240000000000000000000005000000000000000017000000000799196592019
00003720940522185821919/765-1221LD010WINSTN SALNC0424WINSTN SALNC04240000000000000000000005000000000000000017000000000799196592015
00003720940522185946919/765-1221LD010WINSTN SALNC0424WINSTN SALNC04240000000000000000000005000000000000000017000000000799196592027
00003720940522185753919/765-1221LD010WINSTN SALNC0424WINSTN SALNC04240000000000000000000005000000000000000017000000000799196592008
00003720940522185850919/765-1221LD010WINSTN SALNC0424WINSTN SALNC04240000000000000000000005000000000000000017000000000799196592017
00003774940521174305206/452-6800LD010PT ANGELESWA0674PT ANGELESWA06740000000000000000000005000000000000000017000000135162064526800
00003774940522132211206/452-6800LD010PT ANGELESWA0674PT ANGELESWA06740000000000000000000005000000000000000025000000135162064526800
00003774940521223846206/452-6800LD010PT ANGELESWA0674PT ANGELESWA06740000000000000000000005000000000000000017000000135162064526800
00003774940522082858206/452-6800LD010PT ANGELESWA0674PT ANGELESWA06740000000000000000000005000000000000000019000000135162064526800
00003774940522033222206/452-6800LD010PT ANGELESWA0674PT ANGELESWA06740000000000000000000005000000000000000025000000135162064526800
00003774940522081822206/452-6800LD010PT ANGELESWA0674PT ANGELESWA06740000000000000000000005000000000000000017000000000792064526810
00003774940522081946206/452-6800LD010PT ANGELESWA0674PT ANGELESWA06740000000000000000000005000000000000000017000000000792064529298
00003774940522082015206/452-6800LD010PT ANGELESWA0674PT ANGELESWA06740000000000000000000005000000000000000017000000000792064529398
00003774940522081919206/452-6800LD010PT ANGELESWA0674PT ANGELESWA06740000000000000000000005000000000000000014000000000792064529198
00003774940522081848206/452-6800LD010PT ANGELESWA0674PT ANGELESWA06740000000000000000000005000000000000000017000000000792064526842
00004107940522090259209/442-4328LD010FRESNO    CA0728FRESNO    CA07280000000000900000000015000000000000000017000000000792094424392
00004107940522090233209/442-4328LD010FRESNO    CA0728FRESNO    CA07280000000000900000000015000000000000000014000000000792094424389
00004107940522090207209/442-4328LD010FRESNO    CA0728FRESNO    CA07280000000000900000000015000000000000000014000000000792094424384
00004107940522090050209/442-4328LD010FRESNO    CA0728FRESNO    CA07280000000000900000000015000000000000000017000000000792094424332
00004107940522090141209/442-4328LD010FRESNO    CA0728FRESNO    CA07280000000000900000000015000000000000000014000000000792094424346
00004107940522090116209/442-4328LD010FRESNO    CA0728FRESNO    CA07280000000000900000000015000000000000000017000000000792094424337
00004154940522054346805/985-7843LI010OXNARD    CA0730OXNARD    CA07300000000000900000000015000000000000000017000000000798059847808
00004154940522054439805/985-7843LI010OXNARD    CA0730OXNARD    CA07300000000000900000000015000000000000000017000000000798053821087
00004154940522054534805/985-7843LI010OXNARD    CA0730OXNARD    CA07300000000000900000000015000000000000000017000000000798059840170
00004154940522054413805/985-7843LI010OXNARD    CA0730OXNARD    CA07300000000000900000000015000000000000000014000000000798059847917
00004154940522054236805/985-7843LI010OXNARD    CA0730OXNARD    CA07300000000000900000000015000000000000000014000000000798059852830
00004154940522140916805/985-7843LI010OXNARD    CA0730OXNARD    CA07300000000000900000000015000000000000000019000000135168059857843
00004154940521182904805/985-7843LI010OXNARD    CA0730OXNARD    CA07300000000000900000000015000000000000000019000000135168059857843
00004154940521232513805/985-7843LI010OXNARD    CA0730OXNARD    CA07300000000000900000000015000000000000000019000000135168059857843
00004154940522041917805/985-7843LI010OXNARD    CA0730OXNARD    CA07300000000000900000000015000000000000000019000000135168059857843
00004154940522091425805/985-7843LI010OXNARD    CA0730OXNARD    CA07300000000000900000000015000000000000000017000000135168059857843
00004154940522054304805/985-7843LI010OXNARD    CA0730OXNARD    CA07300000000000900000000015000000000000000014000000000798059853509
00004154940522054507805/985-7843LI010OXNARD    CA0730OXNARD    CA07300000000000900000000015000000000000000017000000000798059856868
00004154940522054209805/985-7843LI010OXNARD    CA0730OXNARD    CA07300000000000900000000015000000000000000014000000000798059852157
00004166940522092503707/645-1090LD010VALLEJO   CA0722VALLEJO   CA07220000000000900000000015000000000000000022000000135167076451090
00004166940522043027707/645-1090LD010VALLEJO   CA0722VALLEJO   CA07220000000000900000000015000000000000000019000000135167076451090
00004166940521233608707/645-1090LD010VALLEJO   CA0722VALLEJO   CA07220000000000900000000015000000000000000017000000135167076451090
00004166940522142007707/645-1090LD010VALLEJO   CA0722VALLEJO   CA07220000000000900000000015000000000000000022000000135167076451090
00004166940521183943707/645-1090LD010VALLEJO   CA0722VALLEJO   CA07220000000000900000000015000000000000000019000000135167076451090
00004166940521171153707/645-1090LD010VALLEJO   CA0722VALLEJO   CA07220000000000900000000015000000000000000039000000000797076451189
00004166940521171253707/645-1090LD010VALLEJO   CA0722VALLEJO   CA07220000000000900000000015000000000000000014000000000797076451197
00004166940521171318707/645-1090LD010VALLEJO   CA0722VALLEJO   CA07220000000000900000000015000000000000000017000000000797076451285
00004166940521171227707/645-1090LD010VALLEJO   CA0722VALLEJO   CA07220000000000900000000015000000000000000014000000000797076451192
00004166940521171343707/645-1090LD010VALLEJO   CA0722VALLEJO   CA07220000000000900000000015000000000000000017000000000797076451378
00004166940521171521707/645-1090LD010VALLEJO   CA0722VALLEJO   CA07220000000000900000000015000000000000000036000000000797076451389
00004166940521171716707/645-1090LD010VALLEJO   CA0722VALLEJO   CA07220000000000900000000015000000000000000014000000000797076451483
00004166940521171421707/645-1090LD010VALLEJO   CA0722VALLEJO   CA07220000000000900000000015000000000000000017000000000797076451385
00004166940521171554707/645-1090LD010VALLEJO   CA0722VALLEJO   CA07220000000000900000000015000000000000000064000000000797076451392
00004166940521171649707/645-1090LD010VALLEJO   CA0722VALLEJO   CA07220000000000900000000015000000000000000017000000000797076451398
00004166940521171447707/645-1090LD010VALLEJO   CA0722VALLEJO   CA07220000000000900000000015000000000000000036000000000797076451388
00004220940521221949207/775-5971LD010PORTLAND  ME0120PORTLAND  ME01200000000000000000000005000000000000000019000000000792077755971
00004263940522071148909/860-0057LI010DIAMONDBARCA0730DIAMONDBARCA07300000000000900000000015000000000000000014000000000799093968979
00004263940522071111909/860-0057LI010DIAMONDBARCA0730DIAMONDBARCA07300000000000900000000015000000000000000014000000000799093968389
00004263940522070844909/860-0057LI010DIAMONDBARCA0730DIAMONDBARCA07300000000000900000000015000000000000000014000000000799093968734
00004263940522070809909/860-0057LI010DIAMONDBARCA0730DIAMONDBARCA07300000000000900000000015000000000000000036000000000799093960522
00004263940522071034909/860-0057LI010DIAMONDBARCA0730DIAMONDBARCA07300000000000900000000015000000000000000039000000000799098607668
00004271940522123728714/379-1728LI010WESTMINSTRCA0730WESTMINSTRCA07300000000000900000000015000000000000000017000000000797143791730
00004271940522041149714/379-1728LI010WESTMINSTRCA0730WESTMINSTRCA07300000000000900000000015000000000000000075000000135167143791728
00004271940521182217714/379-1728LI010WESTMINSTRCA0730WESTMINSTRCA07300000000000900000000015000000000000000075000000135167143791728
00004271940522090723714/379-1728LI010WESTMINSTRCA0730WESTMINSTRCA07300000000000900000000015000000000000000075000000135167143791728
00004271940522140206714/379-1728LI010WESTMINSTRCA0730WESTMINSTRCA07300000000000900000000015000000000000000078000000135167143791728
00004271940522123908714/379-1728LI010WESTMINSTRCA0730WESTMINSTRCA07300000000000900000000015000000000000000017000000000797143791750
00004271940522135138714/379-1728LI010WESTMINSTRCA0730IRVINE    CA07300000000000900000000015000000000000000067000000135167147568341
00004271940522040122714/379-1728LI010WESTMINSTRCA0730IRVINE    CA07300000000000900000000015000000000000000050000000135167147568341
00004271940522085711714/379-1728LI010WESTMINSTRCA0730IRVINE    CA07300000000000900000000015000000000000000017000000135167147568341
00004271940521181210714/379-1728LI010WESTMINSTRCA0730IRVINE    CA07300000000000900000000015000000000000000019000000135167147568341
00004271940521230736714/379-1728LI010WESTMINSTRCA0730IRVINE    CA07300000000000900000000015000000000000000078000000135167147568341
00004271940522085616714/379-1728LI010WESTMINSTRCA0730IRVINE    CA07300000000000900000000015000000000000000075000000135167148528141
00004271940522040010714/379-1728LI010WESTMINSTRCA0730IRVINE    CA07300000000000900000000015000000000000000078000000135167148528141
00004271940521230633714/379-1728LI010WESTMINSTRCA0730IRVINE    CA07300000000000900000000015000000000000000075000000135167148528141
00004271940521181115714/379-1728LI010WESTMINSTRCA0730IRVINE    CA07300000000000900000000015000000000000000078000000135167148528141
00004271940522135027714/379-1728LI010WESTMINSTRCA0730IRVINE    CA07300000000000900000000015000000000000000075000000135167148528141
00004305940522072601217/425-8864LD010DECATUR   IL0374SPRINGFLD IL03740000000000900000000015000000000000000022000000135162175440312
00004305940522121755217/425-8864LD010DECATUR   IL0374SPRINGFLD IL03740000000000900000000015000000000000000019000000135162175440312
00004305940522023202217/425-8864LD010DECATUR   IL0374SPRINGFLD IL03740000000000900000000015000000000000000019000000135162175440312
00004305940522171417217/425-8864LD010DECATUR   IL0374SPRINGFLD IL03740000000000900000000015000000000000000019000000135162175440312
00004305940521213516217/425-8864LD010DECATUR   IL0374SPRINGFLD IL03740000000000900000000015000000000000000019000000135162175440312
00004310940522121509702/885-8411LD010CARSONCITYNV0720GARDNERVL NV07200000000000000000000005000000000000000139000000203897027828620
00004310940521200428702/885-8411LD010CARSONCITYNV0720CARSONCITYNV07200000000000000000000005000000000000000017000000000797028858421
00004310940521200712702/885-8411LD010CARSONCITYNV0720CARSONCITYNV07200000000000000000000005000000000000000017000000000797028851624
00004310940521200457702/885-8411LD010CARSONCITYNV0720CARSONCITYNV07200000000000000000000005000000000000000014000000000797028858721
00004310940521200553702/885-8411LD010CARSONCITYNV0720CARSONCITYNV07200000000000000000000005000000000000000017000000000797028859058
00004310940521200525702/885-8411LD010CARSONCITYNV0720CARSONCITYNV07200000000000000000000005000000000000000017000000000797028859013
00004310940521200619702/885-8411LD010CARSONCITYNV0720CARSONCITYNV07200000000000000000000005000000000000000017000000000797028859132
00004310940521200646702/885-8411LD010CARSONCITYNV0720CARSONCITYNV07200000000000000000000005000000000000000017000000000797028851472
00004316940521231144612/332-4024LD010MINNEAPOLSMN0628MINNEAPOLSMN06280000000000000000000005000000000000000017000000000796123320450
00004316940521231108612/332-4024LD010MINNEAPOLSMN0628MINNEAPOLSMN06280000000000000000000005000000000000000017000000000796123321106
00004316940522081721612/332-4024LD010MINNEAPOLSMN0628MINNEAPOLSMN06280000000000000000000005000000000000000017000000135166123324024
00004316940522032436612/332-4024LD010MINNEAPOLSMN0628MINNEAPOLSMN06280000000000000000000005000000000000000022000000135166123324024
00004316940521222622612/332-4024LD010MINNEAPOLSMN0628MINNEAPOLSMN06280000000000000000000005000000000000000019000000135166123324024
00004316940522131310612/332-4024LD010MINNEAPOLSMN0628MINNEAPOLSMN06280000000000000000000005000000000000000022000000135166123324024
00004316940521231208612/332-4024LD010MINNEAPOLSMN0628MINNEAPOLSMN06280000000000000000000005000000000000000017000000000796123322371
00004316940522131337612/332-4024LD010MINNEAPOLSMN0628MINNEAPOLSMN06280000000000000000000005000000000000000017000000135166123332799
00004316940521222648612/332-4024LD010MINNEAPOLSMN0628MINNEAPOLSMN06280000000000000000000005000000000000000019000000135166123332799
00004316940522032504612/332-4024LD010MINNEAPOLSMN0628MINNEAPOLSMN06280000000000000000000005000000000000000017000000135166123332799
00004316940522081747612/332-4024LD010MINNEAPOLSMN0628MINNEAPOLSMN06280000000000000000000005000000000000000019000000135166123332799
00004325940522131733516/485-7422LD052HEMPSTEAD NY0132HEMPSTEAD NY01320000000000900000000015000000000000000017000000000795164813946
00004325940522132013516/485-7422LD052HEMPSTEAD NY0132HEMPSTEAD NY01320000000000900000000015000000000000000019000000000795164817092
00004325940522131849516/485-7422LD052HEMPSTEAD NY0132HEMPSTEAD NY01320000000000900000000015000000000000000019000000000795164813966
00004325940522131809516/485-7422LD052HEMPSTEAD NY0132HEMPSTEAD NY01320000000000900000000015000000000000000019000000000795164813948
00004325940522131926516/485-7422LD052HEMPSTEAD NY0132HEMPSTEAD NY01320000000000900000000015000000000000000017000000000795164817973
00004325940522131653516/485-7422LD052HEMPSTEAD NY0132HEMPSTEAD NY01320000000000900000000015000000000000000019000000000795164813904
00004325940522131613516/485-7422LD052HEMPSTEAD NY0132HEMPSTEAD NY01320000000000900000000015000000000000000019000000000795164813902
00004325940522132052516/485-7422LD052HEMPSTEAD NY0132HEMPSTEAD NY01320000000000900000000015000000000000000019000000000795164817142
00004325940522131533516/485-7422LD052HEMPSTEAD NY0132HEMPSTEAD NY01320000000000900000000015000000000000000019000000000795164810349
00004325940522131405516/485-7422LD052HEMPSTEAD NY0132HEMPSTEAD NY01320000000000900000000015000000000000000019000000000795164857544
00004325940522131325516/485-7422LD052HEMPSTEAD NY0132HEMPSTEAD NY01320000000000900000000015000000000000000019000000000795164857376
00004325940522131237516/485-7422LD052HEMPSTEAD NY0132HEMPSTEAD NY01320000000000900000000015000000000000000019000000000795164857363
00004325940522131158516/485-7422LD052HEMPSTEAD NY0132HEMPSTEAD NY01320000000000900000000015000000000000000017000000000795164857358
00004325940522130850516/485-7422LD052HEMPSTEAD NY0132HEMPSTEAD NY01320000000000900000000015000000000000000017000000000795164857180
00004325940522130731516/485-7422LD052HEMPSTEAD NY0132HEMPSTEAD NY01320000000000900000000015000000000000000017000000000795164857308
00004325940522131041516/485-7422LD052HEMPSTEAD NY0132HEMPSTEAD NY01320000000000900000000015000000000000000019000000000795164857324
00004325940522131121516/485-7422LD052HEMPSTEAD NY0132HEMPSTEAD NY01320000000000900000000015000000000000000019000000000795164857356
00004325940522130809516/485-7422LD052HEMPSTEAD NY0132HEMPSTEAD NY01320000000000900000000015000000000000000019000000000795164857535
00004325940522130649516/485-7422LD052HEMPSTEAD NY0132HEMPSTEAD NY01320000000000900000000015000000000000000019000000000795164857699
00004325940522131004516/485-7422LD052HEMPSTEAD NY0132HEMPSTEAD NY01320000000000900000000015000000000000000019000000000795164857321
00004325940522130929516/485-7422LD052HEMPSTEAD NY0132HEMPSTEAD NY01320000000000900000000015000000000000000017000000000795164857317
00004325940522131446516/485-7422LD052HEMPSTEAD NY0132HEMPSTEAD NY01320000000000900000000015000000000000000019000000000795164857040
00004330940522010805806/797-0765LD010LUBBOCK   TX0544LUBBOCK   TX05440000000000000000000005000000000000000017000000000798067970765
00004353940522083839818/789-9557LD010VAN NUYS  CA0730VAN NUYS  CA07300000000000900000000015000000000000000017000000000798187899152
00004353940522084613818/789-9557LD010VAN NUYS  CA0730VAN NUYS  CA07300000000000900000000015000000000000000017000000000798187891422
00004353940522083801818/789-9557LD010VAN NUYS  CA0730VAN NUYS  CA07300000000000900000000015000000000000000017000000000798187899142
00004353940522084400818/789-9557LD010VAN NUYS  CA0730VAN NUYS  CA07300000000000900000000015000000000000000014000000000798187890768
00004353940522084114818/789-9557LD010VAN NUYS  CA0730VAN NUYS  CA07300000000000900000000015000000000000000017000000000798187899501
00004353940522084208818/789-9557LD010VAN NUYS  CA0730VAN NUYS  CA07300000000000900000000015000000000000000017000000000798187899509
00004353940522084140818/789-9557LD010VAN NUYS  CA0730VAN NUYS  CA07300000000000900000000015000000000000000017000000000798187899508
00004353940522084048818/789-9557LD010VAN NUYS  CA0730VAN NUYS  CA07300000000000900000000015000000000000000017000000000798187899468
00004353940522084022818/789-9557LD010VAN NUYS  CA0730VAN NUYS  CA07300000000000900000000015000000000000000017000000000798187899215
00004353940522083931818/789-9557LD010VAN NUYS  CA0730VAN NUYS  CA07300000000000900000000015000000000000000017000000000798187899161
00004353940522083957818/789-9557LD010VAN NUYS  CA0730VAN NUYS  CA07300000000000900000000015000000000000000014000000000798187899164
00004353940522083633818/789-9557LD010VAN NUYS  CA0730VAN NUYS  CA07300000000000900000000015000000000000000017000000000798187899116
00004353940522083539818/789-9557LD010VAN NUYS  CA0730VAN NUYS  CA07300000000000900000000015000000000000000017000000000798187899011
00004353940522083727818/789-9557LD010VAN NUYS  CA0730VAN NUYS  CA07300000000000900000000015000000000000000017000000000798187899130
00004353940522083701818/789-9557LD010VAN NUYS  CA0730VAN NUYS  CA07300000000000900000000015000000000000000017000000000798187899124
00004353940522083607818/789-9557LD010VAN NUYS  CA0730VAN NUYS  CA07300000000000900000000015000000000000000017000000000798187899088
00004353940522083905818/789-9557LD010VAN NUYS  CA0730VAN NUYS  CA07300000000000900000000015000000000000000017000000000798187899153
00004353940522084451818/789-9557LD010VAN NUYS  CA0730VAN NUYS  CA07300000000000900000000015000000000000000017000000000798187890863
00004353940522084541818/789-9557LD010VAN NUYS  CA0730VAN NUYS  CA07300000000000900000000015000000000000000017000000000798187891273
00004353940522084517818/789-9557LD010VAN NUYS  CA0730VAN NUYS  CA07300000000000900000000015000000000000000017000000000798187890864
00004353940522084425818/789-9557LD010VAN NUYS  CA0730VAN NUYS  CA07300000000000900000000015000000000000000017000000000798187890839
00004353940522084258818/789-9557LD010VAN NUYS  CA0730VAN NUYS  CA07300000000000900000000015000000000000000014000000000798187899519
00004353940522084232818/789-9557LD010VAN NUYS  CA0730VAN NUYS  CA07300000000000900000000015000000000000000017000000000798187899518
00004353940522084324818/789-9557LD010VAN NUYS  CA0730VAN NUYS  CA07300000000000900000000015000000000000000014000000000798187899548
00004353940521231020818/789-9557LD010VAN NUYS  CA0730BURBANK   CA07300000000000900000000015000000000000000019000000135168188414795
00004353940522135419818/789-9557LD010VAN NUYS  CA0730BURBANK   CA07300000000000900000000015000000000000000019000000135168188414795
00004353940521181434818/789-9557LD010VAN NUYS  CA0730BURBANK   CA07300000000000900000000015000000000000000019000000135168188414795
00004353940522085936818/789-9557LD010VAN NUYS  CA0730BURBANK   CA07300000000000900000000015000000000000000019000000135168188414795
00004353940522040400818/789-9557LD010VAN NUYS  CA0730BURBANK   CA07300000000000900000000015000000000000000017000000135168188414795
00004376940521201005209/383-7593LD010MERCED    CA0738MERCED    CA07380000000000900000000015000000000000000061000000000792093837890
00004376940521201048209/383-7593LD010MERCED    CA0738MERCED    CA07380000000000900000000015000000000000000014000000000792093837894
00004376940521201227209/383-7593LD010MERCED    CA0738MERCED    CA07380000000000900000000015000000000000000014000000000792093837968
00004376940521201253209/383-7593LD010MERCED    CA0738MERCED    CA07380000000000900000000015000000000000000039000000000792093837984
00004376940521201114209/383-7593LD010MERCED    CA0738MERCED    CA07380000000000900000000015000000000000000039000000000792093837940
00004376940521201151209/383-7593LD010MERCED    CA0738MERCED    CA07380000000000900000000015000000000000000036000000000792093837950
00004376940521200919209/383-7593LD010MERCED    CA0738MERCED    CA07380000000000900000000015000000000000000039000000000792093837873
00004376940521200845209/383-7593LD010MERCED    CA0738MERCED    CA07380000000000900000000015000000000000000036000000000792093837793
00004376940521200819209/383-7593LD010MERCED    CA0738MERCED    CA07380000000000900000000015000000000000000014000000000792093837698
00004376940521200750209/383-7593LD010MERCED    CA0738MERCED    CA07380000000000900000000015000000000000000014000000000792093837694
00004411940521231659415/361-8701LD010REDWOOD CYCA0722REDWOOD CYCA07220000000000900000000015000000000000000017000000000794153618702
00004411940522080801415/361-8701LD010REDWOOD CYCA0722PALO ALTO CA07220000000000900000000015000000000000000361000000657124153252447
00004411940522075800415/361-8701LD010REDWOOD CYCA0722PALO ALTO CA07220000000000900000000015000000000000000364000000657124153252447
00004411940522080305415/361-8701LD010REDWOOD CYCA0722PALO ALTO CA07220000000000900000000015000000000000000364000000657124153252447
00004411940521231727415/361-8701LD010REDWOOD CYCA0722REDWOOD CYCA07220000000000900000000015000000000000000039000000000794153618991
00004411940521231829415/361-8701LD010REDWOOD CYCA0722REDWOOD CYCA07220000000000900000000015000000000000000017000000000794153618996
00004411940521231802415/361-8701LD010REDWOOD CYCA0722REDWOOD CYCA07220000000000900000000015000000000000000017000000000794153618993
00004411940521174136415/361-8701LD010REDWOOD CYCA0722PALO ALTO CA07220000000000900000000015000000000000000139000000187094158592293
00004411940521173034415/361-8701LD010REDWOOD CYCA0722PALO ALTO CA07220000000000900000000015000000000000000072000000187094158596279
00004411940522094624415/361-8701LD010REDWOOD CYCA0722PALO ALTO CA07220000000001100000000018000000000000001092000000187094158596279
00004454940521232225601/355-9741LD010JACKSON   MS0482JACKSON   MS04820000000000000000000005000000000000000019000000000796019689912
00004454940521232318601/355-9741LD010JACKSON   MS0482JACKSON   MS04820000000000000000000005000000000000000017000000000796013521133
00004454940521232252601/355-9741LD010JACKSON   MS0482JACKSON   MS04820000000000000000000005000000000000000019000000000796013521129
00004454940522132224601/355-9741LD010JACKSON   MS0482JACKSON   MS04820000000000000000000005000000000000000019000000135166013559741
00004454940521223527601/355-9741LD010JACKSON   MS0482JACKSON   MS04820000000000000000000005000000000000000019000000135166013559741
00004454940522082653601/355-9741LD010JACKSON   MS0482JACKSON   MS04820000000000000000000005000000000000000022000000135166013559741
00004454940522033349601/355-9741LD010JACKSON   MS0482JACKSON   MS04820000000000000000000005000000000000000019000000135166013559741
00004454940521232011601/355-9741LD010JACKSON   MS0482JACKSON   MS04820000000000000000000005000000000000000017000000000796013559763
00004454940521232443601/355-9741LD010JACKSON   MS0482JACKSON   MS04820000000000000000000005000000000000000017000000000796019493265
00004454940521232511601/355-9741LD010JACKSON   MS0482JACKSON   MS04820000000000000000000005000000000000000017000000000796019493267
00004454940521232148601/355-9741LD010JACKSON   MS0482JACKSON   MS04820000000000000000000005000000000000000017000000000796019683896
00004475940522061914217/544-0312LD010SPRINGFLD IL0374SPRINGFLD IL03740000000000900000000015000000000000000014000000000792175258033
00004504940522042402415/588-3043LD010SOSAN FRANCA0722SAN FRAN  CA07220000000000900000000015000000000000000019000000135164155430691
00004504940521230855415/588-3043LD010SOSAN FRANCA0722REDWOOD CYCA07220000000000900000000015000000000000000019000000135164153618701
00004504940522135255415/588-3043LD010SOSAN FRANCA0722REDWOOD CYCA07220000000000900000000015000000000000000019000000135164153618701
00004504940521181308415/588-3043LD010SOSAN FRANCA0722REDWOOD CYCA07220000000000900000000015000000000000000019000000135164153618701
00004504940522040233415/588-3043LD010SOSAN FRANCA0722REDWOOD CYCA07220000000000900000000015000000000000000019000000135164153618701
00004504940522085809415/588-3043LD010SOSAN FRANCA0722REDWOOD CYCA07220000000000900000000015000000000000000025000000135164153618701
00004504940521183350415/588-3043LD010SOSAN FRANCA0722SAN FRAN  CA07220000000000900000000015000000000000000019000000135164155430691
00004504940522141407415/588-3043LD010SOSAN FRANCA0722SAN FRAN  CA07220000000000900000000015000000000000000025000000135164155430691
00004504940522091909415/588-3043LD010SOSAN FRANCA0722SAN FRAN  CA07220000000000900000000015000000000000000022000000135164155430691
00004504940521233002415/588-3043LD010SOSAN FRANCA0722SAN FRAN  CA07220000000000900000000015000000000000000017000000135164155430691
00004504940521231048415/588-3043LD010SOSAN FRANCA0722SOSAN FRANCA07220000000000900000000015000000000000000017000000135164155883043
00004504940521181502415/588-3043LD010SOSAN FRANCA0722SOSAN FRANCA07220000000000900000000015000000000000000019000000135164155883043
00004504940522135447415/588-3043LD010SOSAN FRANCA0722SOSAN FRANCA07220000000000900000000015000000000000000019000000135164155883043
00004504940522040428415/588-3043LD010SOSAN FRANCA0722SOSAN FRANCA07220000000000900000000015000000000000000017000000135164155883043
00004504940522090005415/588-3043LD010SOSAN FRANCA0722SOSAN FRANCA07220000000000900000000015000000000000000019000000135164155883043
00004504940522155118415/588-3043LD010SOSAN FRANCA0722SOSAN FRANCA07220000000000900000000015000000000000000036000000000794155883299
00004504940522154813415/588-3043LD010SOSAN FRANCA0722SOSAN FRANCA07220000000000900000000015000000000000000039000000000794155883106
00004504940522154847415/588-3043LD010SOSAN FRANCA0722SOSAN FRANCA07220000000000900000000015000000000000000014000000000794155883150
00004504940522154939415/588-3043LD010SOSAN FRANCA0722SOSAN FRANCA07220000000000900000000015000000000000000017000000000794155883552
00004504940522155042415/588-3043LD010SOSAN FRANCA0722SOSAN FRANCA07220000000000900000000015000000000000000036000000000794155883194
00004504940522154913415/588-3043LD010SOSAN FRANCA0722SOSAN FRANCA07220000000000900000000015000000000000000017000000000794155883486
00004504940522155007415/588-3043LD010SOSAN FRANCA0722SOSAN FRANCA07220000000000900000000015000000000000000039000000000794155883078
00004504940521233032415/588-3043LD010SOSAN FRANCA0722SAN FRAN  CA07220000000000900000000015000000000000000019000000135164159741300
00004504940522042432415/588-3043LD010SOSAN FRANCA0722SAN FRAN  CA07220000000000900000000015000000000000000017000000135164159741300
00004542940522041948313/451-2400LD010PLYMOUTH  MI0340PLYMOUTH  MI03400000000000900000000015000000000000000019000000135163134512400
00004542940522140826313/451-2400LD010PLYMOUTH  MI0340PLYMOUTH  MI03400000000000900000000015000000000000000019000000135163134512400
00004542940521232139313/451-2400LD010PLYMOUTH  MI0340PLYMOUTH  MI03400000000000900000000015000000000000000075000000135163134512400
00004542940522091233313/451-2400LD010PLYMOUTH  MI0340PLYMOUTH  MI03400000000000900000000015000000000000000019000000135163134512400
00004542940522140044313/451-2400LD010PLYMOUTH  MI0340ANN ARBOR MI03400000000000900000000015000000000000000019000000135163139737935
00004542940522041211313/451-2400LD010PLYMOUTH  MI0340ANN ARBOR MI03400000000000900000000015000000000000000019000000135163139737935
00004542940522090452313/451-2400LD010PLYMOUTH  MI0340ANN ARBOR MI03400000000000900000000015000000000000000017000000135163139737935
00004542940522185316313/451-2400LD010PLYMOUTH  MI0340ANN ARBOR MI03400000000000900000000015000000000000000017000000135163139737935
00004542940521231318313/451-2400LD010PLYMOUTH  MI0340ANN ARBOR MI03400000000000900000000015000000000000000047000000135163139737935
00004556940522102654510/935-1507LD010WALNUT CRKCA0722WALNUT CRKCA07220000000000900000000015000000000000000017000000000795109350972
00004556940522102900510/935-1507LD010WALNUT CRKCA0722WALNUT CRKCA07220000000000900000000015000000000000000017000000000795109352943
00004556940522102931510/935-1507LD010WALNUT CRKCA0722WALNUT CRKCA07220000000000900000000015000000000000000017000000000795109351256
00004556940522102553510/935-1507LD010WALNUT CRKCA0722WALNUT CRKCA07220000000000900000000015000000000000000017000000000795109350895
00004556940522102519510/935-1507LD010WALNUT CRKCA0722WALNUT CRKCA07220000000000900000000015000000000000000019000000000795109350890
00004556940522102722510/935-1507LD010WALNUT CRKCA0722WALNUT CRKCA07220000000000900000000015000000000000000017000000000795109351215
00004556940522102445510/935-1507LD010WALNUT CRKCA0722WALNUT CRKCA07220000000000900000000015000000000000000017000000000795109351507
00004556940522102626510/935-1507LD010WALNUT CRKCA0722WALNUT CRKCA07220000000000900000000015000000000000000017000000000795109350943
00004556940522102828510/935-1507LD010WALNUT CRKCA0722WALNUT CRKCA07220000000000900000000015000000000000000019000000000795109351606
00004556940522102756510/935-1507LD010WALNUT CRKCA0722WALNUT CRKCA07220000000000900000000015000000000000000017000000000795109350507
00004557940521225714401/766-2000LD010WOONSOCKETRI0130WOONSOCKETRI01300000000000900000000015000000000000000017000000000794017662875
00004557940521225423401/766-2000LD010WOONSOCKETRI0130WOONSOCKETRI01300000000000900000000015000000000000000017000000000794017662070
00004557940521225638401/766-2000LD010WOONSOCKETRI0130WOONSOCKETRI01300000000000900000000015000000000000000019000000000794017662731
00004557940521225742401/766-2000LD010WOONSOCKETRI0130WOONSOCKETRI01300000000000900000000015000000000000000019000000000794017662897
00004557940521225612401/766-2000LD010WOONSOCKETRI0130WOONSOCKETRI01300000000000900000000015000000000000000017000000000794017662224
00004557940521225546401/766-2000LD010WOONSOCKETRI0130WOONSOCKETRI01300000000000900000000015000000000000000017000000000794017662180
00004557940521225451401/766-2000LD010WOONSOCKETRI0130WOONSOCKETRI01300000000000900000000015000000000000000017000000000794017662120
00004557940521225518401/766-2000LD010WOONSOCKETRI0130WOONSOCKETRI01300000000000900000000015000000000000000019000000000794017662174
00004706940522055416501/623-3576LD010HOTSPRINGSAR0528HOTSPRINGSAR05280000000000000000000005000000000000000019000000135165016233576
00004706940522105101501/623-3576LD010HOTSPRINGSAR0528HOTSPRINGSAR05280000000000000000000005000000000000000017000000135165016233576
00004706940521200537501/623-3576LD010HOTSPRINGSAR0528HOTSPRINGSAR05280000000000000000000005000000000000000019000000135165016233576
00004706940522154440501/623-3576LD010HOTSPRINGSAR0528HOTSPRINGSAR05280000000000000000000005000000000000000022000000135165016233576
00004706940522010046501/623-3576LD010HOTSPRINGSAR0528HOTSPRINGSAR05280000000000000000000005000000000000000019000000135165016233576
00004722940521221101916/241-4820LD010REDDING   CA0724REDDING   CA07240000000000900000000015000000000000000014000000000799162415499
00004722940521220918916/241-4820LD010REDDING   CA0724REDDING   CA07240000000000900000000015000000000000000039000000000799162415298
00004722940521220752916/241-4820LD010REDDING   CA0724REDDING   CA07240000000000900000000015000000000000000039000000000799162415062
00004722940521220853916/241-4820LD010REDDING   CA0724REDDING   CA07240000000000900000000015000000000000000014000000000799162415198
00004722940521220700916/241-4820LD010REDDING   CA0724REDDING   CA07240000000000900000000015000000000000000014000000000799162414882
00004722940521220726916/241-4820LD010REDDING   CA0724REDDING   CA07240000000000900000000015000000000000000014000000000799162414993
00004722940521220827916/241-4820LD010REDDING   CA0724REDDING   CA07240000000000900000000015000000000000000014000000000799162415196
00004722940521221027916/241-4820LD010REDDING   CA0724REDDING   CA07240000000000900000000015000000000000000017000000000799162415399
00004722940521220633916/241-4820LD010REDDING   CA0724REDDING   CA07240000000000900000000015000000000000000014000000000799162414880
00004722940521220953916/241-4820LD010REDDING   CA0724REDDING   CA07240000000000900000000015000000000000000036000000000799162415299
00004725940522064234304/325-6708LI010BLUEFIELD WV0932BLUEFIELD WV09320000000000900000000015000000000000000019000000135163043250517
00004725940522113910304/325-6708LI010BLUEFIELD WV0932BLUEFIELD WV09320000000000900000000015000000000000000022000000135163043250517
00004725940522163224304/325-6708LI010BLUEFIELD WV0932BLUEFIELD WV09320000000000900000000015000000000000000019000000135163043250517
00004725940522014906304/325-6708LI010BLUEFIELD WV0932BLUEFIELD WV09320000000000900000000015000000000000000019000000135163043250517
00004747940521213726312/922-6571LD017CHICAGO   IL0358CHICAGO   IL03580000000000900000000015000000000000000039000000000793129222302
00004747940521213617312/922-6571LD017CHICAGO   IL0358CHICAGO   IL03580000000000900000000015000000000000000014000000000793129220204
00004747940522120859312/922-6571LD017CHICAGO   IL0358CHICAGO   IL03580000000000900000000015000000000000000019000000135163129224601
00004747940522170433312/922-6571LD017CHICAGO   IL0358CHICAGO   IL03580000000000900000000015000000000000000017000000135163129224601
00004747940522022304312/922-6571LD017CHICAGO   IL0358CHICAGO   IL03580000000000900000000015000000000000000017000000135163129224601
00004747940521212551312/922-6571LD017CHICAGO   IL0358CHICAGO   IL03580000000000900000000015000000000000000017000000135163129224601
00004747940521213644312/922-6571LD017CHICAGO   IL0358CHICAGO   IL03580000000000900000000015000000000000000039000000000793129220206
00004747940522022724312/922-6571LD017CHICAGO   IL0358LAKEFORESTIL03580000000000900000000015000000000000000019000000135167082957075
00004747940522170931312/922-6571LD017CHICAGO   IL0358LAKEFORESTIL03580000000000900000000015000000000000000019000000135167082957075
00004747940521213043312/922-6571LD017CHICAGO   IL0358LAKEFORESTIL03580000000000900000000015000000000000000017000000135167082957075
00004747940522121318312/922-6571LD017CHICAGO   IL0358LAKEFORESTIL03580000000000900000000015000000000000000017000000135167082957075
00004747940522121134312/922-6571LD017CHICAGO   IL0358GLEN ELLYNIL03580000000000900000000015000000000000000017000000135167087904955
00004747940522071938312/922-6571LD017CHICAGO   IL0358GLEN ELLYNIL03580000000000900000000015000000000000000019000000135167087904955
00004747940521212908312/922-6571LD017CHICAGO   IL0358GLEN ELLYNIL03580000000000900000000015000000000000000017000000135167087904955
00004747940522170752312/922-6571LD017CHICAGO   IL0358GLEN ELLYNIL03580000000000900000000015000000000000000019000000135167087904955
00004747940522022540312/922-6571LD017CHICAGO   IL0358GLEN ELLYNIL03580000000000900000000015000000000000000019000000135167087904955
00004751940522133748701/280-0210LD010FARGO     ND0636FARGO     ND06360000000000000000000005000000000000000028000000135167012800210
00004751940521180126701/280-0210LD010FARGO     ND0636FARGO     ND06360000000000000000000005000000000000000022000000135167012800210
00004751940522084335701/280-0210LD010FARGO     ND0636FARGO     ND06360000000000000000000005000000000000000025000000135167012800210
00004751940522034954701/280-0210LD010FARGO     ND0636FARGO     ND06360000000000000000000005000000000000000022000000135167012800210
00004751940521225121701/280-0210LD010FARGO     ND0636FARGO     ND06360000000000000000000005000000000000000017000000135167012800210
00004770940521221835414/235-7473LD010OSHKOSH   WI0350OSHKOSH   WI03500000000000900000000015000000000000000019000000000794142355901
00004770940521221911414/235-7473LD010OSHKOSH   WI0350OSHKOSH   WI03500000000000900000000015000000000000000017000000000794142356509
00004770940521222242414/235-7473LD010OSHKOSH   WI0350OSHKOSH   WI03500000000000900000000015000000000000000017000000000794142357253
00004770940521221946414/235-7473LD010OSHKOSH   WI0350OSHKOSH   WI03500000000000900000000015000000000000000017000000000794142356621
00004770940521222131414/235-7473LD010OSHKOSH   WI0350OSHKOSH   WI03500000000000900000000015000000000000000019000000000794142357067
00004770940521222206414/235-7473LD010OSHKOSH   WI0350OSHKOSH   WI03500000000000900000000015000000000000000019000000000794142357154
00004770940521222056414/235-7473LD010OSHKOSH   WI0350OSHKOSH   WI03500000000000900000000015000000000000000019000000000794142356947
00004770940521222019414/235-7473LD010OSHKOSH   WI0350OSHKOSH   WI03500000000000900000000015000000000000000017000000000794142356819
00004770940521222314414/235-7473LD010OSHKOSH   WI0350OSHKOSH   WI03500000000000900000000015000000000000000019000000000794142357402
00004770940521222350414/235-7473LD010OSHKOSH   WI0350OSHKOSH   WI03500000000000900000000015000000000000000017000000000794142357523
00005006940522121207815/727-4716LD010JOLIET    IL0358GENEVA    IL03580000000000900000000015000000000000000028000000135167082327111
00005006940522072011815/727-4716LD010JOLIET    IL0358GENEVA    IL03580000000000900000000015000000000000000019000000135167082327111
00005006940522170825815/727-4716LD010JOLIET    IL0358GENEVA    IL03580000000000900000000015000000000000000019000000135167082327111
00005006940522022615815/727-4716LD010JOLIET    IL0358GENEVA    IL03580000000000900000000015000000000000000025000000135167082327111
00005006940521212937815/727-4716LD010JOLIET    IL0358GENEVA    IL03580000000000900000000015000000000000000022000000135167082327111
00005006940522022120815/727-4716LD010JOLIET    IL0358KANKAKEE  IL03580000000000900000000015000000000000000019000000135168159352352
00005006940521212411815/727-4716LD010JOLIET    IL0358KANKAKEE  IL03580000000000900000000015000000000000000019000000135168159352352
00005006940522170250815/727-4716LD010JOLIET    IL0358KANKAKEE  IL03580000000000900000000015000000000000000022000000135168159352352
00005006940522071517815/727-4716LD010JOLIET    IL0358KANKAKEE  IL03580000000000900000000015000000000000000019000000135168159352352
00005006940522120716815/727-4716LD010JOLIET    IL0358KANKAKEE  IL03580000000000900000000015000000000000000019000000135168159352352
00005014940521220928304/485-4070LD010PARKERSBG WV0254PARKERSBG WV02540000000000900000000015000000000000000075000000000783044853072
00005014940521221106304/485-4070LD010PARKERSBG WV0254PARKERSBG WV02540000000000900000000015000000000000000078000000000783044853067
00005014940521221343304/485-4070LD010PARKERSBG WV0254PARKERSBG WV02540000000000900000000015000000000000000078000000000783044853067
00005014940521220749304/485-4070LD010PARKERSBG WV0254PARKERSBG WV02540000000000900000000015000000000000000081000000000783044853080
00005014940521220609304/485-4070LD010PARKERSBG WV0254PARKERSBG WV02540000000000900000000015000000000000000081000000000783044853084
00005100940522140337513/530-9021LI010CINCINNATIOH0922CINCINNATIOH09220000000000000000000005000000000000000019000000000795135300165
00005100940522140510513/530-9021LI010CINCINNATIOH0922CINCINNATIOH09220000000000000000000005000000000000000019000000000795135300928
00005100940522140441513/530-9021LI010CINCINNATIOH0922CINCINNATIOH09220000000000000000000005000000000000000019000000000795135300311
00005100940522140406513/530-9021LI010CINCINNATIOH0922CINCINNATIOH09220000000000000000000005000000000000000039000000000795135300302
00005100940522140239513/530-9021LI010CINCINNATIOH0922CINCINNATIOH09220000000000000000000005000000000000000019000000000795135309940
00005100940522140307513/530-9021LI010CINCINNATIOH0922CINCINNATIOH09220000000000000000000005000000000000000019000000000795135309954
00005100940521193452513/530-9021LI010CINCINNATIOH0922HAMILTON  OH09220000000000000000000005000000000000000017000000135165138741744
00005100940522101848513/530-9021LI010CINCINNATIOH0922HAMILTON  OH09220000000000000000000005000000000000000019000000135165138741744
00005100940522151222513/530-9021LI010CINCINNATIOH0922HAMILTON  OH09220000000000000000000005000000000000000017000000135165138741744
00005100940522052444513/530-9021LI010CINCINNATIOH0922HAMILTON  OH09220000000000000000000005000000000000000019000000135165138741744
00005100940522002802513/530-9021LI010CINCINNATIOH0922HAMILTON  OH09220000000000000000000005000000000000000019000000135165138741744
00005123940522161012203/865-5770LI010NEW HAVEN CT0920GUILFORD  CT09200000000000000000000005000000000000000656000000689142034571246
00005123940521211344203/865-5770LI010NEW HAVEN CT0920GUILFORD  CT09200000000000000000000005000000000000000922000000689142034571246
00005123940521224757203/865-5770LI010NEW HAVEN CT0920GUILFORD  CT09200000000000000000000005000000000000006319000000689142034571246
00005123940522101443203/865-5770LI010NEW HAVEN CT0920GUILFORD  CT09200000000000000000000005000000000000001558000000689142034571246
00005163940522043648706/369-0165LD010ATHENS    GA0438ATHENS    GA04380000000000000000000005000000000000000017000000000797062082907
00005163940522045229706/369-0165LD010ATHENS    GA0438ATHENS    GA04380000000000000000000005000000000000000017000000000797062082946
00005163940522045104706/369-0165LD010ATHENS    GA0438ATHENS    GA04380000000000000000000005000000000000000017000000000797062082942
00005163940522043912706/369-0165LD010ATHENS    GA0438ATHENS    GA04380000000000000000000005000000000000000039000000000797062082913
00005163940522043716706/369-0165LD010ATHENS    GA0438ATHENS    GA04380000000000000000000005000000000000000042000000000797062082909
00005163940522043846706/369-0165LD010ATHENS    GA0438ATHENS    GA04380000000000000000000005000000000000000017000000000797062082912
00005163940522044043706/369-0165LD010ATHENS    GA0438ATHENS    GA04380000000000000000000005000000000000000017000000000797062082917
00005163940522044110706/369-0165LD010ATHENS    GA0438ATHENS    GA04380000000000000000000005000000000000000039000000000797062082918
00005163940522044305706/369-0165LD010ATHENS    GA0438ATHENS    GA04380000000000000000000005000000000000000017000000000797062082923
00005163940522044239706/369-0165LD010ATHENS    GA0438ATHENS    GA04380000000000000000000005000000000000000017000000000797062082922
00005163940522044638706/369-0165LD010ATHENS    GA0438ATHENS    GA04380000000000000000000005000000000000000017000000000797062082931
00005163940522044535706/369-0165LD010ATHENS    GA0438ATHENS    GA04380000000000000000000005000000000000000017000000000797062082929
00005163940522044501706/369-0165LD010ATHENS    GA0438ATHENS    GA04380000000000000000000005000000000000000039000000000797062082927
00005163940522044604706/369-0165LD010ATHENS    GA0438ATHENS    GA04380000000000000000000005000000000000000039000000000797062082930
00005163940522044332706/369-0165LD010ATHENS    GA0438ATHENS    GA04380000000000000000000005000000000000000017000000000797062082924
00005163940522044850706/369-0165LD010ATHENS    GA0438ATHENS    GA04380000000000000000000005000000000000000017000000000797062082937
00005163940522044757706/369-0165LD010ATHENS    GA0438ATHENS    GA04380000000000000000000005000000000000000017000000000797062082935
00005163940522044823706/369-0165LD010ATHENS    GA0438ATHENS    GA04380000000000000000000005000000000000000017000000000797062082936
00005163940522043620706/369-0165LD010ATHENS    GA0438ATHENS    GA04380000000000000000000005000000000000000014000000000797062082900
00005163940522045130706/369-0165LD010ATHENS    GA0438ATHENS    GA04380000000000000000000005000000000000000017000000000797062082943
00005163940522045200706/369-0165LD010ATHENS    GA0438ATHENS    GA04380000000000000000000005000000000000000019000000000797062082944
00005163940522044916706/369-0165LD010ATHENS    GA0438ATHENS    GA04380000000000000000000005000000000000000017000000000797062082938
00005163940522030634706/369-0165LD010ATHENS    GA0438ATHENS    GA04380000000000000000000005000000000000000022000000135167063690165
00005215940522032337218/262-3824LD010HIBBING   MN0624HIBBING   MN06240000000000000000000005000000000000000019000000135162182623824
00005215940522081621218/262-3824LD010HIBBING   MN0624HIBBING   MN06240000000000000000000005000000000000000017000000135162182623824
00005215940522131211218/262-3824LD010HIBBING   MN0624HIBBING   MN06240000000000000000000005000000000000000017000000135162182623824
00005215940521222524218/262-3824LD010HIBBING   MN0624HIBBING   MN06240000000000000000000005000000000000000019000000135162182623824
00005253940522144336615/645-8877LD010CLARKSVL  TN0470CLARKSVL  TN04700000000000000000000005000000000000000019000000135166156458877
00005253940522045608615/645-8877LD010CLARKSVL  TN0470CLARKSVL  TN04700000000000000000000005000000000000000019000000135166156458877
00005253940522095049615/645-8877LD010CLARKSVL  TN0470CLARKSVL  TN04700000000000000000000005000000000000000019000000135166156458877
00005253940522000047615/645-8877LD010CLARKSVL  TN0470CLARKSVL  TN04700000000000000000000005000000000000000017000000135166156458877
00005253940521190612615/645-8877LD010CLARKSVL  TN0470CLARKSVL  TN04700000000000000000000005000000000000000019000000135166156458877
00005253940522053321615/645-8877LD010CLARKSVL  TN0470CLARKSVL  TN04700000000000000000000005000000000000000017000000000796156450111
00005253940522053224615/645-8877LD010CLARKSVL  TN0470CLARKSVL  TN04700000000000000000000005000000000000000017000000000796156458896
00005253940522053351615/645-8877LD010CLARKSVL  TN0470CLARKSVL  TN04700000000000000000000005000000000000000019000000000796156450159
00005253940522053253615/645-8877LD010CLARKSVL  TN0470CLARKSVL  TN04700000000000000000000005000000000000000017000000000796156459018
00005253940522053422615/645-8877LD010CLARKSVL  TN0470CLARKSVL  TN04700000000000000000000005000000000000000017000000000796156477570
00005253940522053452615/645-8877LD010CLARKSVL  TN0470CLARKSVL  TN04700000000000000000000005000000000000000017000000000796156479957
00005264940522044754919/937-4828LI010ROCKYMOUNTNC0951ROCKYMOUNTNC09510000000000000000000005000000000000000022000000135169199374828
00005264940521234917919/937-4828LI010ROCKYMOUNTNC0951ROCKYMOUNTNC09510000000000000000000005000000000000000019000000135169199374828
00005264940522143542919/937-4828LI010ROCKYMOUNTNC0951ROCKYMOUNTNC09510000000000000000000005000000000000000019000000135169199374828
00005264940521205834919/937-4828LI010ROCKYMOUNTNC0951ROCKYMOUNTNC09510000000000000000000005000000000000000019000000000799199377536
00005264940521205802919/937-4828LI010ROCKYMOUNTNC0951ROCKYMOUNTNC09510000000000000000000005000000000000000019000000000799199376341
00005264940521205730919/937-4828LI010ROCKYMOUNTNC0951ROCKYMOUNTNC09510000000000000000000005000000000000000019000000000799199376242
00005264940521205656919/937-4828LI010ROCKYMOUNTNC0951ROCKYMOUNTNC09510000000000000000000005000000000000000019000000000799199376241
00005264940521205626919/937-4828LI010ROCKYMOUNTNC0951ROCKYMOUNTNC09510000000000000000000005000000000000000019000000000799199376707
00005323940522122511916/544-3091LD010SOUTHTAHOECA0726SOUTHTAHOECA07260000000000900000000015000000000000000019000000000799165443692
00005323940522122540916/544-3091LD010SOUTHTAHOECA0726SOUTHTAHOECA07260000000000900000000015000000000000000039000000000799165443799
00005325940522040603909/422-0222LD010COLTON    CA0730COLTON    CA07300000000000900000000015000000000000000017000000135169094220222
00005325940522090135909/422-0222LD010COLTON    CA0730COLTON    CA07300000000000900000000015000000000000000019000000135169094220222
00005325940521181632909/422-0222LD010COLTON    CA0730COLTON    CA07300000000000900000000015000000000000000019000000135169094220222
00005325940522135618909/422-0222LD010COLTON    CA0730COLTON    CA07300000000000900000000015000000000000000017000000135169094220222
00005325940521231217909/422-0222LD010COLTON    CA0730COLTON    CA07300000000000900000000015000000000000000019000000135169094220222
00005355940522114756419/255-7705LD010TOLEDO    OH0326TOLEDO    OH03260000000000900000000015000000000000000019000000000794192555557
