00002026940524121320515/753-0670LD010MARSHALLTNIA0632MARSHALLTNIA06320000000000000000000005000000000000000017000000000795157530673
00002026940524121420515/753-0670LD010MARSHALLTNIA0632MARSHALLTNIA06320000000000000000000005000000000000000019000000000795157529619
00002026940524121350515/753-0670LD010MARSHALLTNIA0632MARSHALLTNIA06320000000000000000000005000000000000000019000000000795157530674
00002026940524030328515/753-0670LD010MARSHALLTNIA0632MARSHALLTNIA06320000000000000000000005000000000000000019000000135165157530670
00002026940524040729515/753-0670LD010MARSHALLTNIA0632MARSHALLTNIA06320000000000000000000005000000000000000019000000655605157530670
00002026940524091420515/753-0670LD010MARSHALLTNIA0632MARSHALLTNIA06320000000000000000000005000000000000000017000000655605157530670
00002026940523230430515/753-0670LD010MARSHALLTNIA0632MARSHALLTNIA06320000000000000000000005000000000000000017000000655605157530670
00002026940524141307515/753-0670LD010MARSHALLTNIA0632MARSHALLTNIA06320000000000000000000005000000000000000017000000655605157530670
00002026940524174004515/753-0670LD010MARSHALLTNIA0632MARSHALLTNIA06320000000000000000000005000000000000000019000000135165157530670
00002026940524124435515/753-0670LD010MARSHALLTNIA0632MARSHALLTNIA06320000000000000000000005000000000000000017000000135165157530670
00002026940523221425515/753-0670LD010MARSHALLTNIA0632MARSHALLTNIA06320000000000000000000005000000000000000019000000135165157530670
00002026940524074937515/753-0670LD010MARSHALLTNIA0632MARSHALLTNIA06320000000000000000000005000000000000000022000000135165157530670
00002033940524112902205/543-3550LD010GADSDEN   AL0476GADSDEN   AL04760000000000000000000005000000000000000019000000135162055433550
00002033940524063536205/543-3550LD010GADSDEN   AL0476GADSDEN   AL04760000000000000000000005000000000000000025000000135162055433550
00002033940524014908205/543-3550LD010GADSDEN   AL0476GADSDEN   AL04760000000000000000000005000000000000000019000000135162055433550
00002033940523205835205/543-3550LD010GADSDEN   AL0476GADSDEN   AL04760000000000000000000005000000000000000025000000135162055433550
00002033940524162501205/543-3550LD010GADSDEN   AL0476GADSDEN   AL04760000000000000000000005000000000000000019000000135162055433550
00002045940524153857518/458-9724LD010ALBANY    NY0134ALBANY    NY01340000000000900000000015000000000000000017000000135165184588300
00002045940524015225518/458-9724LD010ALBANY    NY0134ALBANY    NY01340000000000900000000015000000000000000017000000655605184588300
00002045940523204625518/458-9724LD010ALBANY    NY0134ALBANY    NY01340000000000900000000015000000000000000017000000655605184588300
00002045940524170215518/458-9724LD010ALBANY    NY0134ALBANY    NY01340000000000900000000015000000000000000019000000655605184588300
00002045940524120108518/458-9724LD010ALBANY    NY0134ALBANY    NY01340000000000900000000015000000000000000017000000655605184588300
00002045940524065354518/458-9724LD010ALBANY    NY0134ALBANY    NY01340000000000900000000015000000000000000017000000655605184588300
00002045940524105104518/458-9724LD010ALBANY    NY0134ALBANY    NY01340000000000900000000015000000000000000117000000135165184589724
00002045940524153828518/458-9724LD010ALBANY    NY0134ALBANY    NY01340000000000900000000015000000000000000019000000135165184589724
00002045940524055349518/458-9724LD010ALBANY    NY0134ALBANY    NY01340000000000900000000015000000000000000017000000135165184588300
00002045940524055321518/458-9724LD010ALBANY    NY0134ALBANY    NY01340000000000900000000015000000000000000017000000135165184589724
00002045940524010611518/458-9724LD010ALBANY    NY0134ALBANY    NY01340000000000900000000015000000000000000022000000135165184589724
00002045940524010640518/458-9724LD010ALBANY    NY0134ALBANY    NY01340000000000900000000015000000000000000019000000135165184588300
00002045940523200832518/458-9724LD010ALBANY    NY0134ALBANY    NY01340000000000900000000015000000000000000019000000135165184589724
00002045940523200901518/458-9724LD010ALBANY    NY0134ALBANY    NY01340000000000900000000015000000000000000017000000135165184588300
00002045940524104332518/458-9724LD010ALBANY    NY0134ALBANY    NY01340000000000900000000015000000000000000019000000135165184588300
00002045940524104302518/458-9724LD010ALBANY    NY0134ALBANY    NY01340000000000900000000015000000000000000019000000135165184589724
00002050940524120717307/234-4211LD010CASPER    WY0654CASPER    WY06540000000000000000000005000000000000000017000000000793072344211
00002057940523200159615/453-0401LD010SEVIERVL  TN0474KNOXVILLE TN04740000000000000000000005000000000000000019000000135166156940156
00002057940524103403615/453-0401LD010SEVIERVL  TN0474KNOXVILLE TN04740000000000000000000005000000000000000019000000135166156940156
00002057940524005508615/453-0401LD010SEVIERVL  TN0474KNOXVILLE TN04740000000000000000000005000000000000000019000000135166156940156
00002057940524054152615/453-0401LD010SEVIERVL  TN0474KNOXVILLE TN04740000000000000000000005000000000000000019000000135166156940156
00002057940524153044615/453-0401LD010SEVIERVL  TN0474KNOXVILLE TN04740000000000000000000005000000000000000017000000135166156940156
00002071940524133536505/525-3401LD010LAS CRUCESNM0664LAS CRUCESNM06640000000000000000000005000000000000000019000000135165055253401
00002071940524145611505/525-3401LD010LAS CRUCESNM0664LAS CRUCESNM06640000000000000000000005000000000000000019000000655605055253401
00002071940524044659505/525-3401LD010LAS CRUCESNM0664LAS CRUCESNM06640000000000000000000005000000000000000017000000655605055253401
00002071940523234644505/525-3401LD010LAS CRUCESNM0664LAS CRUCESNM06640000000000000000000005000000000000000017000000655605055253401
00002071940523183924505/525-3401LD010LAS CRUCESNM0664LAS CRUCESNM06640000000000000000000005000000000000000017000000655605055253401
00002071940524095557505/525-3401LD010LAS CRUCESNM0664LAS CRUCESNM06640000000000000000000005000000000000000019000000655605055253401
00002071940524035031505/525-3401LD010LAS CRUCESNM0664LAS CRUCESNM06640000000000000000000005000000000000000019000000135165055253401
00002071940523230319505/525-3401LD010LAS CRUCESNM0664LAS CRUCESNM06640000000000000000000005000000000000000017000000135165055253401
00002071940523180542505/525-3401LD010LAS CRUCESNM0664LAS CRUCESNM06640000000000000000000005000000000000000017000000135165055253401
00002071940524084006505/525-3401LD010LAS CRUCESNM0664LAS CRUCESNM06640000000000000000000005000000000000000019000000135165055253401
00002071940524113101505/525-3401LD010LAS CRUCESNM0664LAS CRUCESNM06640000000000000000000005000000000000000017000000000795055253410
00002071940524113318505/525-3401LD010LAS CRUCESNM0664LAS CRUCESNM06640000000000000000000005000000000000000019000000000795055259713
00002071940524113223505/525-3401LD010LAS CRUCESNM0664LAS CRUCESNM06640000000000000000000005000000000000000017000000000795055253438
00002071940524113155505/525-3401LD010LAS CRUCESNM0664LAS CRUCESNM06640000000000000000000005000000000000000017000000000795055253436
00002071940524113127505/525-3401LD010LAS CRUCESNM0664LAS CRUCESNM06640000000000000000000005000000000000000017000000000795055253412
00002071940524113251505/525-3401LD010LAS CRUCESNM0664LAS CRUCESNM06640000000000000000000005000000000000000017000000000795055253445
00002071940524113348505/525-3401LD010LAS CRUCESNM0664LAS CRUCESNM06640000000000000000000005000000000000000017000000000795055259670
00002113940524013245904/360-1110LI010LEESBURG  FL0454LEESBURG  FL04540000000000000000000005000000000000000019000000000799043600301
00002113940524013214904/360-1110LI010LEESBURG  FL0454LEESBURG  FL04540000000000000000000005000000000000000019000000000799043600216
00002124940524062231509/248-1462LD010YAKIMA    WA0676YAKIMA    WA06760000000000000000000005000000000000000014000000000795094523916
00002124940524062355509/248-1462LD010YAKIMA    WA0676YAKIMA    WA06760000000000000000000005000000000000000014000000000795094524371
00002124940524062307509/248-1462LD010YAKIMA    WA0676YAKIMA    WA06760000000000000000000005000000000000000039000000000795094523968
00002124940524061825509/248-1462LD010YAKIMA    WA0676YAKIMA    WA06760000000000000000000005000000000000000017000000000795094530905
00002124940524061905509/248-1462LD010YAKIMA    WA0676YAKIMA    WA06760000000000000000000005000000000000000017000000000795094575690
00002124940524062025509/248-1462LD010YAKIMA    WA0676YAKIMA    WA06760000000000000000000005000000000000000014000000000795094576599
00002124940524061947509/248-1462LD010YAKIMA    WA0676YAKIMA    WA06760000000000000000000005000000000000000017000000000795094576134
00002124940524062105509/248-1462LD010YAKIMA    WA0676YAKIMA    WA06760000000000000000000005000000000000000017000000000795094576697
00002124940524062153509/248-1462LD010YAKIMA    WA0676YAKIMA    WA06760000000000000000000005000000000000000017000000000795094576847
00002134940524052404704/932-4131LD010KANNAPOLISNC0422KANNAPOLISNC04220000000000000000000005000000000000000039000000000797049324608
00002134940524052306704/932-4131LD010KANNAPOLISNC0422KANNAPOLISNC04220000000000000000000005000000000000000019000000000797049324605
00002134940524052537704/932-4131LD010KANNAPOLISNC0422KANNAPOLISNC04220000000000000000000005000000000000000172000000000797049324609
00002134940524051912704/932-4131LD010KANNAPOLISNC0422KANNAPOLISNC04220000000000000000000005000000000000000039000000000797049324601
00002134940524051744704/932-4131LD010KANNAPOLISNC0422KANNAPOLISNC04220000000000000000000005000000000000000019000000000797049324599
00002134940524051501704/932-4131LD010KANNAPOLISNC0422KANNAPOLISNC04220000000000000000000005000000000000000036000000000797049324595
00002134940524051359704/932-4131LD010KANNAPOLISNC0422KANNAPOLISNC04220000000000000000000005000000000000000017000000000797049324134
00002134940524051327704/932-4131LD010KANNAPOLISNC0422KANNAPOLISNC04220000000000000000000005000000000000000017000000000797049324132
00002134940524051818704/932-4131LD010KANNAPOLISNC0422KANNAPOLISNC04220000000000000000000005000000000000000019000000000797049324600
00002134940524051715704/932-4131LD010KANNAPOLISNC0422KANNAPOLISNC04220000000000000000000005000000000000000003000000000797049324598
00002134940524051613704/932-4131LD010KANNAPOLISNC0422KANNAPOLISNC04220000000000000000000005000000000000000019000000000797049324597
00002134940524052024704/932-4131LD010KANNAPOLISNC0422KANNAPOLISNC04220000000000000000000005000000000000000017000000000797049324603
00002134940524052131704/932-4131LD010KANNAPOLISNC0422KANNAPOLISNC04220000000000000000000005000000000000000172000000000797049324604
00002134940524051540704/932-4131LD010KANNAPOLISNC0422KANNAPOLISNC04220000000000000000000005000000000000000017000000000797049324596
00002134940524051952704/932-4131LD010KANNAPOLISNC0422KANNAPOLISNC04220000000000000000000005000000000000000017000000000797049324602
00002155940524155711812/332-0544LD010BLOOMINGTNIN0338BLOOMINGTNIN03380000000000000000000005000000000000002503000000190288128559656
00002155940524155651812/332-0544LD010BLOOMINGTNIN0338BLOOMINGTNIN03380000000000000000000005000000000000000017000000000798123323169
00002155940524155747812/332-0544LD010BLOOMINGTNIN0338BLOOMINGTNIN03380000000000000000000005000000000000000019000000000798123323357
00002155940524155516812/332-0544LD010BLOOMINGTNIN0338BLOOMINGTNIN03380000000000000000000005000000000000000019000000000798123321945
00002155940524155719812/332-0544LD010BLOOMINGTNIN0338BLOOMINGTNIN03380000000000000000000005000000000000000019000000000798123323199
00002155940524155820812/332-0544LD010BLOOMINGTNIN0338BLOOMINGTNIN03380000000000000000000005000000000000000017000000000798123323479
00002155940524155547812/332-0544LD010BLOOMINGTNIN0338BLOOMINGTNIN03380000000000000000000005000000000000000017000000000798123322896
00002155940524155613812/332-0544LD010BLOOMINGTNIN0338BLOOMINGTNIN03380000000000000000000005000000000000000017000000000798123323133
00002155940524031820812/332-0544LD010BLOOMINGTNIN0338BLOOMINGTNIN03380000000000000000000005000000000000000631000000190288128559656
00002155940523184814812/332-0544LD010BLOOMINGTNIN0338BLOOMINGTNIN03380000000000000000000005000000000000002011000000190288128559656
00002155940519192032812/332-0544LD010BLOOMINGTNIN0338BLOOMINGTNIN03380000000000000000000005000000000000002083000000190288128559656
00002235940524000100206/281-7141LD011SEATTLE   WA0674SEATTLE   WA06740000000000000000000005000000000000000017000000000792062850521
00002235940524000403206/281-7141LD011SEATTLE   WA0674SEATTLE   WA06740000000000000000000005000000000000000017000000000792062850938
00002235940524000132206/281-7141LD011SEATTLE   WA0674SEATTLE   WA06740000000000000000000005000000000000000017000000000792062850763
00002236940524071520419/747-6200LI010MANSFIELD OH0923MANSFIELD OH09230000000000000000000005000000000000000019000000655604197476200
00002236940524172204419/747-6200LI010MANSFIELD OH0923MANSFIELD OH09230000000000000000000005000000000000000014000000655604197476200
00002236940524122036419/747-6200LI010MANSFIELD OH0923MANSFIELD OH09230000000000000000000005000000000000000019000000655604197476200
00002236940523210843419/747-6200LI010MANSFIELD OH0923MANSFIELD OH09230000000000000000000005000000000000000019000000655604197476200
00002236940524021405419/747-6200LI010MANSFIELD OH0923MANSFIELD OH09230000000000000000000005000000000000000014000000655604197476200
00002236940524154824419/747-6200LI010MANSFIELD OH0923MANSFIELD OH09230000000000000000000005000000000000000017000000000794197471087
00002236940524155031419/747-6200LI010MANSFIELD OH0923MANSFIELD OH09230000000000000000000005000000000000000017000000000794197471484
00002236940524155415419/747-6200LI010MANSFIELD OH0923MANSFIELD OH09230000000000000000000005000000000000000017000000000794197479364
00002236940524155345419/747-6200LI010MANSFIELD OH0923MANSFIELD OH09230000000000000000000005000000000000000017000000000794197479362
00002236940524155201419/747-6200LI010MANSFIELD OH0923MANSFIELD OH09230000000000000000000005000000000000000017000000000794197479265
00002236940524155233419/747-6200LI010MANSFIELD OH0923MANSFIELD OH09230000000000000000000005000000000000000039000000000794197479266
00002236940524155315419/747-6200LI010MANSFIELD OH0923MANSFIELD OH09230000000000000000000005000000000000000017000000000794197479360
00002236940524154754419/747-6200LI010MANSFIELD OH0923MANSFIELD OH09230000000000000000000005000000000000000017000000000794197473584
00002236940524155101419/747-6200LI010MANSFIELD OH0923MANSFIELD OH09230000000000000000000005000000000000000017000000000794197476785
00002236940524154854419/747-6200LI010MANSFIELD OH0923MANSFIELD OH09230000000000000000000005000000000000000017000000000794197471384
00002236940524155131419/747-6200LI010MANSFIELD OH0923MANSFIELD OH09230000000000000000000005000000000000000017000000000794197479263
00002261940524022623802/862-1000LD010BURLINGTONVT0124BURLINGTONVT01240000000000900000000015000000000000000019000000135168028621000
00002261940523213347802/862-1000LD010BURLINGTONVT0124BURLINGTONVT01240000000000900000000015000000000000000019000000135168028621000
00002261940524120604802/862-1000LD010BURLINGTONVT0124BURLINGTONVT01240000000000900000000015000000000000000022000000135168028621000
00002261940524071303802/862-1000LD010BURLINGTONVT0124BURLINGTONVT01240000000000900000000015000000000000000019000000135168028621000
00002261940524170227802/862-1000LD010BURLINGTONVT0124BURLINGTONVT01240000000000900000000015000000000000000019000000135168028621000
00002301940523204520715/833-0121LD010EAU CLAIREWI0352EAU CLAIREWI03520000000000900000000015000000000000000019000000135167158330121
00002301940524062313715/833-0121LD010EAU CLAIREWI0352EAU CLAIREWI03520000000000900000000015000000000000000019000000135167158330121
00002301940524111624715/833-0121LD010EAU CLAIREWI0352EAU CLAIREWI03520000000000900000000015000000000000000019000000135167158330121
00002301940524161239715/833-0121LD010EAU CLAIREWI0352EAU CLAIREWI03520000000000900000000015000000000000000017000000135167158330121
00002301940524013614715/833-0121LD010EAU CLAIREWI0352EAU CLAIREWI03520000000000900000000015000000000000000022000000135167158330121
00002326940523201917904/673-0034LD010DAYTONABCHFL0456DAYTONABCHFL04560000000000000000000005000000000000000017000000000799046732331
00002326940523201945904/673-0034LD010DAYTONABCHFL0456DAYTONABCHFL04560000000000000000000005000000000000000017000000000799046736944
00002331940523204413206/281-7141LD011SEATTLE   WA0674SEATTLE   WA06740000000000000000000005000000000000000017000000000792062815734
00002331940523204842206/281-7141LD011SEATTLE   WA0674SEATTLE   WA06740000000000000000000005000000000000000017000000000792062819637
00002331940523204924206/281-7141LD011SEATTLE   WA0674SEATTLE   WA06740000000000000000000005000000000000000017000000000792062819704
00002331940523204802206/281-7141LD011SEATTLE   WA0674SEATTLE   WA06740000000000000000000005000000000000000017000000000792062819571
00002331940524000458206/281-7141LD011SEATTLE   WA0674SEATTLE   WA06740000000000000000000005000000000000000017000000000792062850940
00002331940524000217206/281-7141LD011SEATTLE   WA0674SEATTLE   WA06740000000000000000000005000000000000000033000000000792062850856
00002331940524000535206/281-7141LD011SEATTLE   WA0674SEATTLE   WA06740000000000000000000005000000000000000064000000000792062850943
00002331940523204211206/281-7141LD011SEATTLE   WA0674SEATTLE   WA06740000000000000000000005000000000000000019000000000792062810953
00002331940523192620206/281-7141LD011SEATTLE   WA0674SEATTLE   WA06740000000000000000000005000000000000000025000000655602062817141
00002331940523204135206/281-7141LD011SEATTLE   WA0674SEATTLE   WA06740000000000000000000005000000000000000019000000000792062810457
00002331940523183509206/281-7141LD011SEATTLE   WA0674SEATTLE   WA06740000000000000000000005000000000000000078000000135162062817141
00002331940523204520206/281-7141LD011SEATTLE   WA0674SEATTLE   WA06740000000000000000000005000000000000000172000000000792062817156
00002331940523204333206/281-7141LD011SEATTLE   WA0674SEATTLE   WA06740000000000000000000005000000000000000019000000000792062815025
00002331940523192527206/281-7141LD011SEATTLE   WA0674SEATTLE   WA06740000000000000000000005000000000000000019000000655602062850109
00002367940523205828217/344-3400LD010CHAMPNURBNIL0370CHAMPNURBNIL03700000000000900000000015000000000000000044000000689142173988745
0000236794052406250921-3400LD010CHAMPNURBNIL0370CHAMPNURBNIL03700000000001600000000023000000000000002081000000604982172559019
00002367940523232326217/344-3400LD010CHAMPNURBNIL0370CHAMPNURBNIL03700000000001200000000019000000000000001358000000689142173988745
00002367940523203915217/344-3400LD010CHAMPNURBNIL0370CHAMPNURBNIL03700000000002800000000037000000000000004236000000689142173988745
00002367940524174918217/344-3400LD010CHAMPNURBNIL0370DANVILLE  IL03700000000000900000000015000000000000000019000000135162174421452
00002367940524125310217/344-3400LD010CHAMPNURBNIL0370DANVILLE  IL03700000000000900000000015000000000000000019000000135162174421452
00002367940523222244217/344-3400LD010CHAMPNURBNIL0370DANVILLE  IL03700000000000900000000015000000000000000019000000135162174421452
00002402940524102847601/582-0286LD010HATTIESBG MS0482HATTIESBG MS04820000000000000000000005000000000000000019000000655606015820286
00002402940524152955601/582-0286LD010HATTIESBG MS0482HATTIESBG MS04820000000000000000000005000000000000000019000000655606015820286
00002402940524052100601/582-0286LD010HATTIESBG MS0482HATTIESBG MS04820000000000000000000005000000000000000017000000655606015820286
00002402940523191155601/582-0286LD010HATTIESBG MS0482HATTIESBG MS04820000000000000000000005000000000000000017000000655606015820286
00002435940524103948804/229-6786LD010WILLIAMSBGVA0252WILLIAMSBGVA02520000000000000000000005000000000000000042000000000798042203528
00002435940524103807804/229-6786LD010WILLIAMSBGVA0252WILLIAMSBGVA02520000000000000000000005000000000000000019000000000798042202051
00002435940524103836804/229-6786LD010WILLIAMSBGVA0252WILLIAMSBGVA02520000000000000000000005000000000000000019000000000798042202670
00002435940524103905804/229-6786LD010WILLIAMSBGVA0252WILLIAMSBGVA02520000000000000000000005000000000000000019000000000798042203254
00002435940524103608804/229-6786LD010WILLIAMSBGVA0252WILLIAMSBGVA02520000000000000000000005000000000000000019000000000798042297453
00002435940524103640804/229-6786LD010WILLIAMSBGVA0252WILLIAMSBGVA02520000000000000000000005000000000000000019000000000798042290899
00002435940524103709804/229-6786LD010WILLIAMSBGVA0252WILLIAMSBGVA02520000000000000000000005000000000000000019000000000798042292617
00002435940524103738804/229-6786LD010WILLIAMSBGVA0252WILLIAMSBGVA02520000000000000000000005000000000000000019000000000798042292740
00002443940523230732818/841-4795LD010BURBANK   CA0730BURBANK   CA07300000000000900000000015000000000000000017000000000798188416543
00002443940523190745818/841-4795LD010BURBANK   CA0730ALHAMBRA  CA07300000000000900000000015000000000000000025000000135168183081800
00002443940523235819818/841-4795LD010BURBANK   CA0730ALHAMBRA  CA07300000000000900000000015000000000000000019000000135168183081800
00002443940524093828818/841-4795LD010BURBANK   CA0730ALHAMBRA  CA07300000000000900000000015000000000000000019000000135168183081800
00002443940524044500818/841-4795LD010BURBANK   CA0730ALHAMBRA  CA07300000000000900000000015000000000000000017000000135168183081800
00002443940524143433818/841-4795LD010BURBANK   CA0730ALHAMBRA  CA07300000000000900000000015000000000000000019000000135168183081800
00002443940524000149818/841-4795LD010BURBANK   CA0730VAN NUYS  CA07300000000000900000000015000000000000000017000000135168187899002
00002443940524044720818/841-4795LD010BURBANK   CA0730VAN NUYS  CA07300000000000900000000015000000000000000017000000135168187899002
00002443940523191102818/841-4795LD010BURBANK   CA0730VAN NUYS  CA07300000000000900000000015000000000000000017000000135168187899002
00002443940524143632818/841-4795LD010BURBANK   CA0730VAN NUYS  CA07300000000000900000000015000000000000000019000000135168187899002
00002443940524094031818/841-4795LD010BURBANK   CA0730VAN NUYS  CA07300000000000900000000015000000000000000019000000135168187899002
00002443940523230504818/841-4795LD010BURBANK   CA0730BURBANK   CA07300000000000900000000015000000000000000017000000000798188414795
00002443940524110801818/841-4795LD010BURBANK   CA0730BURBANK   CA07300000000000900000000015000000000000000017000000655608188414795
00002443940523200038818/841-4795LD010BURBANK   CA0730BURBANK   CA07300000000000900000000015000000000000000019000000655608188414795
00002443940524010339818/841-4795LD010BURBANK   CA0730BURBANK   CA07300000000000900000000015000000000000000017000000655608188414795
00002443940524060606818/841-4795LD010BURBANK   CA0730BURBANK   CA07300000000000900000000015000000000000000019000000655608188414795
00002443940523230654818/841-4795LD010BURBANK   CA0730BURBANK   CA07300000000000900000000015000000000000000017000000000798188414846
00002443940523230600818/841-4795LD010BURBANK   CA0730BURBANK   CA07300000000000900000000015000000000000000017000000000798188419701
00002443940523230532818/841-4795LD010BURBANK   CA0730BURBANK   CA07300000000000900000000015000000000000000017000000000798188416879
00002443940523230628818/841-4795LD010BURBANK   CA0730BURBANK   CA07300000000000900000000015000000000000000017000000000798188414799
00002443940523214837818/841-4795LD010BURBANK   CA0730BURBANK   CA07300000000001800000000026000000000000002333000000689148188426900
00002501940524005828205/272-3411LD010MONTGOMERYAL0478MONTGOMERYAL04780000000000000000000005000000000000000017000000000792052132135
00002630940524173015903/868-0089LI010SHERMAN   TX0552SHERMAN   TX05520000000000000000000005000000000000000022000000000799038934929
00002630940524173045903/868-0089LI010SHERMAN   TX0552SHERMAN   TX05520000000000000000000005000000000000000019000000000799038130301
00002630940524173115903/868-0089LI010SHERMAN   TX0552SHERMAN   TX05520000000000000000000005000000000000000019000000000799038700459
00002630940524173141903/868-0089LI010SHERMAN   TX0552SHERMAN   TX05520000000000000000000005000000000000000022000000000799038702113
00002630940524172934903/868-0089LI010SHERMAN   TX0552SHERMAN   TX05520000000000000000000005000000000000000022000000000799038938284
00002640940524141942603/924-7090LD010PETERBORGHNH0122PETERBORGHNH01220000000000000000000005000000000000000017000000000796039246495
00002640940524142010603/924-7090LD010PETERBORGHNH0122PETERBORGHNH01220000000000000000000005000000000000000017000000000796039246532
00002640940524142108603/924-7090LD010PETERBORGHNH0122PETERBORGHNH01220000000000000000000005000000000000000017000000000796039247534
00002640940524142038603/924-7090LD010PETERBORGHNH0122PETERBORGHNH01220000000000000000000005000000000000000017000000000796039246942
00002666940524102735517/788-9191LD010JACKSON   MI0346JACKSON   MI03460000000000900000000015000000000000000019000000000795177886229
00002666940524103045517/788-9191LD010JACKSON   MI0346JACKSON   MI03460000000000900000000015000000000000000019000000000795177887404
00002666940524102837517/788-9191LD010JACKSON   MI0346JACKSON   MI03460000000000900000000015000000000000000017000000000795177886339
00002666940524103015517/788-9191LD010JACKSON   MI0346JACKSON   MI03460000000000900000000015000000000000000019000000000795177887345
00002666940524103149517/788-9191LD010JACKSON   MI0346JACKSON   MI03460000000000900000000015000000000000000019000000000795177887463
00002666940524102906517/788-9191LD010JACKSON   MI0346JACKSON   MI03460000000000900000000015000000000000000019000000000795177886541
00002666940524102654517/788-9191LD010JACKSON   MI0346JACKSON   MI03460000000000900000000015000000000000000019000000000795177886148
00002666940524102936517/788-9191LD010JACKSON   MI0346JACKSON   MI03460000000000900000000015000000000000000042000000000795177886752
00002666940524103118517/788-9191LD010JACKSON   MI0346JACKSON   MI03460000000000900000000015000000000000000019000000000795177887440
00002666940524102807517/788-9191LD010JACKSON   MI0346JACKSON   MI03460000000000900000000015000000000000000017000000000795177886260
00002666940524103349517/788-9191LD010JACKSON   MI0346JACKSON   MI03460000000000900000000015000000000000000019000000000795177889181
00002666940524103522517/788-9191LD010JACKSON   MI0346JACKSON   MI03460000000000900000000015000000000000000017000000000795177885995
00002666940524103249517/788-9191LD010JACKSON   MI0346JACKSON   MI03460000000000900000000015000000000000000017000000000795177888116
00002666940524103450517/788-9191LD010JACKSON   MI0346JACKSON   MI03460000000000900000000015000000000000000019000000000795177882625
00002666940524103320517/788-9191LD010JACKSON   MI0346JACKSON   MI03460000000000900000000015000000000000000017000000000795177889176
00002666940524103420517/788-9191LD010JACKSON   MI0346JACKSON   MI03460000000000900000000015000000000000000022000000000795177889190
00002666940524103219517/788-9191LD010JACKSON   MI0346JACKSON   MI03460000000000900000000015000000000000000019000000000795177887889
00002674940524133152601/841-0090LD010TUPELO    MS0482TUPELO    MS04820000000000000000000005000000000000000019000000000796016802677
00002674940524133220601/841-0090LD010TUPELO    MS0482TUPELO    MS04820000000000000000000005000000000000000019000000000796018419228
00002674940524091127601/841-0090LD010TUPELO    MS0482TUPELO    MS04820000000000000000000005000000000000000019000000135166018410090
00002674940524102917601/841-0090LD010TUPELO    MS0482TUPELO    MS04820000000000000000000005000000000000000017000000655606018410090
00002674940524153024601/841-0090LD010TUPELO    MS0482TUPELO    MS04820000000000000000000005000000000000000019000000655606018410090
00002674940523191224601/841-0090LD010TUPELO    MS0482TUPELO    MS04820000000000000000000005000000000000000019000000655606018410090
00002674940524002028601/841-0090LD010TUPELO    MS0482TUPELO    MS04820000000000000000000005000000000000000017000000655606018410090
00002674940524052128601/841-0090LD010TUPELO    MS0482TUPELO    MS04820000000000000000000005000000000000000019000000655606018410090
00002674940523233554601/841-0090LD010TUPELO    MS0482TUPELO    MS04820000000000000000000005000000000000000025000000135166018410090
00002674940524140627601/841-0090LD010TUPELO    MS0482TUPELO    MS04820000000000000000000005000000000000000019000000135166018410090
00002674940524042320601/841-0090LD010TUPELO    MS0482TUPELO    MS04820000000000000000000005000000000000000019000000135166018410090
00002674940523183744601/841-0090LD010TUPELO    MS0482TUPELO    MS04820000000000000000000005000000000000000019000000135166018410090
00002674940524133121601/841-0090LD010TUPELO    MS0482TUPELO    MS04820000000000000000000005000000000000000019000000000796018428661
00002674940524133051601/841-0090LD010TUPELO    MS0482TUPELO    MS04820000000000000000000005000000000000000019000000000796018428496
00002711940524090613615/378-5746LI010KINGSPORT TN0956KINGSPORT TN09560000000000000000000005000000000000000019000000000796153785826
00002711940524084943615/378-5746LI010KINGSPORT TN0956KINGSPORT TN09560000000000000000000005000000000000000019000000000796153783914
00002711940524090452615/378-5746LI010KINGSPORT TN0956KINGSPORT TN09560000000000000000000005000000000000000022000000000796153785025
00002711940524090417615/378-5746LI010KINGSPORT TN0956KINGSPORT TN09560000000000000000000005000000000000000022000000000796153784694
00002711940524090646615/378-5746LI010KINGSPORT TN0956KINGSPORT TN09560000000000000000000005000000000000000022000000000796153783215
00002711940524090529615/378-5746LI010KINGSPORT TN0956KINGSPORT TN09560000000000000000000005000000000000000019000000000796153785554
00002711940524085415615/378-5746LI010KINGSPORT TN0956KINGSPORT TN09560000000000000000000005000000000000000022000000000796153785718
00002711940524085222615/378-5746LI010KINGSPORT TN0956KINGSPORT TN09560000000000000000000005000000000000000019000000000796153784916
00002711940524085634615/378-5746LI010KINGSPORT TN0956KINGSPORT TN09560000000000000000000005000000000000000022000000000796153786309
00002711940524085102615/378-5746LI010KINGSPORT TN0956KINGSPORT TN09560000000000000000000005000000000000000019000000000796153784173
00002711940524085333615/378-5746LI010KINGSPORT TN0956KINGSPORT TN09560000000000000000000005000000000000000019000000000796153785492
00002711940524085503615/378-5746LI010KINGSPORT TN0956KINGSPORT TN09560000000000000000000005000000000000000022000000000796153785988
00002711940524085144615/378-5746LI010KINGSPORT TN0956KINGSPORT TN09560000000000000000000005000000000000000019000000000796153784338
00002711940524085303615/378-5746LI010KINGSPORT TN0956KINGSPORT TN09560000000000000000000005000000000000000019000000000796153785392
00002711940524085552615/378-5746LI010KINGSPORT TN0956KINGSPORT TN09560000000000000000000005000000000000000019000000000796153786159
00002711940524085837615/378-5746LI010KINGSPORT TN0956KINGSPORT TN09560000000000000000000005000000000000000178000000000796153785465
00002711940524090305615/378-5746LI010KINGSPORT TN0956KINGSPORT TN09560000000000000000000005000000000000000019000000000796153783938
00002711940524090051615/378-5746LI010KINGSPORT TN0956KINGSPORT TN09560000000000000000000005000000000000000022000000000796153785972
00002711940524090341615/378-5746LI010KINGSPORT TN0956KINGSPORT TN09560000000000000000000005000000000000000019000000000796153784482
00002711940524090126615/378-5746LI010KINGSPORT TN0956KINGSPORT TN09560000000000000000000005000000000000000019000000000796153783288
00002711940524090156615/378-5746LI010KINGSPORT TN0956KINGSPORT TN09560000000000000000000005000000000000000022000000000796153783532
00002711940524090229615/378-5746LI010KINGSPORT TN0956KINGSPORT TN09560000000000000000000005000000000000000019000000000796153783720
00002711940524090007615/378-5746LI010KINGSPORT TN0956KINGSPORT TN09560000000000000000000005000000000000000028000000000796153785805
00002711940524084910615/378-5746LI010KINGSPORT TN0956KINGSPORT TN09560000000000000000000005000000000000000019000000000796153784861
00002711940524085022615/378-5746LI010KINGSPORT TN0956KINGSPORT TN09560000000000000000000005000000000000000019000000000796153784074
00002711940524084826615/378-5746LI010KINGSPORT TN0956KINGSPORT TN09560000000000000000000005000000000000000019000000000796153784235
00002711940524084752615/378-5746LI010KINGSPORT TN0956KINGSPORT TN09560000000000000000000005000000000000000019000000000796153785930
00002760940524021928412/658-5056LD010NEW CASTLEPA0234NEW CASTLEPA02340000000000900000000015000000000000000017000000000794126585755
00002760940524021852412/658-5056LD010NEW CASTLEPA0234NEW CASTLEPA02340000000000900000000015000000000000000017000000000794126585683
00002760940524021814412/658-5056LD010NEW CASTLEPA0234NEW CASTLEPA02340000000000900000000015000000000000000017000000000794126582339
00002770940524130543602/297-2239LD010TUCSON    AZ0668TUCSON    AZ06680000000000000000000005000000000000000017000000000796022974070
00002770940524130501602/297-2239LD010TUCSON    AZ0668TUCSON    AZ06680000000000000000000005000000000000000017000000000796022974013
00002770940524130202602/297-2239LD010TUCSON    AZ0668TUCSON    AZ06680000000000000000000005000000000000000017000000000796022972067
00002770940524125837602/297-2239LD010TUCSON    AZ0668TUCSON    AZ06680000000000000000000005000000000000000017000000000796022971081
00002770940524130258602/297-2239LD010TUCSON    AZ0668TUCSON    AZ06680000000000000000000005000000000000000017000000000796022970702
00002770940524125809602/297-2239LD010TUCSON    AZ0668TUCSON    AZ06680000000000000000000005000000000000000014000000000796022970742
00002770940524130002602/297-2239LD010TUCSON    AZ0668TUCSON    AZ06680000000000000000000005000000000000000039000000000796022971574
00002770940524130327602/297-2239LD010TUCSON    AZ0668TUCSON    AZ06680000000000000000000005000000000000000014000000000796022978934
00002770940524125741602/297-2239LD010TUCSON    AZ0668TUCSON    AZ06680000000000000000000005000000000000000014000000000796022970679
00002770940524130357602/297-2239LD010TUCSON    AZ0668TUCSON    AZ06680000000000000000000005000000000000000039000000000796022973809
00002770940524130040602/297-2239LD010TUCSON    AZ0668TUCSON    AZ06680000000000000000000005000000000000000017000000000796022971789
00002770940524125905602/297-2239LD010TUCSON    AZ0668TUCSON    AZ06680000000000000000000005000000000000000017000000000796022971278
00002770940524130106602/297-2239LD010TUCSON    AZ0668TUCSON    AZ06680000000000000000000005000000000000000014000000000796022971841
00002770940524130830602/297-2239LD010TUCSON    AZ0668TUCSON    AZ06680000000000000000000005000000000000000039000000000796022975450
00002770940524130639602/297-2239LD010TUCSON    AZ0668TUCSON    AZ06680000000000000000000005000000000000000017000000000796022974717
00002770940524130708602/297-2239LD010TUCSON    AZ0668TUCSON    AZ06680000000000000000000005000000000000000017000000000796022974833
00002770940524130736602/297-2239LD010TUCSON    AZ0668TUCSON    AZ06680000000000000000000005000000000000000017000000000796022975115
00002770940524130612602/297-2239LD010TUCSON    AZ0668TUCSON    AZ06680000000000000000000005000000000000000014000000000796022974708
00002770940524130802602/297-2239LD010TUCSON    AZ0668TUCSON    AZ06680000000000000000000005000000000000000017000000000796022975422
00002770940524125414602/297-2239LD010TUCSON    AZ0668TUCSON    AZ06680000000000000000000005000000000000000017000000000796022979825
00002770940524125125602/297-2239LD010TUCSON    AZ0668TUCSON    AZ06680000000000000000000005000000000000000017000000000796022979633
00002770940524125510602/297-2239LD010TUCSON    AZ0668TUCSON    AZ06680000000000000000000005000000000000000017000000000796022972038
00002770940524125346602/297-2239LD010TUCSON    AZ0668TUCSON    AZ06680000000000000000000005000000000000000017000000000796022979799
00002770940524125442602/297-2239LD010TUCSON    AZ0668TUCSON    AZ06680000000000000000000005000000000000000017000000000796022972028
00002770940524125635602/297-2239LD010TUCSON    AZ0668TUCSON    AZ06680000000000000000000005000000000000000039000000000796022970484
00002770940524125318602/297-2239LD010TUCSON    AZ0668TUCSON    AZ06680000000000000000000005000000000000000017000000000796022979791
00002770940524125536602/297-2239LD010TUCSON    AZ0668TUCSON    AZ06680000000000000000000005000000000000000017000000000796022972213
00002770940524125153602/297-2239LD010TUCSON    AZ0668TUCSON    AZ06680000000000000000000005000000000000000017000000000796022979701
00002770940524125606602/297-2239LD010TUCSON    AZ0668TUCSON    AZ06680000000000000000000005000000000000000017000000000796022970192
00002770940524125249602/297-2239LD010TUCSON    AZ0668TUCSON    AZ06680000000000000000000005000000000000000017000000000796022979749
00002770940524125221602/297-2239LD010TUCSON    AZ0668TUCSON    AZ06680000000000000000000005000000000000000017000000000796022979741
00002770940524125933602/297-2239LD010TUCSON    AZ0668TUCSON    AZ06680000000000000000000005000000000000000017000000000796022971430
00002770940524125713602/297-2239LD010TUCSON    AZ0668TUCSON    AZ06680000000000000000000005000000000000000017000000000796022970585
00002770940524130230602/297-2239LD010TUCSON    AZ0668TUCSON    AZ06680000000000000000000005000000000000000017000000000796022970148
00002770940524130433602/297-2239LD010TUCSON    AZ0668TUCSON    AZ06680000000000000000000005000000000000000017000000000796022973819
00002770940524130134602/297-2239LD010TUCSON    AZ0668TUCSON    AZ06680000000000000000000005000000000000000017000000000796022971991
00002771940523183203605/224-7700LD010PIERRE    SD0640PIERRE    SD06400000000000000000000005000000000000000017000000000796052247366
00002771940523183231605/224-7700LD010PIERRE    SD0640PIERRE    SD06400000000000000000000005000000000000000017000000000796052240136
00002771940523183744605/224-7700LD010PIERRE    SD0640PIERRE    SD06400000000000000000000005000000000000000017000000000796052240842
00002771940523183643605/224-7700LD010PIERRE    SD0640PIERRE    SD06400000000000000000000005000000000000000017000000000796052240810
00002771940523183615605/224-7700LD010PIERRE    SD0640PIERRE    SD06400000000000000000000005000000000000000017000000000796052240791
00002771940523183712605/224-7700LD010PIERRE    SD0640PIERRE    SD06400000000000000000000005000000000000000017000000000796052240827
00002771940523183135605/224-7700LD010PIERRE    SD0640PIERRE    SD06400000000000000000000005000000000000000017000000000796052247273
00002771940523183519605/224-7700LD010PIERRE    SD0640PIERRE    SD06400000000000000000000005000000000000000017000000000796052240779
00002771940523183107605/224-7700LD010PIERRE    SD0640PIERRE    SD06400000000000000000000005000000000000000017000000000796052247746
00002771940523183547605/224-7700LD010PIERRE    SD0640PIERRE    SD06400000000000000000000005000000000000000017000000000796052240789
00002771940523183300605/224-7700LD010PIERRE    SD0640PIERRE    SD06400000000000000000000005000000000000000017000000000796052240553
00002771940523183424605/224-7700LD010PIERRE    SD0640PIERRE    SD06400000000000000000000005000000000000000017000000000796052240731
00002771940523183451605/224-7700LD010PIERRE    SD0640PIERRE    SD06400000000000000000000005000000000000000017000000000796052240732
00002771940523183355605/224-7700LD010PIERRE    SD0640PIERRE    SD06400000000000000000000005000000000000000017000000000796052240705
00002771940523183328605/224-7700LD010PIERRE    SD0640PIERRE    SD06400000000000000000000005000000000000000017000000000796052240357
00003031940523231356708/844-0700LD010AURORA    IL0358GLEN ELLYNIL03580000000000900000000015000000000000000011000000655607087904400
00003031940524092218708/844-0700LD010AURORA    IL0358GLEN ELLYNIL03580000000000900000000015000000000000000011000000655607087904400
00003031940524041647708/844-0700LD010AURORA    IL0358GLEN ELLYNIL03580000000000900000000015000000000000000011000000655607087904400
00003031940524142245708/844-0700LD010AURORA    IL0358GLEN ELLYNIL03580000000000900000000015000000000000000011000000655607087904400
00003040940523230920912/923-7590LD010WARNERRBNSGA0446WARNERRBNSGA04460000000000000000000005000000000000000019000000135169129237590
00003040940524183247912/923-7590LD010WARNERRBNSGA0446WARNERRBNSGA04460000000000000000000005000000000000000019000000135169129237590
00003040940524133803912/923-7590LD010WARNERRBNSGA0446WARNERRBNSGA04460000000000000000000005000000000000000019000000135169129237590
00003040940524084417912/923-7590LD010WARNERRBNSGA0446WARNERRBNSGA04460000000000000000000005000000000000000022000000135169129237590
00003114940524053227216/456-0840LD010CANTON    OH0325CANTON    OH03250000000000900000000015000000000000000017000000000792164569268
00003114940524053201216/456-0840LD010CANTON    OH0325CANTON    OH03250000000000900000000015000000000000000014000000000792164568919
00003114940524053253216/456-0840LD010CANTON    OH0325CANTON    OH03250000000000900000000015000000000000000017000000000792164566505
00003114940524053319216/456-0840LD010CANTON    OH0325CANTON    OH03250000000000900000000015000000000000000014000000000792164566562
00003123940524124007503/772-0831LD010MEDFORD   OR0670MEDFORD   OR06700000000000000000000005000000000000000017000000000795038578236
00003123940524124636503/772-0831LD010MEDFORD   OR0670MEDFORD   OR06700000000000000000000005000000000000000019000000000795038578246
00003123940524123803503/772-0831LD010MEDFORD   OR0670MEDFORD   OR06700000000000000000000005000000000000000017000000000795037729427
00003123940524123342503/772-0831LD010MEDFORD   OR0670MEDFORD   OR06700000000000000000000005000000000000000017000000000795037722404
00003123940524123728503/772-0831LD010MEDFORD   OR0670MEDFORD   OR06700000000000000000000005000000000000000014000000000795037724125
00003123940524123536503/772-0831LD010MEDFORD   OR0670MEDFORD   OR06700000000000000000000005000000000000000014000000000795037729685
00003123940524123420503/772-0831LD010MEDFORD   OR0670MEDFORD   OR06700000000000000000000005000000000000000017000000000795037725429
00003123940524123456503/772-0831LD010MEDFORD   OR0670MEDFORD   OR06700000000000000000000005000000000000000017000000000795037729684
00003123940524123614503/772-0831LD010MEDFORD   OR0670MEDFORD   OR06700000000000000000000005000000000000000014000000000795037729733
00003123940524123650503/772-0831LD010MEDFORD   OR0670MEDFORD   OR06700000000000000000000005000000000000000014000000000795037729735
00003123940524123839503/772-0831LD010MEDFORD   OR0670MEDFORD   OR06700000000000000000000005000000000000000019000000000795038578232
00003123940524124037503/772-0831LD010MEDFORD   OR0670MEDFORD   OR06700000000000000000000005000000000000000017000000000795038578237
00003123940524123912503/772-0831LD010MEDFORD   OR0670MEDFORD   OR06700000000000000000000005000000000000000064000000000795038578234
00003123940524124359503/772-0831LD010MEDFORD   OR0670MEDFORD   OR06700000000000000000000005000000000000000017000000000795038578242
00003123940524124519503/772-0831LD010MEDFORD   OR0670MEDFORD   OR06700000000000000000000005000000000000000017000000000795038578244
00003123940524124704503/772-0831LD010MEDFORD   OR0670MEDFORD   OR06700000000000000000000005000000000000000019000000000795038578247
00003123940524124157503/772-0831LD010MEDFORD   OR0670MEDFORD   OR06700000000000000000000005000000000000000017000000000795038578239
00003123940524124317503/772-0831LD010MEDFORD   OR0670MEDFORD   OR06700000000000000000000005000000000000000017000000000795038578241
00003123940524124556503/772-0831LD010MEDFORD   OR0670MEDFORD   OR06700000000000000000000005000000000000000019000000000795038578245
00003123940524124437503/772-0831LD010MEDFORD   OR0670MEDFORD   OR06700000000000000000000005000000000000000014000000000795038578243
00003123940524124237503/772-0831LD010MEDFORD   OR0670MEDFORD   OR06700000000000000000000005000000000000000017000000000795038578240
00003123940524124117503/772-0831LD010MEDFORD   OR0670MEDFORD   OR06700000000000000000000005000000000000000017000000000795038578238
00003154940524090628502/223-0724LD010FRANKFORT KY0462FRANKFORT KY04620000000000000000000005000000000000000019000000000795022230052
00003154940524090832502/223-0724LD010FRANKFORT KY0462FRANKFORT KY04620000000000000000000005000000000000000022000000000795022233270
00003154940524090730502/223-0724LD010FRANKFORT KY0462FRANKFORT KY04620000000000000000000005000000000000000022000000000795022232296
00003154940524090902502/223-0724LD010FRANKFORT KY0462FRANKFORT KY04620000000000000000000005000000000000000019000000000795022233332
00003154940524090701502/223-0724LD010FRANKFORT KY0462FRANKFORT KY04620000000000000000000005000000000000000019000000000795022230572
00003154940524090935502/223-0724LD010FRANKFORT KY0462FRANKFORT KY04620000000000000000000005000000000000000019000000000795022237851
00003154940524090803502/223-0724LD010FRANKFORT KY0462FRANKFORT KY04620000000000000000000005000000000000000019000000000795022232867
00003154940524091003502/223-0724LD010FRANKFORT KY0462FRANKFORT KY04620000000000000000000005000000000000000019000000000795022238214
00003154940524090557502/223-0724LD010FRANKFORT KY0462FRANKFORT KY04620000000000000000000005000000000000000019000000000795022233317
00003154940524090526502/223-0724LD010FRANKFORT KY0462FRANKFORT KY04620000000000000000000005000000000000000019000000000795022231986
00003154940524053912502/223-0724LD010FRANKFORT KY0462FRANKFORT KY04620000000000000000000005000000000000000019000000655605022230724
00003154940524154724502/223-0724LD010FRANKFORT KY0462FRANKFORT KY04620000000000000000000005000000000000000019000000655605022230724
00003154940524003831502/223-0724LD010FRANKFORT KY0462FRANKFORT KY04620000000000000000000005000000000000000019000000655605022230724
00003154940524104644502/223-0724LD010FRANKFORT KY0462FRANKFORT KY04620000000000000000000005000000000000000022000000655605022230724
00003154940523193048502/223-0724LD010FRANKFORT KY0462FRANKFORT KY04620000000000000000000005000000000000000019000000655605022230724
00003174940524124123814/941-2852LD010ALTOONA   PA0230ALTOONA   PA02300000000000900000000015000000000000000019000000655608149412852
00003174940524023407814/943-9847LD010ALTOONA   PA0230ALTOONA   PA02300000000000900000000015000000000000000017000000655608149412852
00003174940524073521814/943-9847LD010ALTOONA   PA0230ALTOONA   PA02300000000000900000000015000000000000000017000000655608149412852
00003174940524174113814/943-9847LD010ALTOONA   PA0230ALTOONA   PA02300000000000900000000015000000000000000017000000655608149412852
00003174940523212937814/943-9847LD010ALTOONA   PA0230ALTOONA   PA02300000000000900000000015000000000000000017000000655608149412852
00003254940524125146402/393-1305LD010OMAHA     NE0644OMAHA     NE06440000000000000000000005000000000000003431000000000784023931305
00003254940524125048402/393-1305LD010OMAHA     NE0644OMAHA     NE06440000000000000000000005000000000000003583000000000784023931305
00003254940524132023402/393-1305LD010OMAHA     NE0644OMAHA     NE06440000000000000000000005000000000000000053000000000784023937820
00003254940524132130402/393-1305LD010OMAHA     NE0644OMAHA     NE06440000000000000000000005000000000000000047000000000784023937988
00003254940524124934402/393-1305LD010OMAHA     NE0644OMAHA     NE06440000000000000000000005000000000000003781000000000784023931305
00003254940524124836402/393-1305LD010OMAHA     NE0644OMAHA     NE06440000000000000000000005000000000000003936000000000784023931305
00003254940524124742402/393-1305LD010OMAHA     NE0644OMAHA     NE06440000000000000000000005000000000000004078000000000784023931305
00003254940524124605402/393-1305LD010OMAHA     NE0644OMAHA     NE06440000000000000000000005000000000000004339000000000784023931305
00003254940524124445402/393-1305LD010OMAHA     NE0644OMAHA     NE06440000000000000000000005000000000000004553000000000784023931305
00003254940524124323402/393-1305LD010OMAHA     NE0644OMAHA     NE06440000000000000000000005000000000000004775000000000784023931305
00003254940524124233402/393-1305LD010OMAHA     NE0644OMAHA     NE06440000000000000000000005000000000000004906000000000784023931305
00003254940524124131402/393-1305LD010OMAHA     NE0644OMAHA     NE06440000000000000000000005000000000000005072000000000784023931305
00003254940524124039402/393-1305LD010OMAHA     NE0644OMAHA     NE06440000000000000000000005000000000000005208000000000784023931305
00003254940524123921402/393-1305LD010OMAHA     NE0644OMAHA     NE06440000000000000000000005000000000000005417000000000784023931305
00003254940524122819402/393-1305LD010OMAHA     NE0644OMAHA     NE06440000000000000000000005000000000000007225000000000784023931305
00003254940524122429402/393-1305LD010OMAHA     NE0644OMAHA     NE06440000000000000000000005000000000000000000000000000784023931305
00003254940524122721402/393-1305LD010OMAHA     NE0644OMAHA     NE06440000000000000000000005000000000000007378000000000784023931305
00003254940524122339402/393-1305LD010OMAHA     NE0644OMAHA     NE06440000000000000000000005000000000000000131000000000784023938024
00003254940524122633402/393-1305LD010OMAHA     NE0644OMAHA     NE06440000000000000000000005000000000000007506000000000784023931305
00003254940524114724402/393-1305LD010OMAHA     NE0644OMAHA     NE06440000000000000000000005000000000000000117000000000784023937063
00003254940524111625402/393-1305LD010OMAHA     NE0644OMAHA     NE06440000000000000000000005000000000000000117000000000784023936987
00003254940524111337402/393-1305LD010OMAHA     NE0644OMAHA     NE06440000000000000000000005000000000000000119000000000784023937069
00003254940524111912402/393-1305LD010OMAHA     NE0644OMAHA     NE06440000000000000000000005000000000000000117000000000784023936962
00003254940524105735402/393-1305LD010OMAHA     NE0644OMAHA     NE06440000000000000000000005000000000000000119000000000784023938112
00003254940524110219402/393-1305LD010OMAHA     NE0644OMAHA     NE06440000000000000000000005000000000000000114000000000784023937947
00003254940524110740402/393-1305LD010OMAHA     NE0644OMAHA     NE06440000000000000000000005000000000000000117000000000784023937630
00003254940524111023402/393-1305LD010OMAHA     NE0644OMAHA     NE06440000000000000000000005000000000000000117000000000784023937128
00003254940524110458402/393-1305LD010OMAHA     NE0644OMAHA     NE06440000000000000000000005000000000000000119000000000784023937739
00003254940524112447402/393-1305LD010OMAHA     NE0644OMAHA     NE06440000000000000000000005000000000000000119000000000784023936453
00003254940524112200402/393-1305LD010OMAHA     NE0644OMAHA     NE06440000000000000000000005000000000000000117000000000784023936675
00003254940524115332402/393-1305LD010OMAHA     NE0644OMAHA     NE06440000000000000000000005000000000000000117000000000784023931305
00003254940524115030402/393-1305LD010OMAHA     NE0644OMAHA     NE06440000000000000000000005000000000000000117000000000784023937025
00003254940524113007402/393-1305LD010OMAHA     NE0644OMAHA     NE06440000000000000000000005000000000000000117000000000784023931683
00003254940524113728402/393-1305LD010OMAHA     NE0644OMAHA     NE06440000000000000000000005000000000000000117000000000784023936438
00003254940524113258402/393-1305LD010OMAHA     NE0644OMAHA     NE06440000000000000000000005000000000000000119000000000784023937335
00003254940524104814402/393-1305LD010OMAHA     NE0644OMAHA     NE06440000000000000000000005000000000000000117000000000784023935942
00003254940524105156402/393-1305LD010OMAHA     NE0644OMAHA     NE06440000000000000000000005000000000000000117000000000784023934837
00003254940524105500402/393-1305LD010OMAHA     NE0644OMAHA     NE06440000000000000000000005000000000000000117000000000784023933128
00003254940524114423402/393-1305LD010OMAHA     NE0644OMAHA     NE06440000000000000000000005000000000000000117000000000784023934803
00003254940524123832402/393-1305LD010OMAHA     NE0644OMAHA     NE06440000000000000000000005000000000000005544000000000784023931305
00003254940523235051402/393-1305LD010OMAHA     NE0644OMAHA     NE06440000000000000000000005000000000000000019000000135164023930903
00003254940523235024402/393-1305LD010OMAHA     NE0644OMAHA     NE06440000000000000000000005000000000000000022000000135164023931305
00003254940524043726402/393-1305LD010OMAHA     NE0644OMAHA     NE06440000000000000000000005000000000000000019000000135164023931305
00003254940524043753402/393-1305LD010OMAHA     NE0644OMAHA     NE06440000000000000000000005000000000000000019000000135164023930903
00003254940523185238402/393-1305LD010OMAHA     NE0644OMAHA     NE06440000000000000000000005000000000000000019000000135164023930903
00003254940523185210402/393-1305LD010OMAHA     NE0644OMAHA     NE06440000000000000000000005000000000000000019000000135164023931305
00003254940524092702402/393-1305LD010OMAHA     NE0644OMAHA     NE06440000000000000000000005000000000000000017000000135164023930903
00003254940524092634402/393-1305LD010OMAHA     NE0644OMAHA     NE06440000000000000000000005000000000000000019000000135164023931305
00003254940524015851402/393-1305LD010OMAHA     NE0644OMAHA     NE06440000000000000000000005000000000000000017000000000794023930954
00003254940524000510402/393-1305LD010OMAHA     NE0644OMAHA     NE06440000000000000000000005000000000000000042000000000794023933461
00003254940524000238402/393-1305LD010OMAHA     NE0644OMAHA     NE06440000000000000000000005000000000000000019000000000794023931622
00003254940524000210402/393-1305LD010OMAHA     NE0644OMAHA     NE06440000000000000000000005000000000000000019000000000794023930978
00003254940524000436402/393-1305LD010OMAHA     NE0644OMAHA     NE06440000000000000000000005000000000000000042000000000794023932847
00003254940524000011402/393-1305LD010OMAHA     NE0644OMAHA     NE06440000000000000000000005000000000000000019000000000794023938492
00003254940523235935402/393-1305LD010OMAHA     NE0644OMAHA     NE06440000000000000000000005000000000000000042000000000794023938211
00003254940523235909402/393-1305LD010OMAHA     NE0644OMAHA     NE06440000000000000000000005000000000000000014000000000794023937988
00003254940524000140402/393-1305LD010OMAHA     NE0644OMAHA     NE06440000000000000000000005000000000000000022000000000794023930408
00003254940524000546402/393-1305LD010OMAHA     NE0644OMAHA     NE06440000000000000000000005000000000000000019000000000794023933576
00003254940524000616402/393-1305LD010OMAHA     NE0644OMAHA     NE06440000000000000000000005000000000000000017000000000794023934534
00003254940524000110402/393-1305LD010OMAHA     NE0644OMAHA     NE06440000000000000000000005000000000000000022000000000794023930367
00003254940523235621402/393-1305LD010OMAHA     NE0644OMAHA     NE06440000000000000000000005000000000000000017000000000794023936453
00003254940524000040402/393-1305LD010OMAHA     NE0644OMAHA     NE06440000000000000000000005000000000000000022000000000794023938959
00003254940523235549402/393-1305LD010OMAHA     NE0644OMAHA     NE06440000000000000000000005000000000000000028000000000794023935901
00003254940523235815402/393-1305LD010OMAHA     NE0644OMAHA     NE06440000000000000000000005000000000000000017000000000794023935942
00003254940523235715402/393-1305LD010OMAHA     NE0644OMAHA     NE06440000000000000000000005000000000000000017000000000794023937074
00003254940523235741402/393-1305LD010OMAHA     NE0644OMAHA     NE06440000000000000000000005000000000000000039000000000794023938112
00003254940524015825402/393-1305LD010OMAHA     NE0644OMAHA     NE06440000000000000000000005000000000000000017000000000794023930905
00003254940524123736402/393-1305LD010OMAHA     NE0644OMAHA     NE06440000000000000000000005000000000000005694000000000784023931305
00003254940524123632402/393-1305LD010OMAHA     NE0644OMAHA     NE06440000000000000000000005000000000000005864000000000784023931305
00003254940524131453402/393-1305LD010OMAHA     NE0644OMAHA     NE06440000000000000000000005000000000000001211000000000784023931305
00003254940524142141402/393-1305LD010OMAHA     NE0644OMAHA     NE06440000000000000000000005000000000000000019000000135164023930903
00003311940523230850706/327-0597LD010COLUMBUS  GA0438COLUMBUS  GA04380000000000000000000005000000000000000019000000135167063270597
00003311940524084346706/327-0597LD010COLUMBUS  GA0438COLUMBUS  GA04380000000000000000000005000000000000000022000000135167063270597
00003311940524035753706/327-0597LD010COLUMBUS  GA0438COLUMBUS  GA04380000000000000000000005000000000000000017000000135167063270597
00003311940524183215706/327-0597LD010COLUMBUS  GA0438COLUMBUS  GA04380000000000000000000005000000000000000019000000135167063270597
00003311940524133733706/327-0597LD010COLUMBUS  GA0438COLUMBUS  GA04380000000000000000000005000000000000000017000000135167063270597
00003362940524145343303/832-3447LD010DENVER    CO0656DENVER    CO06560000000000000000000005000000000000000014000000000793038323697
00003362940523185906303/832-3447LD010DENVER    CO0656DENVERSULLCO06560000000000000000000005000000000000002544000000636613036998222
00003362940524145236303/832-3447LD010DENVER    CO0656DENVER    CO06560000000000000000000005000000000000000017000000000793038321817
00003362940524013046303/832-3447LD010DENVER    CO0656DENVER    CO06560000000000000000000005000000000000000019000000135163038323447
00003362940523204054303/832-3447LD010DENVER    CO0656DENVER    CO06560000000000000000000005000000000000000017000000135163038323447
00003362940524003652303/832-3447LD010DENVER    CO0656DENVER    CO06560000000000000000000005000000000000000053000000000783038323449
00003362940524003524303/832-3447LD010DENVER    CO0656DENVER    CO06560000000000000000000005000000000000000089000000000783038323449
00003362940524145304303/832-3447LD010DENVER    CO0656DENVER    CO06560000000000000000000005000000000000000017000000000793038323695
00003362940524134550303/832-3447LD010DENVER    CO0656LITTLETON CO06560000000000000000000005000000000000000642000000636613039734222
00003362940523195051303/832-3447LD010DENVER    CO0656LITTLETON CO06560000000000000000000005000000000000000411000000636613039734222
00003412940523164103408/754-2206LD010SALINAS   CA0736SALINAS   CA07360000000000900000000015000000000000000014000000000794087542206
00003447940524041852509/747-3011LD010SPOKANE   WA0676SPOKANE   WA06760000000000000000000005000000000000000017000000135165096241549
00003447940524153738509/747-3011LD010SPOKANE   WA0676SPOKANE   WA06760000000000000000000005000000000000000019000000655605096241549
00003447940524103705509/747-3011LD010SPOKANE   WA0676SPOKANE   WA06760000000000000000000005000000000000000019000000655605096241549
00003447940524053354509/747-3011LD010SPOKANE   WA0676SPOKANE   WA06760000000000000000000005000000000000000019000000655605096241549
00003447940523192758509/747-3011LD010SPOKANE   WA0676SPOKANE   WA06760000000000000000000005000000000000000017000000655605096241549
00003447940524003247509/747-3011LD010SPOKANE   WA0676SPOKANE   WA06760000000000000000000005000000000000000017000000655605096241549
00003447940524140816509/747-3011LD010SPOKANE   WA0676SPOKANE   WA06760000000000000000000005000000000000000017000000135165096241549
00003447940523233155509/747-3011LD010SPOKANE   WA0676SPOKANE   WA06760000000000000000000005000000000000000017000000135165096241549
00003447940523184055509/747-3011LD010SPOKANE   WA0676SPOKANE   WA06760000000000000000000005000000000000000019000000135165096241549
00003447940524091156509/747-3011LD010SPOKANE   WA0676SPOKANE   WA06760000000000000000000005000000000000000017000000135165096241549
00003447940524091130509/747-3011LD010SPOKANE   WA0676SPOKANE   WA06760000000000000000000005000000000000000019000000135165097473011
00003447940523184029509/747-3011LD010SPOKANE   WA0676SPOKANE   WA06760000000000000000000005000000000000000019000000135165097473011
00003447940523233128509/747-3011LD010SPOKANE   WA0676SPOKANE   WA06760000000000000000000005000000000000000022000000135165097473011
00003447940524140750509/747-3011LD010SPOKANE   WA0676SPOKANE   WA06760000000000000000000005000000000000000019000000135165097473011
00003447940524041826509/747-3011LD010SPOKANE   WA0676SPOKANE   WA06760000000000000000000005000000000000000019000000135165097473011
00003447940523231334509/747-3011LD010SPOKANE   WA0676SPOKANE   WA06760000000000000000000005000000000000000017000000000795097472509
00003447940523231306509/747-3011LD010SPOKANE   WA0676SPOKANE   WA06760000000000000000000005000000000000000017000000000795097470473
00003447940523231534509/747-3011LD010SPOKANE   WA0676SPOKANE   WA06760000000000000000000005000000000000000019000000000795097475964
00003447940523231456509/747-3011LD010SPOKANE   WA0676SPOKANE   WA06760000000000000000000005000000000000000019000000000795097475960
00003447940523231725509/747-3011LD010SPOKANE   WA0676SPOKANE   WA06760000000000000000000005000000000000000017000000000795097478645
00003447940523231657509/747-3011LD010SPOKANE   WA0676SPOKANE   WA06760000000000000000000005000000000000000017000000000795097478614
00003447940524003559509/747-3011LD010SPOKANE   WA0676SPOKANE   WA06760000000000000000000005000000000000000019000000655605097473011
00003447940523193158509/747-3011LD010SPOKANE   WA0676SPOKANE   WA06760000000000000000000005000000000000000019000000655605097473011
00003447940524053711509/747-3011LD010SPOKANE   WA0676SPOKANE   WA06760000000000000000000005000000000000000017000000655605097473011
00003447940524104046509/747-3011LD010SPOKANE   WA0676SPOKANE   WA06760000000000000000000005000000000000000019000000655605097473011
00003447940524154113509/747-3011LD010SPOKANE   WA0676SPOKANE   WA06760000000000000000000005000000000000000017000000655605097473011
00003461940524051717515/277-9684LD010DES MOINESIA0632DES MOINESIA06320000000000000000000005000000000000000019000000000795152770715
00003461940524003053515/277-9684LD010DES MOINESIA0632DES MOINESIA06320000000000000000000005000000000000000017000000000795152771014
00003461940524003027515/277-9684LD010DES MOINESIA0632DES MOINESIA06320000000000000000000005000000000000000017000000000795152770249
00003547940524112700405/242-0113LD010ENID      OK0536ENID      OK05360000000000000000000005000000000000000017000000000794052420116
00003547940524112739405/242-0113LD010ENID      OK0536ENID      OK05360000000000000000000005000000000000000017000000000794052420125
00003547940524062040405/242-0113LD010ENID      OK0536ENID      OK05360000000000000000000005000000000000000017000000655604052420113
00003547940524162720405/242-0113LD010ENID      OK0536ENID      OK05360000000000000000000005000000000000000025000000655604052420113
00003547940523201418405/242-0113LD010ENID      OK0536ENID      OK05360000000000000000000005000000000000000017000000655604052420113
00003547940524112636405/242-0113LD010ENID      OK0536ENID      OK05360000000000000000000005000000000000000019000000655604052420113
00003547940524011920405/242-0113LD010ENID      OK0536ENID      OK05360000000000000000000005000000000000000025000000655604052420113
00003547940524112834405/242-0113LD010ENID      OK0536ENID      OK05360000000000000000000005000000000000000017000000000794052420132
00003547940524002658405/242-0113LD010ENID      OK0536ENID      OK05360000000000000000000005000000000000000022000000135164052420113
00003547940523192922405/242-0113LD010ENID      OK0536ENID      OK05360000000000000000000005000000000000000019000000135164052420113
00003547940524150001405/242-0113LD010ENID      OK0536ENID      OK05360000000000000000000005000000000000000022000000135164052420113
00003547940524051404405/242-0113LD010ENID      OK0536ENID      OK05360000000000000000000005000000000000000019000000135164052420113
00003547940524100359405/242-0113LD010ENID      OK0536ENID      OK05360000000000000000000005000000000000000022000000135164052420113
00003547940524112806405/242-0113LD010ENID      OK0536ENID      OK05360000000000000000000005000000000000000019000000000794052420115
00003547940524112957405/242-0113LD010ENID      OK0536ENID      OK05360000000000000000000005000000000000000019000000000794052420149
00003547940524112930405/242-0113LD010ENID      OK0536ENID      OK05360000000000000000000005000000000000000017000000000794052420139
00003547940524112902405/242-0113LD010ENID      OK0536ENID      OK05360000000000000000000005000000000000000017000000000794052420136
00003606940524102608407/471-9310LD010W PALM BCHFL0460W PALM BCHFL04600000000000000000000005000000000000000017000000000794074719310
00003625940524021426814/234-3853LD010STATECOLLGPA0230STATECOLLGPA02300000000001000000000017000000000000000889000000645538142371193
00003625940523201734814/234-3853LD010STATECOLLGPA0230STATECOLLGPA02300000000001700000000025000000000000002192000000661688142371193
00003625940524063043814/234-3853LD010STATECOLLGPA0230STATECOLLGPA02300000000001100000000018000000000000001000000000661688142371193
00003625940524153259814/234-3853LD010STATECOLLGPA0230STATECOLLGPA02300000000001100000000018000000000000001103000000661688142371193
00003625940523205757814/234-3853LD010STATECOLLGPA0230STATECOLLGPA02300000000001200000000019000000000000001361000000661688142371193
00003625940524032805814/234-3853LD010STATECOLLGPA0230STATECOLLGPA02300000000001200000000019000000000000001408000000661688142371193
00003625940524050052814/234-3853LD010STATECOLLGPA0230STATECOLLGPA02300000000001500000000022000000000000001764000000661688142371193
00003625940524092800814/234-3853LD010STATECOLLGPA0230STATECOLLGPA02300000000001100000000018000000000000001158000000661688142371193
00003625940524010621814/234-3853LD010STATECOLLGPA0230STATECOLLGPA02300000000001000000000017000000000000000817000000661688142371193
00003625940524134726814/234-3853LD010STATECOLLGPA0230STATECOLLGPA02300000000000900000000015000000000000000244000000661688142371193
00003625940524152830814/234-3853LD010STATECOLLGPA0230STATECOLLGPA02300000000000900000000015000000000000000169000000661688142371193
00003625940524085131814/234-3853LD010STATECOLLGPA0230STATECOLLGPA02300000000001000000000017000000000000000889000000661688142371193
00003625940524142733814/234-3853LD010STATECOLLGPA0230STATECOLLGPA02300000000001200000000019000000000000001300000000661688142371193
00003625940524013129814/234-3853LD010STATECOLLGPA0230STATECOLLGPA02300000000001800000000026000000000000002392000000661688142371193
00003625940524022129814/234-3853LD010STATECOLLGPA0230STATECOLLGPA02300000000000900000000015000000000000000483000000645538142371193
00003650940524031053312/922-6571LD017CHICAGO   IL0358CHICAGO   IL03580000000000900000000015000000000000000019000000135163129224601
00003650940524042102312/922-6571LD017CHICAGO   IL0358LAKEFORESTIL03580000000000900000000015000000000000000017000000655607082957075
00003650940524031328312/922-6571LD017CHICAGO   IL0358GLEN ELLYNIL03580000000000900000000015000000000000000019000000135167087904955
00003652940524153349609/394-1900LD010TRENTON   NJ0222TRENTON   NJ02220000000000900000000015000000000000000019000000135166093941900
00003652940524164941609/394-1900LD010TRENTON   NJ0222TRENTON   NJ02220000000000900000000015000000000000000017000000655606093941900
00003652940524014020609/394-1900LD010TRENTON   NJ0222TRENTON   NJ02220000000000900000000015000000000000000017000000655606093941900
00003652940524114926609/394-1900LD010TRENTON   NJ0222TRENTON   NJ02220000000000900000000015000000000000000019000000655606093941900
00003652940523203259609/394-1900LD010TRENTON   NJ0222TRENTON   NJ02220000000000900000000015000000000000000017000000655606093941900
00003652940524064030609/394-1900LD010TRENTON   NJ0222TRENTON   NJ02220000000000900000000015000000000000000017000000655606093941900
00003652940524054850609/394-1900LD010TRENTON   NJ0222TRENTON   NJ02220000000000900000000015000000000000000019000000135166093941900
00003652940524010137609/394-1900LD010TRENTON   NJ0222TRENTON   NJ02220000000000900000000015000000000000000019000000135166093941900
00003652940524103821609/394-1900LD010TRENTON   NJ0222TRENTON   NJ02220000000000900000000015000000000000000019000000135166093941900
00003652940523200357609/394-1900LD010TRENTON   NJ0222TRENTON   NJ02220000000000900000000015000000000000000019000000135166093941900
00003652940523213515609/394-1900LD010TRENTON   NJ0222TRENTON   NJ02220000000000900000000015000000000000000017000000000796093941900
00003654940524095633810/424-8024LD010SOUTHFIELDMI0340ROSEVILLE MI03400000000000900000000015000000000000000019000000135168107741000
00003654940524002042810/424-8024LD010SOUTHFIELDMI0340ROSEVILLE MI03400000000000900000000015000000000000000019000000135168107741000
00003654940523192252810/424-8024LD010SOUTHFIELDMI0340ROSEVILLE MI03400000000000900000000015000000000000000019000000135168107741000
00003654940524145143810/424-8024LD010SOUTHFIELDMI0340ROSEVILLE MI03400000000000900000000015000000000000000017000000135168107741000
00003654940524050900810/424-8024LD010SOUTHFIELDMI0340ROSEVILLE MI03400000000000900000000015000000000000000019000000135168107741000
00003654940524050342810/424-8024LD010SOUTHFIELDMI0340DETROIT   MI03400000000000900000000015000000000000000019000000135163139633460
00003654940524161733810/424-8024LD010SOUTHFIELDMI0340DETROIT   MI03400000000000900000000015000000000000000019000000655603139633460
00003654940524010815810/424-8024LD010SOUTHFIELDMI0340DETROIT   MI03400000000000900000000015000000000000000017000000655603139633460
00003654940524060846810/424-8024LD010SOUTHFIELDMI0340DETROIT   MI03400000000000900000000015000000000000000017000000655603139633460
00003654940524111651810/424-8024LD010SOUTHFIELDMI0340DETROIT   MI03400000000000900000000015000000000000000019000000655603139633460
00003654940523195930810/424-8024LD010SOUTHFIELDMI0340DETROIT   MI03400000000000900000000015000000000000000019000000655603139633460
00003654940524094938810/424-8024LD010SOUTHFIELDMI0340DETROIT   MI03400000000000900000000015000000000000000022000000135163139633460
00003654940523191652810/424-8024LD010SOUTHFIELDMI0340DETROIT   MI03400000000000900000000015000000000000000019000000135163139633460
00003654940524144528810/424-8024LD010SOUTHFIELDMI0340DETROIT   MI03400000000000900000000015000000000000000019000000135163139633460
00003654940524001436810/424-8024LD010SOUTHFIELDMI0340DETROIT   MI03400000000000900000000015000000000000000017000000135163139633460
00003661940523212658304/345-9575LD010CHARLESTONWV0254CHARLESTONWV02540000000000900000000015000000000000000017000000000793043459615
00003661940523212550304/345-9575LD010CHARLESTONWV0254CHARLESTONWV02540000000000900000000015000000000000000019000000000793043459607
00003661940523212318304/345-9575LD010CHARLESTONWV0254CHARLESTONWV02540000000000900000000015000000000000000019000000000793043459504
00003661940523212346304/345-9575LD010CHARLESTONWV0254CHARLESTONWV02540000000000900000000015000000000000000017000000000793043459594
00003661940523212512304/345-9575LD010CHARLESTONWV0254CHARLESTONWV02540000000000900000000015000000000000000017000000000793043459599
00003661940523212444304/345-9575LD010CHARLESTONWV0254CHARLESTONWV02540000000000900000000015000000000000000017000000000793043459598
00003661940523212414304/345-9575LD010CHARLESTONWV0254CHARLESTONWV02540000000000900000000015000000000000000019000000000793043459596
00003661940523212726304/345-9575LD010CHARLESTONWV0254CHARLESTONWV02540000000000900000000015000000000000000019000000000793043459617
00003661940523212619304/345-9575LD010CHARLESTONWV0254CHARLESTONWV02540000000000900000000015000000000000000017000000000793043459608
00003661940523212249304/345-9575LD010CHARLESTONWV0254CHARLESTONWV02540000000000900000000015000000000000000017000000000793043459503
00003662940523212723215/865-6978LD010BETHLEHEM PA0228BETHLEHEM PA02280000000000900000000015000000000000000019000000655602158656978
00003662940524023116215/865-6978LD010BETHLEHEM PA0228BETHLEHEM PA02280000000000900000000015000000000000000017000000655602158656978
00003662940524173858215/865-6978LD010BETHLEHEM PA0228BETHLEHEM PA02280000000000900000000015000000000000000017000000655602158656978
00003662940524073305215/865-6978LD010BETHLEHEM PA0228BETHLEHEM PA02280000000000900000000015000000000000000019000000655602158656978
00003662940524175205215/865-6978LD010BETHLEHEM PA0228BETHLEHEM PA02280000000000900000000015000000000000000017000000000792158659965
00003662940524175120215/865-6978LD010BETHLEHEM PA0228BETHLEHEM PA02280000000000900000000015000000000000000017000000000792158653110
00003662940524175027215/865-6978LD010BETHLEHEM PA0228BETHLEHEM PA02280000000000900000000015000000000000000017000000000792158652154
00003662940524175054215/865-6978LD010BETHLEHEM PA0228BETHLEHEM PA02280000000000900000000015000000000000000017000000000792158653276
00003662940524174945215/865-6978LD010BETHLEHEM PA0228BETHLEHEM PA02280000000000900000000015000000000000000014000000000792158658187
00003675940524152445508/791-9000LD010WORCESTER MA0128WORCESTER MA01280000000000000000000005000000000000000042000000000795087916574
00003675940524152354508/791-9000LD010WORCESTER MA0128WORCESTER MA01280000000000000000000005000000000000000014000000000795087911343
00003675940524152325508/791-9000LD010WORCESTER MA0128WORCESTER MA01280000000000000000000005000000000000000017000000000795087910622
00003675940524152523508/791-9000LD010WORCESTER MA0128WORCESTER MA01280000000000000000000005000000000000000017000000000795087912988
00003677940523235023417/781-8718LD010JOPLIN    MO0522JOPLIN    MO05220000000000000000000005000000000000000017000000000794177817614
00003677940523235401417/781-8718LD010JOPLIN    MO0522JOPLIN    MO05220000000000000000000005000000000000000017000000000794176230743
00003677940523235239417/781-8718LD010JOPLIN    MO0522JOPLIN    MO05220000000000000000000005000000000000000017000000000794176230728
00003677940523235145417/781-8718LD010JOPLIN    MO0522JOPLIN    MO05220000000000000000000005000000000000000017000000000794176230652
00003677940523235211417/781-8718LD010JOPLIN    MO0522JOPLIN    MO05220000000000000000000005000000000000000017000000000794176230723
00003677940523235307417/781-8718LD010JOPLIN    MO0522JOPLIN    MO05220000000000000000000005000000000000000017000000000794176230730
00003677940523235335417/781-8718LD010JOPLIN    MO0522JOPLIN    MO05220000000000000000000005000000000000000017000000000794176230736
00003677940523235119417/781-8718LD010JOPLIN    MO0522JOPLIN    MO05220000000000000000000005000000000000000017000000000794177817612
00003677940523232923417/781-8718LD010JOPLIN    MO0522JOPLIN    MO05220000000000000000000005000000000000000022000000135164177818718
00003677940524090520417/781-8718LD010JOPLIN    MO0522JOPLIN    MO05220000000000000000000005000000000000000019000000135164177818718
00003677940524140033417/781-8718LD010JOPLIN    MO0522JOPLIN    MO05220000000000000000000005000000000000000019000000135164177818718
00003677940523183131417/781-8718LD010JOPLIN    MO0522JOPLIN    MO05220000000000000000000005000000000000000017000000135164177818718
00003677940524041732417/781-8718LD010JOPLIN    MO0522JOPLIN    MO05220000000000000000000005000000000000000019000000135164177818718
00003677940523235051417/781-8718LD010JOPLIN    MO0522JOPLIN    MO05220000000000000000000005000000000000000019000000000794177810742
00003677940524102604417/781-8718LD010JOPLIN    MO0522JOPLIN    MO05220000000000000000000005000000000000000019000000655604177818718
00003677940524152707417/781-8718LD010JOPLIN    MO0522JOPLIN    MO05220000000000000000000005000000000000000017000000655604177818718
00003677940524001740417/781-8718LD010JOPLIN    MO0522JOPLIN    MO05220000000000000000000005000000000000000019000000655604177818718
00003677940523190907417/781-8718LD010JOPLIN    MO0522JOPLIN    MO05220000000000000000000005000000000000000019000000655604177818718
00003677940524051818417/781-8718LD010JOPLIN    MO0522JOPLIN    MO05220000000000000000000005000000000000000019000000655604177818718
00003720940524134439919/765-1221LD010WINSTN SALNC0424WINSTN SALNC04240000000000000000000005000000000000000019000000000799196592026
00003720940524134508919/765-1221LD010WINSTN SALNC0424WINSTN SALNC04240000000000000000000005000000000000000019000000000799196592028
00003720940524134324919/765-1221LD010WINSTN SALNC0424WINSTN SALNC04240000000000000000000005000000000000000019000000000799196592017
00003720940524134645919/765-1221LD010WINSTN SALNC0424WINSTN SALNC04240000000000000000000005000000000000000064000000000799196592038
00003720940524134356919/765-1221LD010WINSTN SALNC0424WINSTN SALNC04240000000000000000000005000000000000000019000000000799196592024
00003720940524134731919/765-1221LD010WINSTN SALNC0424WINSTN SALNC04240000000000000000000005000000000000000022000000000799196592045
00003720940524134540919/765-1221LD010WINSTN SALNC0424WINSTN SALNC04240000000000000000000005000000000000000019000000000799196592031
00003720940524134802919/765-1221LD010WINSTN SALNC0424WINSTN SALNC04240000000000000000000005000000000000000019000000000799196592047
00003720940524113553919/765-1221LD010WINSTN SALNC0424WINSTN SALNC04240000000000000000000005000000000000000017000000655609197651221
00003720940523201901919/765-1221LD010WINSTN SALNC0424WINSTN SALNC04240000000000000000000005000000000000000017000000655609197651221
00003720940524062759919/765-1221LD010WINSTN SALNC0424WINSTN SALNC04240000000000000000000005000000000000000017000000655609197651221
00003720940524012703919/765-1221LD010WINSTN SALNC0424WINSTN SALNC04240000000000000000000005000000000000000017000000655609197651221
00003752940524125736708/698-9800LI010PARK RIDGEIL0358LANSING   IL03580000000000900000000015000000000000000017000000135167084741422
00003752940524175343708/698-9800LI010PARK RIDGEIL0358LANSING   IL03580000000000900000000015000000000000000019000000135167084741422
00003752940524175722708/698-9800LI010PARK RIDGEIL0358PARK RIDGEIL03580000000000000000000005000000000000000019000000135167086989800
00003752940524130117708/698-9800LI010PARK RIDGEIL0358PARK RIDGEIL03580000000000000000000005000000000000000019000000135167086989800
00003752940524080612708/698-9800LI010PARK RIDGEIL0358PARK RIDGEIL03580000000000000000000005000000000000000019000000135167086989800
00003752940524104845708/698-9800LI010PARK RIDGEIL0358PARK RIDGEIL03580000000000000000000005000000000000000017000000000797086989811
00003774940524091048206/452-6800LD010PT ANGELESWA0674PT ANGELESWA06740000000000000000000005000000000000000019000000135162064526800
00003774940523183948206/452-6800LD010PT ANGELESWA0674PT ANGELESWA06740000000000000000000005000000000000000019000000135162064526800
00003774940523233049206/452-6800LD010PT ANGELESWA0674PT ANGELESWA06740000000000000000000005000000000000000019000000135162064526800
00003774940524041747206/452-6800LD010PT ANGELESWA0674PT ANGELESWA06740000000000000000000005000000000000000019000000135162064526800
00003774940524140711206/452-6800LD010PT ANGELESWA0674PT ANGELESWA06740000000000000000000005000000000000000019000000135162064526800
00003774940524033013206/452-6800LD010PT ANGELESWA0674PT ANGELESWA06740000000000000000000005000000000000000017000000000792064528799
00003774940524153635206/452-6800LD010PT ANGELESWA0674PT ANGELESWA06740000000000000000000005000000000000000019000000655602064526800
00003774940524103604206/452-6800LD010PT ANGELESWA0674PT ANGELESWA06740000000000000000000005000000000000000025000000655602064526800
00003774940524053256206/452-6800LD010PT ANGELESWA0674PT ANGELESWA06740000000000000000000005000000000000000019000000655602064526800
00003774940523192655206/452-6800LD010PT ANGELESWA0674PT ANGELESWA06740000000000000000000005000000000000000019000000655602064526800
00003774940524003148206/452-6800LD010PT ANGELESWA0674PT ANGELESWA06740000000000000000000005000000000000000025000000655602064526800
00003774940524032916206/452-6800LD010PT ANGELESWA0674PT ANGELESWA06740000000000000000000005000000000000000017000000000792064526801
00003774940524032945206/452-6800LD010PT ANGELESWA0674PT ANGELESWA06740000000000000000000005000000000000000017000000000792064527187
00003774940524033115206/452-6800LD010PT ANGELESWA0674PT ANGELESWA06740000000000000000000005000000000000000064000000000792064529592
00003774940524033045206/452-6800LD010PT ANGELESWA0674PT ANGELESWA06740000000000000000000005000000000000000014000000000792064529298
00003775940524121608614/345-8953LD010NEWARK    OH0324NEWARK    OH03240000000000000000000005000000000000000022000000655606143458953
00003775940523210121614/345-8953LD010NEWARK    OH0324NEWARK    OH03240000000000000000000005000000000000000025000000655606143458953
00003775940524070840614/345-8953LD010NEWARK    OH0324NEWARK    OH03240000000000000000000005000000000000000014000000655606143458953
00003775940524171717614/345-8953LD010NEWARK    OH0324NEWARK    OH03240000000000000000000005000000000000000019000000655606143458953
00003775940524020727614/345-8953LD010NEWARK    OH0324NEWARK    OH03240000000000000000000005000000000000000022000000655606143458953
00004077940524171943919/549-9025LI012DURHAM    NC0426DURHAM    NC04260000000000000000000005000000000000000017000000000799195498531
00004077940524171901919/549-9025LI012DURHAM    NC0426DURHAM    NC04260000000000000000000005000000000000000017000000000799195498527
00004077940524171749919/549-9025LI012DURHAM    NC0426DURHAM    NC04260000000000000000000005000000000000000017000000000799195498220
00004077940524113432919/549-9025LI012DURHAM    NC0426DURHAM    NC04260000000000000000000005000000000000000017000000655609195498952
00004077940523201742919/549-9025LI012DURHAM    NC0426DURHAM    NC04260000000000000000000005000000000000000017000000655609195498952
00004077940524012546919/549-9025LI012DURHAM    NC0426DURHAM    NC04260000000000000000000005000000000000000017000000655609195498952
00004077940524062640919/549-9025LI012DURHAM    NC0426DURHAM    NC04260000000000000000000005000000000000000017000000655609195498952
00004077940524163532919/549-9025LI012DURHAM    NC0426DURHAM    NC04260000000000000000000005000000000000000017000000655609195498952
00004077940524173104919/549-9025LI012DURHAM    NC0426DURHAM    NC04260000000000000000000005000000000000000017000000000799195494884
00004077940524172520919/549-9025LI012DURHAM    NC0426DURHAM    NC04260000000000000000000005000000000000000017000000000799195494872
00004077940524172550919/549-9025LI012DURHAM    NC0426DURHAM    NC04260000000000000000000005000000000000000017000000000799195494873
00004077940524173034919/549-9025LI012DURHAM    NC0426DURHAM    NC04260000000000000000000005000000000000000017000000000799195494883
00004077940524173135919/549-9025LI012DURHAM    NC0426DURHAM    NC04260000000000000000000005000000000000000017000000000799195494886
00004077940524172242919/549-9025LI012DURHAM    NC0426DURHAM    NC04260000000000000000000005000000000000000017000000000799195494867
00004077940524172312919/549-9025LI012DURHAM    NC0426DURHAM    NC04260000000000000000000005000000000000000017000000000799195494868
00004077940524172620919/549-9025LI012DURHAM    NC0426DURHAM    NC04260000000000000000000005000000000000000017000000000799195494874
00004077940524172653919/549-9025LI012DURHAM    NC0426DURHAM    NC04260000000000000000000005000000000000000017000000000799195494875
00004077940524173506919/549-9025LI012DURHAM    NC0426DURHAM    NC04260000000000000000000005000000000000000017000000000799195494894
00004077940524173306919/549-9025LI012DURHAM    NC0426DURHAM    NC04260000000000000000000005000000000000000019000000000799195494889
00004077940524173336919/549-9025LI012DURHAM    NC0426DURHAM    NC04260000000000000000000005000000000000000019000000000799195494890
00004077940524173436919/549-9025LI012DURHAM    NC0426DURHAM    NC04260000000000000000000005000000000000000017000000000799195494893
00004077940524173406919/549-9025LI012DURHAM    NC0426DURHAM    NC04260000000000000000000005000000000000000017000000000799195494891
00004077940524173542919/549-9025LI012DURHAM    NC0426DURHAM    NC04260000000000000000000005000000000000000017000000000799195494896
00004077940524172044919/549-9025LI012DURHAM    NC0426DURHAM    NC04260000000000000000000005000000000000000017000000000799195498551
00004077940524172014919/549-9025LI012DURHAM    NC0426DURHAM    NC04260000000000000000000005000000000000000017000000000799195498550
00004077940524173207919/549-9025LI012DURHAM    NC0426DURHAM    NC04260000000000000000000005000000000000000017000000000799195494887
00004077940524173237919/549-9025LI012DURHAM    NC0426DURHAM    NC04260000000000000000000005000000000000000017000000000799195494888
00004077940524172725919/549-9025LI012DURHAM    NC0426DURHAM    NC04260000000000000000000005000000000000000019000000000799195494876
00004077940524172414919/549-9025LI012DURHAM    NC0426DURHAM    NC04260000000000000000000005000000000000000017000000000799195494870
00004077940524172341919/549-9025LI012DURHAM    NC0426DURHAM    NC04260000000000000000000005000000000000000017000000000799195494869
00004077940524172759919/549-9025LI012DURHAM    NC0426DURHAM    NC04260000000000000000000005000000000000000017000000000799195494877
00004077940524172142919/549-9025LI012DURHAM    NC0426DURHAM    NC04260000000000000000000005000000000000000017000000000799195494865
00004077940524172212919/549-9025LI012DURHAM    NC0426DURHAM    NC04260000000000000000000005000000000000000017000000000799195494866
00004077940524172829919/549-9025LI012DURHAM    NC0426DURHAM    NC04260000000000000000000005000000000000000017000000000799195494879
00004077940524172935919/549-9025LI012DURHAM    NC0426DURHAM    NC04260000000000000000000005000000000000000017000000000799195494881
00004077940524172447919/549-9025LI012DURHAM    NC0426DURHAM    NC04260000000000000000000005000000000000000017000000000799195494871
00004077940524172905919/549-9025LI012DURHAM    NC0426DURHAM    NC04260000000000000000000005000000000000000017000000000799195494880
00004077940524173004919/549-9025LI012DURHAM    NC0426DURHAM    NC04260000000000000000000005000000000000000019000000000799195494882
00004077940524172112919/549-9025LI012DURHAM    NC0426DURHAM    NC04260000000000000000000005000000000000000019000000000799195494864
00004077940524171819919/549-9025LI012DURHAM    NC0426DURHAM    NC04260000000000000000000005000000000000000019000000000799195498523
00004077940524163627919/549-9025LI012DURHAM    NC0426RALEIGH   NC04260000000000000000000005000000000000000019000000655609198290536
00004077940524062733919/549-9025LI012DURHAM    NC0426RALEIGH   NC04260000000000000000000005000000000000000017000000655609198290536
00004077940524012638919/549-9025LI012DURHAM    NC0426RALEIGH   NC04260000000000000000000005000000000000000017000000655609198290536
00004077940523201835919/549-9025LI012DURHAM    NC0426RALEIGH   NC04260000000000000000000005000000000000000017000000655609198290536
00004077940524113526919/549-9025LI012DURHAM    NC0426RALEIGH   NC04260000000000000000000005000000000000000019000000655609198290536
00004107940524041642209/442-4328LD010FRESNO    CA0728FRESNO    CA07280000000000900000000015000000000000000036000000000792094424330
00004107940524041714209/442-4328LD010FRESNO    CA0728FRESNO    CA07280000000000900000000015000000000000000039000000000792094424332
00004107940524011226209/442-4328LD010FRESNO    CA0728FRESNO    CA07280000000000900000000015000000000000000019000000655602094424328
00004107940524111557209/442-4328LD010FRESNO    CA0728FRESNO    CA07280000000000900000000015000000000000000017000000655602094424328
00004107940523200926209/442-4328LD010FRESNO    CA0728FRESNO    CA07280000000000900000000015000000000000000019000000655602094424328
00004107940524061648209/442-4328LD010FRESNO    CA0728FRESNO    CA07280000000000900000000015000000000000000017000000655602094424328
00004107940524041748209/442-4328LD010FRESNO    CA0728FRESNO    CA07280000000000900000000015000000000000000014000000000792094424367
00004107940524041814209/442-4328LD010FRESNO    CA0728FRESNO    CA07280000000000900000000015000000000000000014000000000792094424385
00004107940524041840209/442-4328LD010FRESNO    CA0728FRESNO    CA07280000000000900000000015000000000000000039000000000792094424389
00004121940524032122703/427-3250LD010ROANOKE   VA0244ROANOKE   VA02440000000000000000000005000000000000000008000000655607033442762
00004121940524082154703/427-3250LD010ROANOKE   VA0244ROANOKE   VA02440000000000000000000005000000000000000025000000655607033442762
00004122940524135858603/623-0409LD010MANCHESTERNH0122MANCHESTERNH01220000000000000000000005000000000000000019000000000796036256747
00004122940524135806603/623-0409LD010MANCHESTERNH0122MANCHESTERNH01220000000000000000000005000000000000000017000000000796036233726
00004122940524135711603/623-0409LD010MANCHESTERNH0122MANCHESTERNH01220000000000000000000005000000000000000019000000000796036232461
00004122940524135739603/623-0409LD010MANCHESTERNH0122MANCHESTERNH01220000000000000000000005000000000000000017000000000796036232835
00004122940524135645603/623-0409LD010MANCHESTERNH0122MANCHESTERNH01220000000000000000000005000000000000000017000000000796036231609
00004122940524135614603/623-0409LD010MANCHESTERNH0122MANCHESTERNH01220000000000000000000005000000000000000019000000000796036238057
00004122940524135927603/623-0409LD010MANCHESTERNH0122MANCHESTERNH01220000000000000000000005000000000000000019000000000796036256069
00004122940524140024603/623-0409LD010MANCHESTERNH0122MANCHESTERNH01220000000000000000000005000000000000000017000000000796036252947
00004122940524135955603/623-0409LD010MANCHESTERNH0122MANCHESTERNH01220000000000000000000005000000000000000017000000000796036259165
00004122940524140052603/623-0409LD010MANCHESTERNH0122MANCHESTERNH01220000000000000000000005000000000000000019000000000796036412242
00004122940524140120603/623-0409LD010MANCHESTERNH0122MANCHESTERNH01220000000000000000000005000000000000000019000000000796036412545
00004154940524003740805/985-7843LI010OXNARD    CA0730OXNARD    CA07300000000000900000000015000000000000000014000000000798059853509
00004154940524003833805/985-7843LI010OXNARD    CA0730OXNARD    CA07300000000000900000000015000000000000000014000000000798053821087
00004154940524003900805/985-7843LI010OXNARD    CA0730OXNARD    CA07300000000000900000000015000000000000000017000000000798059840170
00004154940524003806805/985-7843LI010OXNARD    CA0730OXNARD    CA07300000000000900000000015000000000000000017000000000798059847917
00004154940524003653805/985-7843LI010OXNARD    CA0730OXNARD    CA07300000000000900000000015000000000000000017000000000798059853028
00004154940524001707805/985-7843LI010OXNARD    CA0730OXNARD    CA07300000000000900000000015000000000000000019000000135168059857843
00004154940523192659805/985-7843LI010OXNARD    CA0730OXNARD    CA07300000000000900000000015000000000000000019000000135168059857843
00004154940524145101805/985-7843LI010OXNARD    CA0730OXNARD    CA07300000000000900000000015000000000000000017000000135168059857843
00004154940524095522805/985-7843LI010OXNARD    CA0730OXNARD    CA07300000000000900000000015000000000000000019000000135168059857843
00004154940524050159805/985-7843LI010OXNARD    CA0730OXNARD    CA07300000000000900000000015000000000000000019000000135168059857843
00004154940524003601805/985-7843LI010OXNARD    CA0730OXNARD    CA07300000000000900000000015000000000000000014000000000798059852157
00004154940524003627805/985-7843LI010OXNARD    CA0730OXNARD    CA07300000000000900000000015000000000000000017000000000798059852931
00004166940524051255707/645-1090LD010VALLEJO   CA0722VALLEJO   CA07220000000000900000000015000000000000000019000000135167076451090
00004166940524150143707/645-1090LD010VALLEJO   CA0722VALLEJO   CA07220000000000900000000015000000000000000017000000135167076451090
00004166940523193746707/645-1090LD010VALLEJO   CA0722VALLEJO   CA07220000000000900000000015000000000000000019000000135167076451090
00004166940524100616707/645-1090LD010VALLEJO   CA0722VALLEJO   CA07220000000000900000000015000000000000000019000000135167076451090
00004166940524002738707/645-1090LD010VALLEJO   CA0722VALLEJO   CA07220000000000900000000015000000000000000019000000135167076451090
00004232940524170237516/420-4579LD010FARMINGDL NY0132FARMINGDL NY01320000000000900000000015000000000000000017000000655605164201221
00004232940523223813516/420-4579LD010FARMINGDL NY0132FARMINGDL NY01320000000000900000000015000000000000000017000000000795164201226
00004232940523224654516/420-4579LD010FARMINGDL NY0132FARMINGDL NY01320000000000900000000015000000000000000017000000000795164205698
00004232940523224050516/420-4579LD010FARMINGDL NY0132FARMINGDL NY01320000000000900000000015000000000000000019000000000795164201384
00004232940523224154516/420-4579LD010FARMINGDL NY0132FARMINGDL NY01320000000000900000000015000000000000000019000000000795164204572
00004232940523224122516/420-4579LD010FARMINGDL NY0132FARMINGDL NY01320000000000900000000015000000000000000019000000000795164204570
00004232940523224622516/420-4579LD010FARMINGDL NY0132FARMINGDL NY01320000000000900000000015000000000000000017000000000795164205697
00004232940523224426516/420-4579LD010FARMINGDL NY0132FARMINGDL NY01320000000000900000000015000000000000000017000000000795164204578
00004232940523224022516/420-4579LD010FARMINGDL NY0132FARMINGDL NY01320000000000900000000015000000000000000019000000000795164201258
00004232940523223952516/420-4579LD010FARMINGDL NY0132FARMINGDL NY01320000000000900000000015000000000000000019000000000795164201254
00004232940523224354516/420-4579LD010FARMINGDL NY0132FARMINGDL NY01320000000000900000000015000000000000000019000000000795164204577
00004232940523224454516/420-4579LD010FARMINGDL NY0132FARMINGDL NY01320000000000900000000015000000000000000017000000000795164205625
00004232940523223747516/420-4579LD010FARMINGDL NY0132FARMINGDL NY01320000000000900000000015000000000000000017000000000795164201225
00004232940523224556516/420-4579LD010FARMINGDL NY0132FARMINGDL NY01320000000000900000000015000000000000000017000000000795164205696
00004232940523224526516/420-4579LD010FARMINGDL NY0132FARMINGDL NY01320000000000900000000015000000000000000019000000000795164205681
00004232940524115037516/420-4579LD010FARMINGDL NY0132FARMINGDL NY01320000000000900000000015000000000000000019000000000795164209236
00004232940524115105516/420-4579LD010FARMINGDL NY0132FARMINGDL NY01320000000000900000000015000000000000000019000000000795164207011
00004232940524115157516/420-4579LD010FARMINGDL NY0132FARMINGDL NY01320000000000900000000015000000000000000019000000000795164207017
00004232940524115137516/420-4579LD010FARMINGDL NY0132FARMINGDL NY01320000000000900000000015000000000000000019000000000795164207012
00004232940524115227516/420-4579LD010FARMINGDL NY0132FARMINGDL NY01320000000000900000000015000000000000000019000000000795164207018
00004232940524115001516/420-4579LD010FARMINGDL NY0132FARMINGDL NY01320000000000900000000015000000000000000019000000000795164209083
00004232940524115301516/420-4579LD010FARMINGDL NY0132FARMINGDL NY01320000000000900000000015000000000000000019000000000795164207020
00004232940524114929516/420-4579LD010FARMINGDL NY0132FARMINGDL NY01320000000000900000000015000000000000000019000000000795164209082
00004232940523224254516/420-4579LD010FARMINGDL NY0132FARMINGDL NY01320000000000900000000015000000000000000019000000000795164204574
00004232940523223923516/420-4579LD010FARMINGDL NY0132FARMINGDL NY01320000000000900000000015000000000000000017000000000795164201239
00004232940523224324516/420-4579LD010FARMINGDL NY0132FARMINGDL NY01320000000000900000000015000000000000000019000000000795164204575
00004232940523224222516/420-4579LD010FARMINGDL NY0132FARMINGDL NY01320000000000900000000015000000000000000019000000000795164204573
00004232940523223845516/420-4579LD010FARMINGDL NY0132FARMINGDL NY01320000000000900000000015000000000000000017000000000795164201218
00004255940524141414805/549-0770LD010SAN LUS OBCA0740SAN LUS OBCA07400000000000900000000015000000000000000039000000000798055498468
00004255940524141628805/549-0770LD010SAN LUS OBCA0740SAN LUS OBCA07400000000000900000000015000000000000000039000000000798055497807
00004255940524061927805/549-0770LD010SAN LUS OBCA0740SAN LUS OBCA07400000000000900000000015000000000000000019000000655608055490770
00004255940524011508805/549-0770LD010SAN LUS OBCA0740SAN LUS OBCA07400000000000900000000015000000000000000014000000655608055490770
00004255940524111836805/549-0770LD010SAN LUS OBCA0740SAN LUS OBCA07400000000000900000000015000000000000000022000000655608055490770
00004255940523201205805/549-0770LD010SAN LUS OBCA0740SAN LUS OBCA07400000000000900000000015000000000000000022000000655608055490770
00004255940524141530805/549-0770LD010SAN LUS OBCA0740SAN LUS OBCA07400000000000900000000015000000000000000014000000000798055497805
00004255940524141559805/549-0770LD010SAN LUS OBCA0740SAN LUS OBCA07400000000000900000000015000000000000000017000000000798055497806
00004255940524141452805/549-0770LD010SAN LUS OBCA0740SAN LUS OBCA07400000000000900000000015000000000000000039000000000798055497804
00004263940524021149909/860-0057LI010DIAMONDBARCA0730DIAMONDBARCA07300000000000900000000015000000000000000042000000000799093968979
00004263940524021121909/860-0057LI010DIAMONDBARCA0730DIAMONDBARCA07300000000000900000000015000000000000000014000000000799098607668
00004263940524011654909/860-0057LI010DIAMONDBARCA0730DIAMONDBARCA07300000000000900000000015000000000000000019000000655609098600057
00004263940524020906909/860-0057LI010DIAMONDBARCA0730DIAMONDBARCA07300000000000900000000015000000000000000014000000000799098603960
00004263940524021053909/860-0057LI010DIAMONDBARCA0730DIAMONDBARCA07300000000000900000000015000000000000000014000000000799098607697
00004263940524020839909/860-0057LI010DIAMONDBARCA0730DIAMONDBARCA07300000000000900000000015000000000000000017000000000799098602097
00004263940524020813909/860-0057LI010DIAMONDBARCA0730DIAMONDBARCA07300000000000900000000015000000000000000014000000000799098615438
00004263940524021025909/860-0057LI010DIAMONDBARCA0730DIAMONDBARCA07300000000000900000000015000000000000000014000000000799098611279
00004263940524012232909/860-0057LI010DIAMONDBARCA0730UPLAND    CA07300000000000900000000015000000000000000019000000655609099851153
00004271940524074151714/379-1728LI010WESTMINSTRCA0730WESTMINSTRCA07300000000000900000000015000000000000000017000000000797143791750
00004271940524074111714/379-1728LI010WESTMINSTRCA0730WESTMINSTRCA07300000000000900000000015000000000000000017000000000797143791740
00004271940524001002714/379-1728LI010WESTMINSTRCA0730WESTMINSTRCA07300000000000900000000015000000000000000078000000135167143791728
00004271940523191922714/379-1728LI010WESTMINSTRCA0730WESTMINSTRCA07300000000000900000000015000000000000000075000000135167143791728
00004271940524023730714/379-1728LI010WESTMINSTRCA0730LONG BEACHCA07300000000000900000000015000000000000000200000000636613104928727
00004271940523190932714/379-1728LI010WESTMINSTRCA0730IRVINE    CA07300000000000900000000015000000000000000003000000135167147568341
00004271940524000012714/379-1728LI010WESTMINSTRCA0730IRVINE    CA07300000000000900000000015000000000000000019000000135167147568341
00004271940523235909714/379-1728LI010WESTMINSTRCA0730IRVINE    CA07300000000000900000000015000000000000000075000000135167148528141
00004271940523190837714/379-1728LI010WESTMINSTRCA0730IRVINE    CA07300000000000900000000015000000000000000075000000135167148528141
00004305940523231516217/425-8864LD010DECATUR   IL0374DECATUR   IL03740000000000900000000015000000000000000019000000655602174258864
00004305940524092338217/425-8864LD010DECATUR   IL0374DECATUR   IL03740000000000900000000015000000000000000019000000655602174258864
00004305940524041807217/425-8864LD010DECATUR   IL0374DECATUR   IL03740000000000900000000015000000000000000017000000655602174258864
00004305940524142406217/425-8864LD010DECATUR   IL0374DECATUR   IL03740000000000900000000015000000000000000019000000655602174258864
00004305940523180849217/425-8864LD010DECATUR   IL0374DECATUR   IL03740000000000900000000015000000000000000019000000655602174258864
00004305940523223108217/425-8864LD010DECATUR   IL0374SPRINGFLD IL03740000000000900000000015000000000000000019000000135162175440312
